{
  "contractName": "FollowTrustVerifier",
  "abi": [
    {
      "inputs": [
        {
          "internalType": "address",
          "name": "_trustHub",
          "type": "address"
        },
        {
          "internalType": "address",
          "name": "_tokenHub",
          "type": "address"
        },
        {
          "internalType": "address",
          "name": "_following",
          "type": "address"
        }
      ],
      "stateMutability": "nonpayable",
      "type": "constructor"
    },
    {
      "inputs": [],
      "name": "following",
      "outputs": [
        {
          "internalType": "address",
          "name": "",
          "type": "address"
        }
      ],
      "stateMutability": "view",
      "type": "function"
    },
    {
      "inputs": [],
      "name": "tokenHub",
      "outputs": [
        {
          "internalType": "address",
          "name": "",
          "type": "address"
        }
      ],
      "stateMutability": "view",
      "type": "function"
    },
    {
      "inputs": [],
      "name": "trustHub",
      "outputs": [
        {
          "internalType": "address",
          "name": "",
          "type": "address"
        }
      ],
      "stateMutability": "view",
      "type": "function"
    },
    {
      "inputs": [
        {
          "internalType": "address",
          "name": "tokenOwner",
          "type": "address"
        },
        {
          "internalType": "address",
          "name": "src",
          "type": "address"
        },
        {
          "internalType": "address",
          "name": "dest",
          "type": "address"
        }
      ],
      "name": "checkSendLimit",
      "outputs": [
        {
          "internalType": "uint256",
          "name": "",
          "type": "uint256"
        }
      ],
      "stateMutability": "view",
      "type": "function"
    }
  ],
  "bytecode": "0x60e060405234801561001057600080fd5b506040516104153803806104158339818101604052606081101561003357600080fd5b50805160208201516040909201516001600160601b0319606092831b811660805292821b831660a052901b1660c05260805160601c60a05160601c60c05160601c6103716100a46000398060d1528061016f525080610119528061021452508060f5528061014052506103716000f3fe608060405234801561001057600080fd5b506004361061004c5760003560e01c80631d94dff114610051578063422482da14610075578063874ec80e1461007d5780638a0ef18414610085575b600080fd5b6100596100cf565b604080516001600160a01b039092168252519081900360200190f35b6100596100f3565b610059610117565b6100bd6004803603606081101561009b57600080fd5b506001600160a01b03813581169160208101358216916040909101351661013b565b60408051918252519081900360200190f35b7f000000000000000000000000000000000000000000000000000000000000000081565b7f000000000000000000000000000000000000000000000000000000000000000081565b7f000000000000000000000000000000000000000000000000000000000000000081565b6000807f00000000000000000000000000000000000000000000000000000000000000006001600160a01b031663a3eb2b4a7f0000000000000000000000000000000000000000000000000000000000000000876040518363ffffffff1660e01b815260040180836001600160a01b03168152602001826001600160a01b031681526020019250505060206040518083038186803b1580156101dc57600080fd5b505afa1580156101f0573d6000803e3d6000fd5b505050506040513d602081101561020657600080fd5b50519050801561032e5760007f00000000000000000000000000000000000000000000000000000000000000006001600160a01b031663d4688092876040518263ffffffff1660e01b815260040180826001600160a01b0316815260200191505060206040518083038186803b15801561027f57600080fd5b505afa158015610293573d6000803e3d6000fd5b505050506040513d60208110156102a957600080fd5b5051604080516370a0823160e01b81526001600160a01b0388811660048301529151929350908316916370a0823191602480820192602092909190829003018186803b1580156102f857600080fd5b505afa15801561030c573d6000803e3d6000fd5b505050506040513d602081101561032257600080fd5b50519250610334915050565b60009150505b939250505056fea264697066735822122077ccac413804aba2614f19ef94a0cb2db115c9e20804ce41438d244276091ef164736f6c63430007010033",
  "immutableReferences": {
    "486": [
      {
        "length": 32,
        "start": 245
      },
      {
        "length": 32,
        "start": 320
      }
    ],
    "488": [
      {
        "length": 32,
        "start": 281
      },
      {
        "length": 32,
        "start": 532
      }
    ],
    "490": [
      {
        "length": 32,
        "start": 209
      },
      {
        "length": 32,
        "start": 367
      }
    ]
  },
  "source": "import \"./interfaces/HubI.sol\";\nimport \"./interfaces/HubV2I.sol\";\nimport \"./Token.sol\";\n\ncontract FollowTrustVerifier {\n    address public immutable trustHub;\n    address public immutable tokenHub;\n    address public immutable following;\n\n    constructor(\n        address _trustHub,\n        address _tokenHub,\n        address _following\n    ) {\n        trustHub = _trustHub;\n        tokenHub = _tokenHub;\n        following = _following;\n    }\n\n    function checkSendLimit(address tokenOwner, address src, address dest) public view returns (uint256) {\n        uint256 trustLimit = HubI(trustHub).limits(following, tokenOwner);\n        if (trustLimit > 0) {\n            Token t = HubV2I(tokenHub).tokenOfUser(tokenOwner);\n            return t.balanceOf(src);\n        }\n        return 0;\n    }\n}",
  "sourcePath": "/home/daniel/src/circles-world/circles-contracts/contracts/FollowTrustVerifier.sol",
  "compiler": {
    "name": "solc",
    "version": "0.7.1+commit.f4a555be.Emscripten.clang"
  },
  "schemaVersion": "3.4.8",
  "updatedAt": "2022-07-16T18:47:06.605Z",
  "devdoc": {
    "kind": "dev",
    "methods": {},
    "version": 1
  },
  "userdoc": {
    "kind": "user",
    "methods": {},
    "version": 1
  }
}