{
  "contractName": "GroupCurrencyTokenCentralizedEdition",
  "abi": [
    {
      "inputs": [
        {
          "internalType": "address",
          "name": "_hub",
          "type": "address"
        },
        {
          "internalType": "address",
          "name": "_treasury",
          "type": "address"
        },
        {
          "internalType": "address",
          "name": "_owner",
          "type": "address"
        },
        {
          "internalType": "uint8",
          "name": "_mintFeePerThousand",
          "type": "uint8"
        },
        {
          "internalType": "string",
          "name": "_name",
          "type": "string"
        },
        {
          "internalType": "string",
          "name": "_symbol",
          "type": "string"
        }
      ],
      "stateMutability": "nonpayable",
      "type": "constructor"
    },
    {
      "anonymous": false,
      "inputs": [
        {
          "indexed": true,
          "internalType": "address",
          "name": "owner",
          "type": "address"
        },
        {
          "indexed": true,
          "internalType": "address",
          "name": "spender",
          "type": "address"
        },
        {
          "indexed": false,
          "internalType": "uint256",
          "name": "value",
          "type": "uint256"
        }
      ],
      "name": "Approval",
      "type": "event"
    },
    {
      "anonymous": false,
      "inputs": [
        {
          "indexed": true,
          "internalType": "address",
          "name": "receiver",
          "type": "address"
        },
        {
          "indexed": false,
          "internalType": "uint256",
          "name": "amount",
          "type": "uint256"
        },
        {
          "indexed": false,
          "internalType": "uint256",
          "name": "mintAmount",
          "type": "uint256"
        },
        {
          "indexed": false,
          "internalType": "uint256",
          "name": "mintFee",
          "type": "uint256"
        }
      ],
      "name": "Minted",
      "type": "event"
    },
    {
      "anonymous": false,
      "inputs": [
        {
          "indexed": true,
          "internalType": "address",
          "name": "from",
          "type": "address"
        },
        {
          "indexed": true,
          "internalType": "address",
          "name": "to",
          "type": "address"
        },
        {
          "indexed": false,
          "internalType": "uint256",
          "name": "value",
          "type": "uint256"
        }
      ],
      "name": "Transfer",
      "type": "event"
    },
    {
      "inputs": [
        {
          "internalType": "address",
          "name": "owner",
          "type": "address"
        },
        {
          "internalType": "address",
          "name": "spender",
          "type": "address"
        }
      ],
      "name": "allowance",
      "outputs": [
        {
          "internalType": "uint256",
          "name": "",
          "type": "uint256"
        }
      ],
      "stateMutability": "view",
      "type": "function"
    },
    {
      "inputs": [
        {
          "internalType": "address",
          "name": "spender",
          "type": "address"
        },
        {
          "internalType": "uint256",
          "name": "amount",
          "type": "uint256"
        }
      ],
      "name": "approve",
      "outputs": [
        {
          "internalType": "bool",
          "name": "",
          "type": "bool"
        }
      ],
      "stateMutability": "nonpayable",
      "type": "function"
    },
    {
      "inputs": [
        {
          "internalType": "address",
          "name": "account",
          "type": "address"
        }
      ],
      "name": "balanceOf",
      "outputs": [
        {
          "internalType": "uint256",
          "name": "",
          "type": "uint256"
        }
      ],
      "stateMutability": "view",
      "type": "function"
    },
    {
      "inputs": [],
      "name": "decimals",
      "outputs": [
        {
          "internalType": "uint8",
          "name": "",
          "type": "uint8"
        }
      ],
      "stateMutability": "view",
      "type": "function"
    },
    {
      "inputs": [
        {
          "internalType": "address",
          "name": "spender",
          "type": "address"
        },
        {
          "internalType": "uint256",
          "name": "subtractedValue",
          "type": "uint256"
        }
      ],
      "name": "decreaseAllowance",
      "outputs": [
        {
          "internalType": "bool",
          "name": "",
          "type": "bool"
        }
      ],
      "stateMutability": "nonpayable",
      "type": "function"
    },
    {
      "inputs": [],
      "name": "hub",
      "outputs": [
        {
          "internalType": "address",
          "name": "",
          "type": "address"
        }
      ],
      "stateMutability": "view",
      "type": "function"
    },
    {
      "inputs": [
        {
          "internalType": "address",
          "name": "spender",
          "type": "address"
        },
        {
          "internalType": "uint256",
          "name": "addedValue",
          "type": "uint256"
        }
      ],
      "name": "increaseAllowance",
      "outputs": [
        {
          "internalType": "bool",
          "name": "",
          "type": "bool"
        }
      ],
      "stateMutability": "nonpayable",
      "type": "function"
    },
    {
      "inputs": [],
      "name": "mintFeePerThousand",
      "outputs": [
        {
          "internalType": "uint8",
          "name": "",
          "type": "uint8"
        }
      ],
      "stateMutability": "view",
      "type": "function"
    },
    {
      "inputs": [],
      "name": "name",
      "outputs": [
        {
          "internalType": "string",
          "name": "",
          "type": "string"
        }
      ],
      "stateMutability": "view",
      "type": "function"
    },
    {
      "inputs": [],
      "name": "owner",
      "outputs": [
        {
          "internalType": "address",
          "name": "",
          "type": "address"
        }
      ],
      "stateMutability": "view",
      "type": "function"
    },
    {
      "inputs": [],
      "name": "suspended",
      "outputs": [
        {
          "internalType": "bool",
          "name": "",
          "type": "bool"
        }
      ],
      "stateMutability": "view",
      "type": "function"
    },
    {
      "inputs": [],
      "name": "symbol",
      "outputs": [
        {
          "internalType": "string",
          "name": "",
          "type": "string"
        }
      ],
      "stateMutability": "view",
      "type": "function"
    },
    {
      "inputs": [],
      "name": "totalSupply",
      "outputs": [
        {
          "internalType": "uint256",
          "name": "",
          "type": "uint256"
        }
      ],
      "stateMutability": "view",
      "type": "function"
    },
    {
      "inputs": [
        {
          "internalType": "address",
          "name": "sender",
          "type": "address"
        },
        {
          "internalType": "address",
          "name": "recipient",
          "type": "address"
        },
        {
          "internalType": "uint256",
          "name": "amount",
          "type": "uint256"
        }
      ],
      "name": "transferFrom",
      "outputs": [
        {
          "internalType": "bool",
          "name": "",
          "type": "bool"
        }
      ],
      "stateMutability": "nonpayable",
      "type": "function"
    },
    {
      "inputs": [],
      "name": "treasury",
      "outputs": [
        {
          "internalType": "address",
          "name": "",
          "type": "address"
        }
      ],
      "stateMutability": "view",
      "type": "function"
    },
    {
      "inputs": [
        {
          "internalType": "bool",
          "name": "_suspend",
          "type": "bool"
        }
      ],
      "name": "suspend",
      "outputs": [],
      "stateMutability": "nonpayable",
      "type": "function"
    },
    {
      "inputs": [
        {
          "internalType": "address",
          "name": "_owner",
          "type": "address"
        }
      ],
      "name": "changeOwner",
      "outputs": [],
      "stateMutability": "nonpayable",
      "type": "function"
    },
    {
      "inputs": [
        {
          "internalType": "address",
          "name": "_collateral",
          "type": "address"
        },
        {
          "internalType": "uint256",
          "name": "_amount",
          "type": "uint256"
        }
      ],
      "name": "mint",
      "outputs": [
        {
          "internalType": "uint256",
          "name": "",
          "type": "uint256"
        }
      ],
      "stateMutability": "nonpayable",
      "type": "function"
    },
    {
      "inputs": [
        {
          "internalType": "address",
          "name": "dst",
          "type": "address"
        },
        {
          "internalType": "uint256",
          "name": "wad",
          "type": "uint256"
        }
      ],
      "name": "transfer",
      "outputs": [
        {
          "internalType": "bool",
          "name": "",
          "type": "bool"
        }
      ],
      "stateMutability": "nonpayable",
      "type": "function"
    }
  ],
  "bytecode": "0x60a0604052600960f91b6080523480156200001957600080fd5b50604051620010d5380380620010d5833981810160405260c08110156200003f57600080fd5b81516020830151604080850151606086015160808701805193519597949692959194919392820192846401000000008211156200007b57600080fd5b9083019060208201858111156200009157600080fd5b8251640100000000811182820188101715620000ac57600080fd5b82525081516020918201929091019080838360005b83811015620000db578181015183820152602001620000c1565b50505050905090810190601f168015620001095780820380516001836020036101000a031916815260200191505b50604052602001805160405193929190846401000000008211156200012d57600080fd5b9083019060208201858111156200014357600080fd5b82516401000000008111828201881017156200015e57600080fd5b82525081516020918201929091019080838360005b838110156200018d57818101518382015260200162000173565b50505050905090810190601f168015620001bb5780820380516001836020036101000a031916815260200191505b5060405250508151620001d79150600690602084019062000252565b508151620001ed90600590602085019062000252565b5050600780546001600160a01b039485166001600160a01b0319918216179091556008805496851696821696909617909555506009805493909216929093169190911790556004805460ff9092166101000261ff0019909216919091179055620002ee565b828054600181600116156101000203166002900490600052602060002090601f016020900481019282601f106200029557805160ff1916838001178555620002c5565b82800160010185558215620002c5579182015b82811115620002c5578251825591602001919060010190620002a8565b50620002d3929150620002d7565b5090565b5b80821115620002d35760008155600101620002d8565b60805160f81c610dc96200030c600039806104dd5250610dc96000f3fe608060405234801561001057600080fd5b50600436106101015760003560e01c806361d027b31161009d57806361d027b3146102b5578063702efdf3146102bd57806370a08231146102c55780638da5cb5b146102eb57806395d89b41146102f3578063a457c2d7146102fb578063a6f9dae114610327578063a9059cbb1461034f578063bfd812ec1461037b578063dd62ed3e1461039a57610101565b806306fdde0314610106578063095ea7b31461018357806318160ddd146101c357806323b872dd146101dd578063313ce56714610213578063365a86fc146102315780633950935114610255578063409400061461028157806340c10f1914610289575b600080fd5b61010e6103c8565b6040805160208082528351818301528351919283929083019185019080838360005b83811015610148578181015183820152602001610130565b50505050905090810190601f1680156101755780820380516001836020036101000a031916815260200191505b509250505060405180910390f35b6101af6004803603604081101561019957600080fd5b506001600160a01b038135169060200135610456565b604080519115158252519081900360200190f35b6101cb61046c565b60408051918252519081900360200190f35b6101af600480360360608110156101f357600080fd5b506001600160a01b03813581169160208101359091169060400135610472565b61021b6104db565b6040805160ff9092168252519081900360200190f35b6102396104ff565b604080516001600160a01b039092168252519081900360200190f35b6101af6004803603604081101561026b57600080fd5b506001600160a01b03813516906020013561050e565b61021b610544565b6101cb6004803603604081101561029f57600080fd5b506001600160a01b038135169060200135610552565b6102396105d9565b6101af6105e8565b6101cb600480360360208110156102db57600080fd5b50356001600160a01b03166105f7565b610239610612565b61010e610621565b6101af6004803603604081101561031157600080fd5b506001600160a01b03813516906020013561067c565b61034d6004803603602081101561033d57600080fd5b50356001600160a01b03166106cb565b005b6101af6004803603604081101561036557600080fd5b506001600160a01b038135169060200135610704565b61034d6004803603602081101561039157600080fd5b50351515610710565b6101cb600480360360408110156103b057600080fd5b506001600160a01b0381358116916020013516610743565b6005805460408051602060026001851615610100026000190190941693909304601f8101849004840282018401909252818152929183018282801561044e5780601f106104235761010080835404028352916020019161044e565b820191906000526020600020905b81548152906001019060200180831161043157829003601f168201915b505050505081565b600061046333848461076e565b50600192915050565b60025490565b600061047f84848461085a565b6104d184336104cc85604051806060016040528060288152602001610cfe602891396001600160a01b038a16600090815260016020908152604080832033845290915290205491906109b5565b61076e565b5060019392505050565b7f000000000000000000000000000000000000000000000000000000000000000081565b6008546001600160a01b031681565b3360008181526001602090815260408083206001600160a01b038716845290915281205490916104639185906104cc9086610a4c565b600454610100900460ff1681565b6007546000906001600160a01b0316331461056c57600080fd5b60045462010000900460ff16156105c8576040805162461bcd60e51b815260206004820152601b60248201527a26b4b73a34b733903430b9903132b2b71039bab9b832b73232b21760291b604482015290519081900360640190fd5b6105d28383610a50565b9392505050565b6009546001600160a01b031681565b60045462010000900460ff1681565b6001600160a01b031660009081526020819052604090205490565b6007546001600160a01b031681565b6006805460408051602060026001851615610100026000190190941693909304601f8101849004840282018401909252818152929183018282801561044e5780601f106104235761010080835404028352916020019161044e565b600061046333846104cc85604051806060016040528060258152602001610d6f602591393360009081526001602090815260408083206001600160a01b038d16845290915290205491906109b5565b6007546001600160a01b031633146106e257600080fd5b600780546001600160a01b0319166001600160a01b0392909216919091179055565b60006105d28383610b74565b6007546001600160a01b0316331461072757600080fd5b60048054911515620100000262ff000019909216919091179055565b6001600160a01b03918216600090815260016020908152604080832093909416825291909152205490565b6001600160a01b0383166107b35760405162461bcd60e51b8152600401808060200182810382526024815260200180610d4b6024913960400191505060405180910390fd5b6001600160a01b0382166107f85760405162461bcd60e51b8152600401808060200182810382526022815260200180610cb66022913960400191505060405180910390fd5b6001600160a01b03808416600081815260016020908152604080832094871680845294825291829020859055815185815291517f8c5be1e5ebec7d5bd14f71427d1e84f3dd0314c0f7b2291e5b200ac8c7c3b9259281900390910190a3505050565b6001600160a01b03831661089f5760405162461bcd60e51b8152600401808060200182810382526025815260200180610d266025913960400191505060405180910390fd5b6001600160a01b0382166108e45760405162461bcd60e51b8152600401808060200182810382526023815260200180610c936023913960400191505060405180910390fd5b6108ef838383610b81565b61092c81604051806060016040528060268152602001610cd8602691396001600160a01b03861660009081526020819052604090205491906109b5565b6001600160a01b03808516600090815260208190526040808220939093559084168152205461095b9082610a4c565b6001600160a01b038084166000818152602081815260409182902094909455805185815290519193928716927fddf252ad1be2c89b69c2b068fc378daa952ba7f163c4a11628f55a4df523b3ef92918290030190a3505050565b60008184841115610a445760405162461bcd60e51b81526004018080602001828103825283818151815260200191508051906020019080838360005b83811015610a095781810151838201526020016109f1565b50505050905090810190601f168015610a365780820380516001836020036101000a031916815260200191505b509250505060405180910390fd5b505050900390565b0190565b6004546000908190610a7690610100900460ff16610a70856103e8610b86565b90610b99565b90506000610a848483610b9d565b600754909150610a9d906001600160a01b031682610ba2565b600754600954604080516323b872dd60e01b81526001600160a01b03938416600482015291831660248301526044820187905251918716916323b872dd916064808201926020929091908290030181600087803b158015610afd57600080fd5b505af1158015610b11573d6000803e3d6000fd5b505050506040513d6020811015610b2757600080fd5b50506040805185815260208101839052808201849052905133917f5a3358a3d27a5373c0df2604662088d37894d56b7cfd27f315770440f4e0d919919081900360600190a2949350505050565b600061046333848461085a565b505050565b6000818381610b9157fe5b049392505050565b0290565b900390565b6001600160a01b038216610bfd576040805162461bcd60e51b815260206004820152601f60248201527f45524332303a206d696e7420746f20746865207a65726f206164647265737300604482015290519081900360640190fd5b610c0960008383610b81565b600254610c169082610a4c565b6002556001600160a01b038216600090815260208190526040902054610c3c9082610a4c565b6001600160a01b0383166000818152602081815260408083209490945583518581529351929391927fddf252ad1be2c89b69c2b068fc378daa952ba7f163c4a11628f55a4df523b3ef9281900390910190a3505056fe45524332303a207472616e7366657220746f20746865207a65726f206164647265737345524332303a20617070726f766520746f20746865207a65726f206164647265737345524332303a207472616e7366657220616d6f756e7420657863656564732062616c616e636545524332303a207472616e7366657220616d6f756e74206578636565647320616c6c6f77616e636545524332303a207472616e736665722066726f6d20746865207a65726f206164647265737345524332303a20617070726f76652066726f6d20746865207a65726f206164647265737345524332303a2064656372656173656420616c6c6f77616e63652062656c6f77207a65726fa264697066735822122033b8c62b42e514db529e4ffd4586de608c06bc7ff93782004efdd4a78a53525b64736f6c63430007010033",
  "immutableReferences": {
    "911": [
      {
        "length": 32,
        "start": 1245
      }
    ]
  },
  "source": "// SPDX-License-Identifier: AGPL\npragma solidity ^0.7.0;\n\nimport \"./lib/SafeMath.sol\";\nimport \"./ERC20.sol\";\nimport \"./interfaces/HubI.sol\";\n\ncontract GroupCurrencyTokenCentralizedEdition is ERC20 {\n    using SafeMath for uint256;\n\n    uint8 public immutable override decimals = 18;\n    uint8 public mintFeePerThousand;\n    \n    bool public suspended;\n    \n    string public name;\n    string public override symbol;\n\n    address public owner; // the safe/EOA/contract that deployed this token, can be changed by owner\n    address public hub; // the address of the hub this token is associated with\n    address public treasury; // account which gets the personal tokens for whatever later usage\n    \n    event Minted(address indexed receiver, uint256 amount, uint256 mintAmount, uint256 mintFee);\n\n    /// @dev modifier allowing function to be only called by the token owner\n    modifier onlyOwner() {\n        require(msg.sender == owner);\n        _;\n    }\n\n    constructor(address _hub, address _treasury, address _owner, uint8 _mintFeePerThousand, string memory _name, string memory _symbol) {\n        symbol = _symbol;\n        name = _name;\n        owner = _owner;\n        hub = _hub;\n        treasury = _treasury;\n        mintFeePerThousand = _mintFeePerThousand;\n    }\n    \n    function suspend(bool _suspend) public onlyOwner {\n        suspended = _suspend;\n    }\n    \n    function changeOwner(address _owner) public onlyOwner {\n        owner = _owner;\n    }\n    \n    // Group currently is created from collateral tokens. Collateral is directly part of the directMembers dictionary.\n    function mint(address _collateral, uint256 _amount) public onlyOwner returns (uint256) {\n        require(!suspended, \"Minting has been suspended.\");\n        return transferCollateralAndMint(_collateral, _amount);\n    }\n    \n    function transferCollateralAndMint(address _collateral, uint256 _amount) internal returns (uint256) {\n        uint256 mintFee = (_amount.div(1000)).mul(mintFeePerThousand);\n        uint256 mintAmount = _amount.sub(mintFee);\n        // mint amount-fee to msg.sender\n        _mint(owner, mintAmount);\n        // Token Swap, send CRC from GCTO to Treasury (has been transferred to GCTO by transferThrough)\n        ERC20(_collateral).transferFrom(owner, treasury, _amount);\n        emit Minted(msg.sender, _amount, mintAmount, mintFee);\n        return mintAmount;\n    }\n\n    function transfer(address dst, uint256 wad) public override returns (bool) {\n        // this code shouldn't be necessary, but when it's removed the gas estimation methods\n        // in the gnosis safe no longer work, still true as of solidity 7.1\n        return super.transfer(dst, wad);\n    }\n}\n",
  "sourcePath": "/home/daniel/src/circles-world/circles-contracts/contracts/GroupCurrencyTokenCentralizedEdition.sol",
  "compiler": {
    "name": "solc",
    "version": "0.7.1+commit.f4a555be.Emscripten.clang"
  },
  "schemaVersion": "3.4.8",
  "updatedAt": "2022-07-16T18:47:06.610Z",
  "devdoc": {
    "kind": "dev",
    "methods": {
      "allowance(address,address)": {
        "details": "See {IERC20-allowance}."
      },
      "approve(address,uint256)": {
        "details": "See {IERC20-approve}. Requirements: - `spender` cannot be the zero address."
      },
      "balanceOf(address)": {
        "details": "See {IERC20-balanceOf}."
      },
      "decreaseAllowance(address,uint256)": {
        "details": "Atomically decreases the allowance granted to `spender` by the caller. This is an alternative to {approve} that can be used as a mitigation for problems described in {IERC20-approve}. Emits an {Approval} event indicating the updated allowance. Requirements: - `spender` cannot be the zero address. - `spender` must have allowance for the caller of at least `subtractedValue`."
      },
      "increaseAllowance(address,uint256)": {
        "details": "Atomically increases the allowance granted to `spender` by the caller. This is an alternative to {approve} that can be used as a mitigation for problems described in {IERC20-approve}. Emits an {Approval} event indicating the updated allowance. Requirements: - `spender` cannot be the zero address."
      },
      "totalSupply()": {
        "details": "See {IERC20-totalSupply}."
      },
      "transferFrom(address,address,uint256)": {
        "details": "See {IERC20-transferFrom}. Emits an {Approval} event indicating the updated allowance. This is not required by the EIP. See the note at the beginning of {ERC20}; Requirements: - `sender` and `recipient` cannot be the zero address. - `sender` must have a balance of at least `amount`. - the caller must have allowance for ``sender``'s tokens of at least `amount`."
      }
    },
    "stateVariables": {
      "decimals": {
        "details": "Returns the number of decimals used to get its user representation. For example, if `decimals` equals `2`, a balance of `505` tokens should be displayed to a user as `5,05` (`505 / 10 ** 2`). Tokens usually opt for a value of 18, imitating the relationship between Ether and Wei. This is the value {ERC20} uses, unless {_setupDecimals} is called. NOTE: This information is only used for _display_ purposes: it in no way affects any of the arithmetic of the contract, including {IERC20-balanceOf} and {IERC20-transfer}."
      },
      "symbol": {
        "details": "Returns the symbol of the token, usually a shorter version of the name."
      }
    },
    "version": 1
  },
  "userdoc": {
    "kind": "user",
    "methods": {},
    "version": 1
  }
}