{
  "contractName": "GroupCurrencyTokenOwner",
  "abi": [
    {
      "inputs": [
        {
          "internalType": "address",
          "name": "_hub",
          "type": "address"
        },
        {
          "internalType": "address",
          "name": "_token",
          "type": "address"
        },
        {
          "internalType": "address",
          "name": "_owner",
          "type": "address"
        }
      ],
      "stateMutability": "nonpayable",
      "type": "constructor"
    },
    {
      "anonymous": false,
      "inputs": [
        {
          "indexed": true,
          "internalType": "address",
          "name": "receiver",
          "type": "address"
        },
        {
          "indexed": true,
          "internalType": "address",
          "name": "collateral",
          "type": "address"
        },
        {
          "indexed": false,
          "internalType": "uint256",
          "name": "amount",
          "type": "uint256"
        }
      ],
      "name": "Minted",
      "type": "event"
    },
    {
      "inputs": [],
      "name": "hub",
      "outputs": [
        {
          "internalType": "address",
          "name": "",
          "type": "address"
        }
      ],
      "stateMutability": "view",
      "type": "function"
    },
    {
      "inputs": [],
      "name": "owner",
      "outputs": [
        {
          "internalType": "address",
          "name": "",
          "type": "address"
        }
      ],
      "stateMutability": "view",
      "type": "function"
    },
    {
      "inputs": [],
      "name": "token",
      "outputs": [
        {
          "internalType": "address",
          "name": "",
          "type": "address"
        }
      ],
      "stateMutability": "view",
      "type": "function"
    },
    {
      "inputs": [],
      "name": "setup",
      "outputs": [],
      "stateMutability": "nonpayable",
      "type": "function"
    },
    {
      "inputs": [
        {
          "internalType": "address",
          "name": "_owner",
          "type": "address"
        }
      ],
      "name": "changeOwner",
      "outputs": [],
      "stateMutability": "nonpayable",
      "type": "function"
    },
    {
      "inputs": [
        {
          "internalType": "address[]",
          "name": "tokenOwners",
          "type": "address[]"
        },
        {
          "internalType": "address[]",
          "name": "srcs",
          "type": "address[]"
        },
        {
          "internalType": "address[]",
          "name": "dests",
          "type": "address[]"
        },
        {
          "internalType": "uint256[]",
          "name": "wads",
          "type": "uint256[]"
        }
      ],
      "name": "mintTransitive",
      "outputs": [],
      "stateMutability": "nonpayable",
      "type": "function"
    },
    {
      "inputs": [
        {
          "internalType": "address",
          "name": "_trustee",
          "type": "address"
        }
      ],
      "name": "trust",
      "outputs": [],
      "stateMutability": "nonpayable",
      "type": "function"
    }
  ],
  "bytecode": "0x608060405234801561001057600080fd5b50604051610b78380380610b788339818101604052606081101561003357600080fd5b5080516020820151604090920151600280546001600160a01b039283166001600160a01b031991821617909155600180549383169382169390931790925560008054919093169116179055610aeb8061008d6000396000f3fe608060405234801561001057600080fd5b506004361061006d5760003560e01c8063365a86fc146100725780634637d82714610096578063483bf2af146100be5780638da5cb5b146102e5578063a6f9dae1146102ed578063ba0bba4014610313578063fc0c546a1461031b575b600080fd5b61007a610323565b604080516001600160a01b039092168252519081900360200190f35b6100bc600480360360208110156100ac57600080fd5b50356001600160a01b0316610332565b005b6100bc600480360360808110156100d457600080fd5b810190602081018135600160201b8111156100ee57600080fd5b82018360208201111561010057600080fd5b803590602001918460208302840111600160201b8311171561012157600080fd5b9190808060200260200160405190810160405280939291908181526020018383602002808284376000920191909152509295949360208101935035915050600160201b81111561017057600080fd5b82018360208201111561018257600080fd5b803590602001918460208302840111600160201b831117156101a357600080fd5b9190808060200260200160405190810160405280939291908181526020018383602002808284376000920191909152509295949360208101935035915050600160201b8111156101f257600080fd5b82018360208201111561020457600080fd5b803590602001918460208302840111600160201b8311171561022557600080fd5b9190808060200260200160405190810160405280939291908181526020018383602002808284376000920191909152509295949360208101935035915050600160201b81111561027457600080fd5b82018360208201111561028657600080fd5b803590602001918460208302840111600160201b831117156102a757600080fd5b9190808060200260200160405190810160405280939291908181526020018383602002808284376000920191909152509295506103b9945050505050565b61007a610918565b6100bc6004803603602081101561030357600080fd5b50356001600160a01b0316610927565b6100bc610960565b61007a610a42565b6001546001600160a01b031681565b6002546001600160a01b0316331461034957600080fd5b60015460408051639951d62f60e01b81526001600160a01b0384811660048301526064602483015291519190921691639951d62f91604480830192600092919082900301818387803b15801561039e57600080fd5b505af11580156103b2573d6000803e3d6000fd5b5050505050565b336001600160a01b0316846000815181106103d057fe5b60200260200101516001600160a01b03161461041d5760405162461bcd60e51b8152600401808060200182810382526029815260200180610a8d6029913960400191505060405180910390fd5b600060018551039050306001600160a01b031683828151811061043c57fe5b60200260200101516001600160a01b0316146104895760405162461bcd60e51b815260040180806020018281038252603b815260200180610a52603b913960400191505060405180910390fd5b600154604051636b17ecd160e11b81526080600482019081528751608483015287516001600160a01b039093169263d62fd9a292899289928992899291829160248101916044820191606481019160a4909101906020808c01910280838360005b838110156105025781810151838201526020016104ea565b50505050905001858103845288818151815260200191508051906020019060200280838360005b83811015610541578181015183820152602001610529565b50505050905001858103835287818151815260200191508051906020019060200280838360005b83811015610580578181015183820152602001610568565b50505050905001858103825286818151815260200191508051906020019060200280838360005b838110156105bf5781810151838201526020016105a7565b5050505090500198505050505050505050600060405180830381600087803b1580156105ea57600080fd5b505af11580156105fe573d6000803e3d6000fd5b505060015487516001600160a01b0390911692506328d249fe915087908490811061062557fe5b60200260200101516040518263ffffffff1660e01b815260040180826001600160a01b03168152602001915050602060405180830381600087803b15801561066c57600080fd5b505af1158015610680573d6000803e3d6000fd5b505050506040513d602081101561069657600080fd5b505160005483516001600160a01b039283169263095ea7b39216908590859081106106bd57fe5b60200260200101516040518363ffffffff1660e01b815260040180836001600160a01b0316815260200182815260200192505050602060405180830381600087803b15801561070b57600080fd5b505af115801561071f573d6000803e3d6000fd5b505050506040513d602081101561073557600080fd5b50506000805460015487516001600160a01b039283169263ff05cc229230929116906328d249fe908b908890811061076957fe5b60200260200101516040518263ffffffff1660e01b815260040180826001600160a01b03168152602001915050602060405180830381600087803b1580156107b057600080fd5b505af11580156107c4573d6000803e3d6000fd5b505050506040513d60208110156107da57600080fd5b505186518790879081106107ea57fe5b60200260200101516040518463ffffffff1660e01b815260040180846001600160a01b03168152602001836001600160a01b031681526020018281526020019350505050602060405180830381600087803b15801561084857600080fd5b505af115801561085c573d6000803e3d6000fd5b505050506040513d602081101561087257600080fd5b50516000805487519293506001600160a01b03169163a9059cbb91889161089557fe5b6020026020010151836040518363ffffffff1660e01b815260040180836001600160a01b0316815260200182815260200192505050602060405180830381600087803b1580156108e457600080fd5b505af11580156108f8573d6000803e3d6000fd5b505050506040513d602081101561090e57600080fd5b5050505050505050565b6002546001600160a01b031681565b6002546001600160a01b0316331461093e57600080fd5b600280546001600160a01b0319166001600160a01b0392909216919091179055565b6002546001600160a01b0316331461097757600080fd5b600160009054906101000a90046001600160a01b03166001600160a01b0316633fbd653c6040518163ffffffff1660e01b8152600401600060405180830381600087803b1580156109c757600080fd5b505af11580156109db573d6000803e3d6000fd5b50506000805460408051630bf1e32b60e41b815230600482015290516001600160a01b03909216945063bf1e32b09350602480820193929182900301818387803b158015610a2857600080fd5b505af1158015610a3c573d6000803e3d6000fd5b50505050565b6000546001600160a01b03168156fe47726f757043757272656e6379546f6b656e4f776e6572206d7573742062652066696e616c20726563656976657220696e2074686520706174682e466972737420746f6b656e206f776e6572206d757374206265206d6573736167652073656e6465722ea2646970667358221220c694faa57fb10150f1c3f47c490edf466b4a55307ea0172c7d0080b0e66e9d1064736f6c63430007010033",
  "immutableReferences": {},
  "source": "// SPDX-License-Identifier: AGPL\npragma solidity ^0.7.0;\n\nimport \"./lib/SafeMath.sol\";\nimport \"./GroupCurrencyToken.sol\";\nimport \"./OrgaHub.sol\";\n\ncontract GroupCurrencyTokenOwner {\n    using SafeMath for uint256;\n\n    address public token; // the safe/EOA/contract that deployed this token, can be changed by owner\n    address public hub; // the address of the hub this token is associated with\n    address public owner; \n    \n    event Minted(address indexed receiver, address indexed collateral, uint256 amount);\n\n    /// @dev modifier allowing function to be only called by the token owner\n    modifier onlyOwner() {\n        require(msg.sender == owner);\n        _;\n    }\n\n    constructor(address _hub, address _token, address _owner) {\n        owner = _owner;\n        hub = _hub;\n        token = _token;\n    }\n    \n    function setup() public onlyOwner {\n       OrgaHub(hub).organizationSignup();\n       GroupCurrencyToken(token).addDelegatedTrustee(address(this));\n    }\n    \n    function changeOwner(address _owner) public onlyOwner {\n        owner = _owner;\n    }\n    \n    // Group currently is created from collateral tokens. Collateral is directly part of the directMembers dictionary.\n    function mintTransitive(address[] memory tokenOwners, address[] memory srcs, address[] memory dests, uint[] memory wads) public {\n        require(tokenOwners[0] == msg.sender, \"First token owner must be message sender.\");\n        uint lastElementIndex = tokenOwners.length-1;\n        require(dests[lastElementIndex] == address(this), \"GroupCurrencyTokenOwner must be final receiver in the path.\");\n        OrgaHub(hub).transferThrough(tokenOwners, srcs, dests, wads);\n        // approve GCT for CRC to be swapped so CRC can be transferred to Treasury\n        ERC20(HubI(hub).userToToken(tokenOwners[lastElementIndex])).approve(token, wads[lastElementIndex]);\n        uint mintedAmount = GroupCurrencyToken(token).mintDelegate(address(this), HubI(hub).userToToken(tokenOwners[lastElementIndex]), wads[lastElementIndex]);\n        ERC20(token).transfer(srcs[0], mintedAmount);\n    }\n        \n    // Trust must be called by this contract (as a delegate) on Hub\n    function trust(address _trustee) public onlyOwner {\n        OrgaHub(hub).trust(_trustee, 100);\n    }\n    \n}\n",
  "sourcePath": "/home/daniel/src/circles-world/circles-contracts/contracts/GroupCurrencyTokenOwner.sol",
  "compiler": {
    "name": "solc",
    "version": "0.7.1+commit.f4a555be.Emscripten.clang"
  },
  "schemaVersion": "3.4.8",
  "updatedAt": "2022-07-16T18:47:06.612Z",
  "devdoc": {
    "kind": "dev",
    "methods": {},
    "version": 1
  },
  "userdoc": {
    "kind": "user",
    "methods": {},
    "version": 1
  }
}