{
  "contractName": "GroupCurrencyToken",
  "abi": [
    {
      "inputs": [
        {
          "internalType": "address",
          "name": "_hub",
          "type": "address"
        },
        {
          "internalType": "address",
          "name": "_treasury",
          "type": "address"
        },
        {
          "internalType": "address",
          "name": "_owner",
          "type": "address"
        },
        {
          "internalType": "uint8",
          "name": "_mintFeePerThousand",
          "type": "uint8"
        },
        {
          "internalType": "string",
          "name": "_name",
          "type": "string"
        },
        {
          "internalType": "string",
          "name": "_symbol",
          "type": "string"
        }
      ],
      "stateMutability": "nonpayable",
      "type": "constructor"
    },
    {
      "anonymous": false,
      "inputs": [
        {
          "indexed": true,
          "internalType": "address",
          "name": "owner",
          "type": "address"
        },
        {
          "indexed": true,
          "internalType": "address",
          "name": "spender",
          "type": "address"
        },
        {
          "indexed": false,
          "internalType": "uint256",
          "name": "value",
          "type": "uint256"
        }
      ],
      "name": "Approval",
      "type": "event"
    },
    {
      "anonymous": false,
      "inputs": [
        {
          "indexed": true,
          "internalType": "address",
          "name": "receiver",
          "type": "address"
        },
        {
          "indexed": false,
          "internalType": "uint256",
          "name": "amount",
          "type": "uint256"
        },
        {
          "indexed": false,
          "internalType": "uint256",
          "name": "mintAmount",
          "type": "uint256"
        },
        {
          "indexed": false,
          "internalType": "uint256",
          "name": "mintFee",
          "type": "uint256"
        }
      ],
      "name": "Minted",
      "type": "event"
    },
    {
      "anonymous": false,
      "inputs": [
        {
          "indexed": true,
          "internalType": "address",
          "name": "from",
          "type": "address"
        },
        {
          "indexed": true,
          "internalType": "address",
          "name": "to",
          "type": "address"
        },
        {
          "indexed": false,
          "internalType": "uint256",
          "name": "value",
          "type": "uint256"
        }
      ],
      "name": "Transfer",
      "type": "event"
    },
    {
      "inputs": [
        {
          "internalType": "address",
          "name": "owner",
          "type": "address"
        },
        {
          "internalType": "address",
          "name": "spender",
          "type": "address"
        }
      ],
      "name": "allowance",
      "outputs": [
        {
          "internalType": "uint256",
          "name": "",
          "type": "uint256"
        }
      ],
      "stateMutability": "view",
      "type": "function"
    },
    {
      "inputs": [
        {
          "internalType": "address",
          "name": "spender",
          "type": "address"
        },
        {
          "internalType": "uint256",
          "name": "amount",
          "type": "uint256"
        }
      ],
      "name": "approve",
      "outputs": [
        {
          "internalType": "bool",
          "name": "",
          "type": "bool"
        }
      ],
      "stateMutability": "nonpayable",
      "type": "function"
    },
    {
      "inputs": [
        {
          "internalType": "address",
          "name": "account",
          "type": "address"
        }
      ],
      "name": "balanceOf",
      "outputs": [
        {
          "internalType": "uint256",
          "name": "",
          "type": "uint256"
        }
      ],
      "stateMutability": "view",
      "type": "function"
    },
    {
      "inputs": [],
      "name": "decimals",
      "outputs": [
        {
          "internalType": "uint8",
          "name": "",
          "type": "uint8"
        }
      ],
      "stateMutability": "view",
      "type": "function"
    },
    {
      "inputs": [
        {
          "internalType": "address",
          "name": "spender",
          "type": "address"
        },
        {
          "internalType": "uint256",
          "name": "subtractedValue",
          "type": "uint256"
        }
      ],
      "name": "decreaseAllowance",
      "outputs": [
        {
          "internalType": "bool",
          "name": "",
          "type": "bool"
        }
      ],
      "stateMutability": "nonpayable",
      "type": "function"
    },
    {
      "inputs": [
        {
          "internalType": "address",
          "name": "",
          "type": "address"
        }
      ],
      "name": "delegatedTrustees",
      "outputs": [
        {
          "internalType": "bool",
          "name": "",
          "type": "bool"
        }
      ],
      "stateMutability": "view",
      "type": "function"
    },
    {
      "inputs": [
        {
          "internalType": "address",
          "name": "",
          "type": "address"
        }
      ],
      "name": "directMembers",
      "outputs": [
        {
          "internalType": "bool",
          "name": "",
          "type": "bool"
        }
      ],
      "stateMutability": "view",
      "type": "function"
    },
    {
      "inputs": [],
      "name": "hub",
      "outputs": [
        {
          "internalType": "address",
          "name": "",
          "type": "address"
        }
      ],
      "stateMutability": "view",
      "type": "function"
    },
    {
      "inputs": [
        {
          "internalType": "address",
          "name": "spender",
          "type": "address"
        },
        {
          "internalType": "uint256",
          "name": "addedValue",
          "type": "uint256"
        }
      ],
      "name": "increaseAllowance",
      "outputs": [
        {
          "internalType": "bool",
          "name": "",
          "type": "bool"
        }
      ],
      "stateMutability": "nonpayable",
      "type": "function"
    },
    {
      "inputs": [],
      "name": "mintFeePerThousand",
      "outputs": [
        {
          "internalType": "uint8",
          "name": "",
          "type": "uint8"
        }
      ],
      "stateMutability": "view",
      "type": "function"
    },
    {
      "inputs": [],
      "name": "name",
      "outputs": [
        {
          "internalType": "string",
          "name": "",
          "type": "string"
        }
      ],
      "stateMutability": "view",
      "type": "function"
    },
    {
      "inputs": [],
      "name": "owner",
      "outputs": [
        {
          "internalType": "address",
          "name": "",
          "type": "address"
        }
      ],
      "stateMutability": "view",
      "type": "function"
    },
    {
      "inputs": [],
      "name": "suspended",
      "outputs": [
        {
          "internalType": "bool",
          "name": "",
          "type": "bool"
        }
      ],
      "stateMutability": "view",
      "type": "function"
    },
    {
      "inputs": [],
      "name": "symbol",
      "outputs": [
        {
          "internalType": "string",
          "name": "",
          "type": "string"
        }
      ],
      "stateMutability": "view",
      "type": "function"
    },
    {
      "inputs": [],
      "name": "totalSupply",
      "outputs": [
        {
          "internalType": "uint256",
          "name": "",
          "type": "uint256"
        }
      ],
      "stateMutability": "view",
      "type": "function"
    },
    {
      "inputs": [
        {
          "internalType": "address",
          "name": "sender",
          "type": "address"
        },
        {
          "internalType": "address",
          "name": "recipient",
          "type": "address"
        },
        {
          "internalType": "uint256",
          "name": "amount",
          "type": "uint256"
        }
      ],
      "name": "transferFrom",
      "outputs": [
        {
          "internalType": "bool",
          "name": "",
          "type": "bool"
        }
      ],
      "stateMutability": "nonpayable",
      "type": "function"
    },
    {
      "inputs": [],
      "name": "treasury",
      "outputs": [
        {
          "internalType": "address",
          "name": "",
          "type": "address"
        }
      ],
      "stateMutability": "view",
      "type": "function"
    },
    {
      "inputs": [
        {
          "internalType": "bool",
          "name": "_suspend",
          "type": "bool"
        }
      ],
      "name": "suspend",
      "outputs": [],
      "stateMutability": "nonpayable",
      "type": "function"
    },
    {
      "inputs": [
        {
          "internalType": "address",
          "name": "_owner",
          "type": "address"
        }
      ],
      "name": "changeOwner",
      "outputs": [],
      "stateMutability": "nonpayable",
      "type": "function"
    },
    {
      "inputs": [
        {
          "internalType": "address",
          "name": "_member",
          "type": "address"
        }
      ],
      "name": "addMemberToken",
      "outputs": [],
      "stateMutability": "nonpayable",
      "type": "function"
    },
    {
      "inputs": [
        {
          "internalType": "address",
          "name": "_member",
          "type": "address"
        }
      ],
      "name": "removeMemberToken",
      "outputs": [],
      "stateMutability": "nonpayable",
      "type": "function"
    },
    {
      "inputs": [
        {
          "internalType": "address",
          "name": "_account",
          "type": "address"
        }
      ],
      "name": "addDelegatedTrustee",
      "outputs": [],
      "stateMutability": "nonpayable",
      "type": "function"
    },
    {
      "inputs": [
        {
          "internalType": "address",
          "name": "_account",
          "type": "address"
        }
      ],
      "name": "removeDelegatedTrustee",
      "outputs": [],
      "stateMutability": "nonpayable",
      "type": "function"
    },
    {
      "inputs": [
        {
          "internalType": "address",
          "name": "_collateral",
          "type": "address"
        },
        {
          "internalType": "uint256",
          "name": "_amount",
          "type": "uint256"
        }
      ],
      "name": "mint",
      "outputs": [
        {
          "internalType": "uint256",
          "name": "",
          "type": "uint256"
        }
      ],
      "stateMutability": "nonpayable",
      "type": "function"
    },
    {
      "inputs": [
        {
          "internalType": "address",
          "name": "_trustedBy",
          "type": "address"
        },
        {
          "internalType": "address",
          "name": "_collateral",
          "type": "address"
        },
        {
          "internalType": "uint256",
          "name": "_amount",
          "type": "uint256"
        }
      ],
      "name": "mintDelegate",
      "outputs": [
        {
          "internalType": "uint256",
          "name": "",
          "type": "uint256"
        }
      ],
      "stateMutability": "nonpayable",
      "type": "function"
    },
    {
      "inputs": [
        {
          "internalType": "address",
          "name": "dst",
          "type": "address"
        },
        {
          "internalType": "uint256",
          "name": "wad",
          "type": "uint256"
        }
      ],
      "name": "transfer",
      "outputs": [
        {
          "internalType": "bool",
          "name": "",
          "type": "bool"
        }
      ],
      "stateMutability": "nonpayable",
      "type": "function"
    }
  ],
  "bytecode": "0x60a0604052600960f91b6080523480156200001957600080fd5b506040516200166938038062001669833981810160405260c08110156200003f57600080fd5b81516020830151604080850151606086015160808701805193519597949692959194919392820192846401000000008211156200007b57600080fd5b9083019060208201858111156200009157600080fd5b8251640100000000811182820188101715620000ac57600080fd5b82525081516020918201929091019080838360005b83811015620000db578181015183820152602001620000c1565b50505050905090810190601f168015620001095780820380516001836020036101000a031916815260200191505b50604052602001805160405193929190846401000000008211156200012d57600080fd5b9083019060208201858111156200014357600080fd5b82516401000000008111828201881017156200015e57600080fd5b82525081516020918201929091019080838360005b838110156200018d57818101518382015260200162000173565b50505050905090810190601f168015620001bb5780820380516001836020036101000a031916815260200191505b5060405250508151620001d79150600690602084019062000252565b508151620001ed90600590602085019062000252565b5050600780546001600160a01b039485166001600160a01b0319918216179091556008805496851696821696909617909555506009805493909216929093169190911790556004805460ff9092166101000261ff0019909216919091179055620002ee565b828054600181600116156101000203166002900490600052602060002090601f016020900481019282601f106200029557805160ff1916838001178555620002c5565b82800160010185558215620002c5579182015b82811115620002c5578251825591602001919060010190620002a8565b50620002d3929150620002d7565b5090565b5b80821115620002d35760008155600101620002d8565b60805160f81c61135d6200030c60003980610694525061135d6000f3fe608060405234801561001057600080fd5b506004361061014e5760003560e01c8063702efdf3116100be578063702efdf31461037e57806370a082311461038657806371830aba146103ac5780637d3a03cf146103d25780638da5cb5b146103f857806395d89b4114610400578063a457c2d714610408578063a6f9dae114610434578063a9059cbb1461045a578063bf1e32b014610486578063bfd812ec146104ac578063dd62ed3e146104cb578063ff05cc22146104f95761014e565b806302c082941461015357806306fdde031461018d578063095ea7b31461020a57806313ebb47c1461023657806318160ddd1461025e57806323b872dd14610278578063313ce567146102ae578063365a86fc146102cc57806339509351146102f0578063409400061461031c57806340c10f191461032457806340d255511461035057806361d027b314610376575b600080fd5b6101796004803603602081101561016957600080fd5b50356001600160a01b031661052f565b604080519115158252519081900360200190f35b610195610544565b6040805160208082528351818301528351919283929083019185019080838360005b838110156101cf5781810151838201526020016101b7565b50505050905090810190601f1680156101fc5780820380516001836020036101000a031916815260200191505b509250505060405180910390f35b6101796004803603604081101561022057600080fd5b506001600160a01b0381351690602001356105d2565b61025c6004803603602081101561024c57600080fd5b50356001600160a01b03166105e8565b005b610266610623565b60408051918252519081900360200190f35b6101796004803603606081101561028e57600080fd5b506001600160a01b03813581169160208101359091169060400135610629565b6102b6610692565b6040805160ff9092168252519081900360200190f35b6102d46106b6565b604080516001600160a01b039092168252519081900360200190f35b6101796004803603604081101561030657600080fd5b506001600160a01b0381351690602001356106c5565b6102b66106fb565b6102666004803603604081101561033a57600080fd5b506001600160a01b038135169060200135610709565b61025c6004803603602081101561036657600080fd5b50356001600160a01b03166107d0565b6102d4610808565b610179610817565b6102666004803603602081101561039c57600080fd5b50356001600160a01b0316610826565b61025c600480360360208110156103c257600080fd5b50356001600160a01b0316610841565b610179600480360360208110156103e857600080fd5b50356001600160a01b0316610879565b6102d461088e565b61019561089d565b6101796004803603604081101561041e57600080fd5b506001600160a01b0381351690602001356108f8565b61025c6004803603602081101561044a57600080fd5b50356001600160a01b0316610947565b6101796004803603604081101561047057600080fd5b506001600160a01b038135169060200135610980565b61025c6004803603602081101561049c57600080fd5b50356001600160a01b031661098c565b61025c600480360360208110156104c257600080fd5b503515156109c7565b610266600480360360408110156104e157600080fd5b506001600160a01b03813581169160200135166109fa565b6102666004803603606081101561050f57600080fd5b506001600160a01b03813581169160208101359091169060400135610a25565b600a6020526000908152604090205460ff1681565b6005805460408051602060026001851615610100026000190190941693909304601f810184900484028201840190925281815292918301828280156105ca5780601f1061059f576101008083540402835291602001916105ca565b820191906000526020600020905b8154815290600101906020018083116105ad57829003601f168201915b505050505081565b60006105df338484610c8a565b50600192915050565b6007546001600160a01b031633146105ff57600080fd5b6001600160a01b03166000908152600a60205260409020805460ff19166001179055565b60025490565b6000610636848484610d76565b610688843361068385604051806060016040528060288152602001611236602891396001600160a01b038a1660009081526001602090815260408083203384529091529020549190610ed1565b610c8a565b5060019392505050565b7f000000000000000000000000000000000000000000000000000000000000000081565b6008546001600160a01b031681565b3360008181526001602090815260408083206001600160a01b038716845290915281205490916105df9185906106839086610f68565b600454610100900460ff1681565b60045460009062010000900460ff1615610768576040805162461bcd60e51b815260206004820152601b60248201527a26b4b73a34b733903430b9903132b2b71039bab9b832b73232b21760291b604482015290519081900360640190fd5b6001600160a01b0383166000908152600a602052604090205460ff166107bf5760405162461bcd60e51b815260040180806020018281038252603281526020018061125e6032913960400191505060405180910390fd5b6107c98383610f6c565b9392505050565b6007546001600160a01b031633146107e757600080fd5b6001600160a01b03166000908152600a60205260409020805460ff19169055565b6009546001600160a01b031681565b60045462010000900460ff1681565b6001600160a01b031660009081526020819052604090205490565b6007546001600160a01b0316331461085857600080fd5b6001600160a01b03166000908152600b60205260409020805460ff19169055565b600b6020526000908152604090205460ff1681565b6007546001600160a01b031681565b6006805460408051602060026001851615610100026000190190941693909304601f810184900484028201840190925281815292918301828280156105ca5780601f1061059f576101008083540402835291602001916105ca565b60006105df338461068385604051806060016040528060258152602001611303602591393360009081526001602090815260408083206001600160a01b038d1684529091529020549190610ed1565b6007546001600160a01b0316331461095e57600080fd5b600780546001600160a01b0319166001600160a01b0392909216919091179055565b60006107c9838361107f565b6007546001600160a01b031633146109a357600080fd5b6001600160a01b03166000908152600b60205260409020805460ff19166001179055565b6007546001600160a01b031633146109de57600080fd5b60048054911515620100000262ff000019909216919091179055565b6001600160a01b03918216600090815260016020908152604080832093909416825291909152205490565b60045460009062010000900460ff1615610a84576040805162461bcd60e51b815260206004820152601b60248201527a26b4b73a34b733903430b9903132b2b71039bab9b832b73232b21760291b604482015290519081900360640190fd5b6001600160a01b038416610adf576040805162461bcd60e51b815260206004820181905260248201527f747275737465644279206d7573742062652076616c696420616464726573732e604482015290519081900360640190fd5b6001600160a01b0384166000908152600b602052604090205460ff16610b365760405162461bcd60e51b815260040180806020018281038252602d815260200180611209602d913960400191505060405180910390fd5b6008546040805163a18b506b60e01b81526001600160a01b0386811660048301529151600093929092169163a18b506b9160248082019260209290919082900301818787803b158015610b8857600080fd5b505af1158015610b9c573d6000803e3d6000fd5b505050506040513d6020811015610bb257600080fd5b5051600854604080516351f595a560e11b81526001600160a01b03898116600483015280851660248301529151939450600093919092169163a3eb2b4a916044808301926020929190829003018186803b158015610c0f57600080fd5b505afa158015610c23573d6000803e3d6000fd5b505050506040513d6020811015610c3957600080fd5b505111610c775760405162461bcd60e51b815260040180806020018281038252602a815260200180611290602a913960400191505060405180910390fd5b610c818484610f6c565b95945050505050565b6001600160a01b038316610ccf5760405162461bcd60e51b81526004018080602001828103825260248152602001806112df6024913960400191505060405180910390fd5b6001600160a01b038216610d145760405162461bcd60e51b81526004018080602001828103825260228152602001806111c16022913960400191505060405180910390fd5b6001600160a01b03808416600081815260016020908152604080832094871680845294825291829020859055815185815291517f8c5be1e5ebec7d5bd14f71427d1e84f3dd0314c0f7b2291e5b200ac8c7c3b9259281900390910190a3505050565b6001600160a01b038316610dbb5760405162461bcd60e51b81526004018080602001828103825260258152602001806112ba6025913960400191505060405180910390fd5b6001600160a01b038216610e005760405162461bcd60e51b815260040180806020018281038252602381526020018061119e6023913960400191505060405180910390fd5b610e0b83838361108c565b610e48816040518060600160405280602681526020016111e3602691396001600160a01b0386166000908152602081905260409020549190610ed1565b6001600160a01b038085166000908152602081905260408082209390935590841681522054610e779082610f68565b6001600160a01b038084166000818152602081815260409182902094909455805185815290519193928716927fddf252ad1be2c89b69c2b068fc378daa952ba7f163c4a11628f55a4df523b3ef92918290030190a3505050565b60008184841115610f605760405162461bcd60e51b81526004018080602001828103825283818151815260200191508051906020019080838360005b83811015610f25578181015183820152602001610f0d565b50505050905090810190601f168015610f525780820380516001836020036101000a031916815260200191505b509250505060405180910390fd5b505050900390565b0190565b6004546000908190610f9290610100900460ff16610f8c856103e8611091565b906110a4565b90506000610fa084836110a8565b9050610fac33826110ad565b600954604080516323b872dd60e01b81523360048201526001600160a01b039283166024820152604481018790529051918716916323b872dd916064808201926020929091908290030181600087803b15801561100857600080fd5b505af115801561101c573d6000803e3d6000fd5b505050506040513d602081101561103257600080fd5b50506040805185815260208101839052808201849052905133917f5a3358a3d27a5373c0df2604662088d37894d56b7cfd27f315770440f4e0d919919081900360600190a2949350505050565b60006105df338484610d76565b505050565b600081838161109c57fe5b049392505050565b0290565b900390565b6001600160a01b038216611108576040805162461bcd60e51b815260206004820152601f60248201527f45524332303a206d696e7420746f20746865207a65726f206164647265737300604482015290519081900360640190fd5b6111146000838361108c565b6002546111219082610f68565b6002556001600160a01b0382166000908152602081905260409020546111479082610f68565b6001600160a01b0383166000818152602081815260408083209490945583518581529351929391927fddf252ad1be2c89b69c2b068fc378daa952ba7f163c4a11628f55a4df523b3ef9281900390910190a3505056fe45524332303a207472616e7366657220746f20746865207a65726f206164647265737345524332303a20617070726f766520746f20746865207a65726f206164647265737345524332303a207472616e7366657220616d6f756e7420657863656564732062616c616e6365747275737465644279206e6f7420636f6e7461696e656420696e2064656c65676174656454727573746565732e45524332303a207472616e7366657220616d6f756e74206578636565647320616c6c6f77616e6365436f6c6c61746572616c2061646472657373206973206e6f74206d61726b656420617320646972656374206d656d6265722e74727573746564427920646f6573206e6f7420747275737420636f6c6c61746572616c206f776e65722e45524332303a207472616e736665722066726f6d20746865207a65726f206164647265737345524332303a20617070726f76652066726f6d20746865207a65726f206164647265737345524332303a2064656372656173656420616c6c6f77616e63652062656c6f77207a65726fa264697066735822122000138bc13c01cc052760c32c3c941e406eeb04d2089fccb9d176e451e3cc79e964736f6c63430007010033",
  "immutableReferences": {
    "570": [
      {
        "length": 32,
        "start": 1684
      }
    ]
  },
  "source": "// SPDX-License-Identifier: AGPL\npragma solidity ^0.7.0;\n\nimport \"./lib/SafeMath.sol\";\nimport \"./ERC20.sol\";\nimport \"./interfaces/HubI.sol\";\n\ncontract GroupCurrencyToken is ERC20 {\n    using SafeMath for uint256;\n\n    uint8 public immutable override decimals = 18;\n    uint8 public mintFeePerThousand;\n    \n    bool public suspended;\n    \n    string public name;\n    string public override symbol;\n\n    address public owner; // the safe/EOA/contract that deployed this token, can be changed by owner\n    address public hub; // the address of the hub this token is associated with\n    address public treasury; // account which gets the personal tokens for whatever later usage\n\n    mapping (address => bool) public directMembers;\n    mapping (address => bool) public delegatedTrustees;\n    \n    event Minted(address indexed receiver, uint256 amount, uint256 mintAmount, uint256 mintFee);\n\n    /// @dev modifier allowing function to be only called by the token owner\n    modifier onlyOwner() {\n        require(msg.sender == owner);\n        _;\n    }\n\n    constructor(address _hub, address _treasury, address _owner, uint8 _mintFeePerThousand, string memory _name, string memory _symbol) {\n        symbol = _symbol;\n        name = _name;\n        owner = _owner;\n        hub = _hub;\n        treasury = _treasury;\n        mintFeePerThousand = _mintFeePerThousand;\n    }\n    \n    function suspend(bool _suspend) public onlyOwner {\n        suspended = _suspend;\n    }\n    \n    function changeOwner(address _owner) public onlyOwner {\n        owner = _owner;\n    }\n    \n    function addMemberToken(address _member) public onlyOwner {\n        directMembers[_member] = true;\n    }\n\n    function removeMemberToken(address _member) public onlyOwner {\n        directMembers[_member] = false;\n    }\n    \n    function addDelegatedTrustee(address _account) public onlyOwner {\n        delegatedTrustees[_account] = true;\n    }\n\n    function removeDelegatedTrustee(address _account) public onlyOwner {\n        delegatedTrustees[_account] = false;\n    }\n\n    // Group currently is created from collateral tokens. Collateral is directly part of the directMembers dictionary.\n    function mint(address _collateral, uint256 _amount) public returns (uint256) {\n        require(!suspended, \"Minting has been suspended.\");\n        require(directMembers[_collateral], \"Collateral address is not marked as direct member.\");\n        return transferCollateralAndMint(_collateral, _amount);\n    }\n    \n    // Group currently is created from collateral tokens. Collateral is trusted by someone in the delegatedTrustees dictionary.\n    function mintDelegate(address _trustedBy, address _collateral, uint256 _amount) public returns (uint256) {\n        require(!suspended, \"Minting has been suspended.\");\n        require(_trustedBy != address(0), \"trustedBy must be valid address.\");\n        // require(trusted_by in delegated_trustees)\n        require(delegatedTrustees[_trustedBy], \"trustedBy not contained in delegatedTrustees.\");\n        address collateralOwner = HubI(hub).tokenToUser(_collateral);\n        // require(trusted_by.trust(collateral)\n        require(HubI(hub).limits(_trustedBy, collateralOwner) > 0, \"trustedBy does not trust collateral owner.\");\n        return transferCollateralAndMint(_collateral, _amount);\n    }\n    \n    function transferCollateralAndMint(address _collateral, uint256 _amount) internal returns (uint256) {\n        uint256 mintFee = (_amount.div(1000)).mul(mintFeePerThousand);\n        uint256 mintAmount = _amount.sub(mintFee);\n        // mint amount-fee to msg.sender\n        _mint(msg.sender, mintAmount);\n        // Token Swap, send CRC from GCTO to Treasury (has been transferred to GCTO by transferThrough)\n        ERC20(_collateral).transferFrom(msg.sender, treasury, _amount);\n        emit Minted(msg.sender, _amount, mintAmount, mintFee);\n        return mintAmount;\n    }\n\n    function transfer(address dst, uint256 wad) public override returns (bool) {\n        // this code shouldn't be necessary, but when it's removed the gas estimation methods\n        // in the gnosis safe no longer work, still true as of solidity 7.1\n        return super.transfer(dst, wad);\n    }\n}\n",
  "sourcePath": "/home/daniel/src/circles-world/circles-contracts/contracts/GroupCurrencyToken.sol",
  "compiler": {
    "name": "solc",
    "version": "0.7.1+commit.f4a555be.Emscripten.clang"
  },
  "schemaVersion": "3.4.8",
  "updatedAt": "2022-07-16T18:47:06.607Z",
  "devdoc": {
    "kind": "dev",
    "methods": {
      "allowance(address,address)": {
        "details": "See {IERC20-allowance}."
      },
      "approve(address,uint256)": {
        "details": "See {IERC20-approve}. Requirements: - `spender` cannot be the zero address."
      },
      "balanceOf(address)": {
        "details": "See {IERC20-balanceOf}."
      },
      "decreaseAllowance(address,uint256)": {
        "details": "Atomically decreases the allowance granted to `spender` by the caller. This is an alternative to {approve} that can be used as a mitigation for problems described in {IERC20-approve}. Emits an {Approval} event indicating the updated allowance. Requirements: - `spender` cannot be the zero address. - `spender` must have allowance for the caller of at least `subtractedValue`."
      },
      "increaseAllowance(address,uint256)": {
        "details": "Atomically increases the allowance granted to `spender` by the caller. This is an alternative to {approve} that can be used as a mitigation for problems described in {IERC20-approve}. Emits an {Approval} event indicating the updated allowance. Requirements: - `spender` cannot be the zero address."
      },
      "totalSupply()": {
        "details": "See {IERC20-totalSupply}."
      },
      "transferFrom(address,address,uint256)": {
        "details": "See {IERC20-transferFrom}. Emits an {Approval} event indicating the updated allowance. This is not required by the EIP. See the note at the beginning of {ERC20}; Requirements: - `sender` and `recipient` cannot be the zero address. - `sender` must have a balance of at least `amount`. - the caller must have allowance for ``sender``'s tokens of at least `amount`."
      }
    },
    "stateVariables": {
      "decimals": {
        "details": "Returns the number of decimals used to get its user representation. For example, if `decimals` equals `2`, a balance of `505` tokens should be displayed to a user as `5,05` (`505 / 10 ** 2`). Tokens usually opt for a value of 18, imitating the relationship between Ether and Wei. This is the value {ERC20} uses, unless {_setupDecimals} is called. NOTE: This information is only used for _display_ purposes: it in no way affects any of the arithmetic of the contract, including {IERC20-balanceOf} and {IERC20-transfer}."
      },
      "symbol": {
        "details": "Returns the symbol of the token, usually a shorter version of the name."
      }
    },
    "version": 1
  },
  "userdoc": {
    "kind": "user",
    "methods": {},
    "version": 1
  }
}