{
  "contractName": "GroupCurrencyTokenFactory",
  "abi": [
    {
      "anonymous": false,
      "inputs": [
        {
          "indexed": true,
          "internalType": "address",
          "name": "_address",
          "type": "address"
        },
        {
          "indexed": true,
          "internalType": "address",
          "name": "_deployer",
          "type": "address"
        }
      ],
      "name": "GroupCurrencyTokenCreated",
      "type": "event"
    },
    {
      "inputs": [
        {
          "internalType": "address",
          "name": "_hub",
          "type": "address"
        },
        {
          "internalType": "address",
          "name": "_treasury",
          "type": "address"
        },
        {
          "internalType": "address",
          "name": "_owner",
          "type": "address"
        },
        {
          "internalType": "uint8",
          "name": "_mintFeePerThousand",
          "type": "uint8"
        },
        {
          "internalType": "string",
          "name": "_name",
          "type": "string"
        },
        {
          "internalType": "string",
          "name": "_symbol",
          "type": "string"
        }
      ],
      "name": "createGroupCurrencyToken",
      "outputs": [],
      "stateMutability": "nonpayable",
      "type": "function"
    }
  ],
  "bytecode": "0x608060405234801561001057600080fd5b506121c3806100206000396000f3fe608060405234801561001057600080fd5b506004361061002b5760003560e01c806382edb12b14610030575b600080fd5b610184600480360360c081101561004657600080fd5b6001600160a01b038235811692602081013582169260408201359092169160ff606083013516919081019060a081016080820135600160201b81111561008b57600080fd5b82018360208201111561009d57600080fd5b803590602001918460018302840111600160201b831117156100be57600080fd5b91908080601f0160208091040260200160405190810160405280939291908181526020018383808284376000920191909152509295949360208101935035915050600160201b81111561011057600080fd5b82018360208201111561012257600080fd5b803590602001918460018302840111600160201b8311171561014357600080fd5b91908080601f016020809104026020016040519081016040528093929190818152602001838380828437600092019190915250929550610186945050505050565b005b600086868686868660405161019a90610305565b80876001600160a01b03168152602001866001600160a01b03168152602001856001600160a01b031681526020018460ff1681526020018060200180602001838103835285818151815260200191508051906020019080838360005b8381101561020e5781810151838201526020016101f6565b50505050905090810190601f16801561023b5780820380516001836020036101000a031916815260200191505b50838103825284518152845160209182019186019080838360005b8381101561026e578181015183820152602001610256565b50505050905090810190601f16801561029b5780820380516001836020036101000a031916815260200191505b5098505050505050505050604051809103906000f0801580156102c2573d6000803e3d6000fd5b5060405190915033906001600160a01b038316907f2988c17847722ac69bced33d225d4971f97d364ea4eee6aebae0017a3fc1df0c90600090a350505050505050565b611e7b806103138339019056fe60a0604052600960f91b6080523480156200001957600080fd5b5060405162001e7b38038062001e7b833981810160405260c08110156200003f57600080fd5b81516020830151604080850151606086015160808701805193519597949692959194919392820192846401000000008211156200007b57600080fd5b9083019060208201858111156200009157600080fd5b8251640100000000811182820188101715620000ac57600080fd5b82525081516020918201929091019080838360005b83811015620000db578181015183820152602001620000c1565b50505050905090810190601f168015620001095780820380516001836020036101000a031916815260200191505b50604052602001805160405193929190846401000000008211156200012d57600080fd5b9083019060208201858111156200014357600080fd5b82516401000000008111828201881017156200015e57600080fd5b82525081516020918201929091019080838360005b838110156200018d57818101518382015260200162000173565b50505050905090810190601f168015620001bb5780820380516001836020036101000a031916815260200191505b5060405250508151620001d7915060069060208401906200029d565b508151620001ed9060059060208501906200029d565b50600780546001600160a01b03199081166001600160a01b0387811691909117909255600880548216898416179081905560098054909216888416179091556004805461ff00191661010060ff88160217815560408051630fef594f60e21b815290519290931692633fbd653c928183019260009282900301818387803b1580156200027857600080fd5b505af11580156200028d573d6000803e3d6000fd5b5050505050505050505062000339565b828054600181600116156101000203166002900490600052602060002090601f016020900481019282601f10620002e057805160ff191683800117855562000310565b8280016001018555821562000310579182015b8281111562000310578251825591602001919060010190620002f3565b506200031e92915062000322565b5090565b5b808211156200031e576000815560010162000323565b60805160f81c611b2462000357600039806109cc5250611b246000f3fe608060405234801561001057600080fd5b506004361061017a5760003560e01c8063702efdf3116100d4578063702efdf3146103c857806370a08231146103d057806385d098dc146103f65780638da5cb5b146103fe57806395d89b4114610406578063a457c2d71461040e578063a6f9dae11461043a578063a9059cbb14610460578063b9b003ad1461048c578063bebf1946146104ab578063bf1e32b0146104b3578063bfd812ec146104d9578063dd62ed3e146104f8578063e467f7e014610526578063e9177d16146105e45761017a565b806306fdde031461017f578063095ea7b3146101fc57806313ebb47c1461023c57806318160ddd146102645780632345e2291461027e57806323b872dd146102aa578063313ce567146102e0578063365a86fc146102fe5780633950935114610322578063409400061461034e57806340d25551146103565780635bb945891461037c57806361bc221a1461039b57806361d027b3146103a357806366252148146103ab575b600080fd5b610187610601565b6040805160208082528351818301528351919283929083019185019080838360005b838110156101c15781810151838201526020016101a9565b50505050905090810190601f1680156101ee5780820380516001836020036101000a031916815260200191505b509250505060405180910390f35b6102286004803603604081101561021257600080fd5b506001600160a01b03813516906020013561068f565b604080519115158252519081900360200190f35b6102626004803603602081101561025257600080fd5b50356001600160a01b03166106a6565b005b61026c610780565b60408051918252519081900360200190f35b6102626004803603604081101561029457600080fd5b50803590602001356001600160a01b0316610786565b610228600480360360608110156102c057600080fd5b506001600160a01b03813581169160208101359091169060400135610961565b6102e86109ca565b6040805160ff9092168252519081900360200190f35b6103066109ee565b604080516001600160a01b039092168252519081900360200190f35b6102286004803603604081101561033857600080fd5b506001600160a01b0381351690602001356109fd565b6102e8610a33565b6102626004803603602081101561036c57600080fd5b50356001600160a01b0316610a41565b6102626004803603602081101561039257600080fd5b50351515610b1b565b61026c610b85565b610306610b8b565b610306600480360360208110156103c157600080fd5b5035610b9a565b610228610bb5565b61026c600480360360208110156103e657600080fd5b50356001600160a01b0316610bc4565b610228610bdf565b610306610bef565b610187610bfe565b6102286004803603604081101561042457600080fd5b506001600160a01b038135169060200135610c59565b6102626004803603602081101561045057600080fd5b50356001600160a01b0316610ca8565b6102286004803603604081101561047657600080fd5b506001600160a01b038135169060200135610d11565b610262600480360360208110156104a257600080fd5b50351515610d24565b610228610d8f565b610262600480360360208110156104c957600080fd5b50356001600160a01b0316610d9f565b610262600480360360208110156104ef57600080fd5b50351515610e15565b61026c6004803603604081101561050e57600080fd5b506001600160a01b0381358116916020013516610e7c565b61026c6004803603604081101561053c57600080fd5b810190602081018135600160201b81111561055657600080fd5b82018360208201111561056857600080fd5b803590602001918460208302840111600160201b8311171561058957600080fd5b919390929091602081019035600160201b8111156105a657600080fd5b8201836020820111156105b857600080fd5b803590602001918460208302840111600160201b831117156105d957600080fd5b509092509050610ea7565b610262600480360360208110156105fa57600080fd5b50356110ab565b6005805460408051602060026001851615610100026000190190941693909304601f810184900484028201840190925281815292918301828280156106875780601f1061065c57610100808354040283529160200191610687565b820191906000526020600020905b81548152906001019060200180831161066a57829003601f168201915b505050505081565b600061069c338484611119565b5060015b92915050565b6007546001600160a01b031633146106bd57600080fd5b6008546040805163a18b506b60e01b81526001600160a01b0384811660048301529151600093929092169163a18b506b9160248082019260209290919082900301818787803b15801561070f57600080fd5b505af1158015610723573d6000803e3d6000fd5b505050506040513d602081101561073957600080fd5b50519050610748816064611205565b6040516001600160a01b038216907fe7224b6512935fa83db1e9312a1476935ca06ae3a2703810022bf803fe52a10290600090a25050565b60025490565b6001600160a01b0381166107e1576040805162461bcd60e51b815260206004820152601e60248201527f74727573746565206d7573742062652076616c696420616464726573732e0000604482015290519081900360640190fd5b6000825b600a548110156108b2576000818152600b60205260409020546001600160a01b0316156108aa576008546000828152600b602090815260408083205481516351f595a560e11b81526001600160a01b039182166004820152888216602482015291519394169263a3eb2b4a9260448084019391929182900301818787803b15801561086f57600080fd5b505af1158015610883573d6000803e3d6000fd5b505050506040513d602081101561089957600080fd5b505111156108aa57600191506108b2565b6001016107e5565b50806108ef5760405162461bcd60e51b8152600401808060200182810382526027815260200180611aa36027913960400191505060405180910390fd5b60085460408051639951d62f60e01b81526001600160a01b0385811660048301526064602483015291519190921691639951d62f91604480830192600092919082900301818387803b15801561094457600080fd5b505af1158015610958573d6000803e3d6000fd5b50505050505050565b600061096e8484846112d1565b6109c084336109bb85604051806060016040528060288152602001611a0e602891396001600160a01b038a166000908152600160209081526040808320338452909152902054919061142c565b611119565b5060019392505050565b7f000000000000000000000000000000000000000000000000000000000000000081565b6008546001600160a01b031681565b3360008181526001602090815260408083206001600160a01b0387168452909152812054909161069c9185906109bb90866114c3565b600454610100900460ff1681565b6007546001600160a01b03163314610a5857600080fd5b6008546040805163a18b506b60e01b81526001600160a01b0384811660048301529151600093929092169163a18b506b9160248082019260209290919082900301818787803b158015610aaa57600080fd5b505af1158015610abe573d6000803e3d6000fd5b505050506040513d6020811015610ad457600080fd5b50519050610ae3816000611205565b6040516001600160a01b038216907f1190026d5dd8b1e7f0f81572242b0b37d12767b19d5a1e96cd006e206f19cacd90600090a25050565b6007546001600160a01b03163314610b3257600080fd5b6004805463ff000000191663010000008315158102919091179182905560405160ff91909204161515907fcaf5231fca89c8766444911f2178a6f408289257741986ede2441ed5ef77bb5d90600090a250565b600a5481565b6009546001600160a01b031681565b600b602052600090815260409020546001600160a01b031681565b60045462010000900460ff1681565b6001600160a01b031660009081526020819052604090205490565b6004546301000000900460ff1681565b6007546001600160a01b031681565b6006805460408051602060026001851615610100026000190190941693909304601f810184900484028201840190925281815292918301828280156106875780601f1061065c57610100808354040283529160200191610687565b600061069c33846109bb85604051806060016040528060258152602001611aca602591393360009081526001602090815260408083206001600160a01b038d168452909152902054919061142c565b6007546001600160a01b03163314610cbf57600080fd5b600780546001600160a01b0319166001600160a01b03838116919091179182905560405191169033907fb532073b38c83145e3e5135377a08bf9aab55bc0fd7c1179cd4fb995d2a5159c90600090a350565b6000610d1d838361151b565b9392505050565b6007546001600160a01b03163314610d3b57600080fd5b6004805464ff000000001916600160201b8315158102919091179182905560405160ff91909204161515907ff7b393f660237e59df262cfcd0100e16db9ea7350b76cabdddc335d7560fb26090600090a250565b600454600160201b900460ff1681565b6007546001600160a01b03163314610db657600080fd5b600a80546000908152600b602052604080822080546001600160a01b0319166001600160a01b0386169081179091558354600101909355517f47ca13cf1f6268becc47883c66b3f0fac0b05d878fba27f88cbcd36d370061389190a250565b6007546001600160a01b03163314610e2c57600080fd5b6004805462ff0000191662010000831515021790556007546040516001600160a01b03909116907f6f123d3d54c84a7960a573b31c221dcd86e13fd849c5adb0c6ca851468cc1ae490600090a250565b6001600160a01b03918216600090815260016020908152604080832093909416825291909152205490565b60045460009062010000900460ff1615610f06576040805162461bcd60e51b815260206004820152601b60248201527a26b4b73a34b733903430b9903132b2b71039bab9b832b73232b21760291b604482015290519081900360640190fd5b6004546301000000900460ff1615610f73576007546001600160a01b03163314610f6e576040805162461bcd60e51b815260206004820152601460248201527327b7363c9037bbb732b91031b0b71036b4b73a1760611b604482015290519081900360640190fd5b611052565b600454600160201b900460ff161561105257600854604080516351f595a560e11b815230600482015233602482015290516000926001600160a01b03169163a3eb2b4a91604480830192602092919082900301818787803b158015610fd757600080fd5b505af1158015610feb573d6000803e3d6000fd5b505050506040513d602081101561100157600080fd5b505111611052576040805162461bcd60e51b815260206004820152601a60248201527923a1aa103237b2b9903737ba103a393ab9ba1039b2b73232b91760311b604482015290519081900360640190fd5b6000805b858110156110a15761109587878381811061106d57fe5b905060200201356001600160a01b031686868481811061108957fe5b90506020020135611528565b90910190600101611056565b5095945050505050565b6007546001600160a01b031633146110c257600080fd5b6000818152600b602052604080822080546001600160a01b0319811690915590516001600160a01b039091169182917f30cd31c8687311cb71d639cfb758e40ff54686e89929a758b58b1e317b3f382b9190a25050565b6001600160a01b03831661115e5760405162461bcd60e51b8152600401808060200182810382526024815260200180611a5b6024913960400191505060405180910390fd5b6001600160a01b0382166111a35760405162461bcd60e51b81526004018080602001828103825260228152602001806119a56022913960400191505060405180910390fd5b6001600160a01b03808416600081815260016020908152604080832094871680845294825291829020859055815185815291517f8c5be1e5ebec7d5bd14f71427d1e84f3dd0314c0f7b2291e5b200ac8c7c3b9259281900390910190a3505050565b6001600160a01b038216611260576040805162461bcd60e51b815260206004820152601e60248201527f74727573746565206d7573742062652076616c696420616464726573732e0000604482015290519081900360640190fd5b60085460408051639951d62f60e01b81526001600160a01b0385811660048301526024820185905291519190921691639951d62f91604480830192600092919082900301818387803b1580156112b557600080fd5b505af11580156112c9573d6000803e3d6000fd5b505050505050565b6001600160a01b0383166113165760405162461bcd60e51b8152600401808060200182810382526025815260200180611a366025913960400191505060405180910390fd5b6001600160a01b03821661135b5760405162461bcd60e51b81526004018080602001828103825260238152602001806119826023913960400191505060405180910390fd5b611366838383611772565b6113a3816040518060600160405280602681526020016119c7602691396001600160a01b038616600090815260208190526040902054919061142c565b6001600160a01b0380851660009081526020819052604080822093909355908416815220546113d290826114c3565b6001600160a01b038084166000818152602081815260409182902094909455805185815290519193928716927fddf252ad1be2c89b69c2b068fc378daa952ba7f163c4a11628f55a4df523b3ef92918290030190a3505050565b600081848411156114bb5760405162461bcd60e51b81526004018080602001828103825283818151815260200191508051906020019080838360005b83811015611480578181015183820152602001611468565b50505050905090810190601f1680156114ad5780820380516001836020036101000a031916815260200191505b509250505060405180910390fd5b505050900390565b600082820183811015610d1d576040805162461bcd60e51b815260206004820152601b60248201527a536166654d6174683a206164646974696f6e206f766572666c6f7760281b604482015290519081900360640190fd5b600061069c3384846112d1565b6008546040805163a18b506b60e01b81526001600160a01b03858116600483015291516000938493169163a18b506b91602480830192602092919082900301818787803b15801561157857600080fd5b505af115801561158c573d6000803e3d6000fd5b505050506040513d60208110156115a257600080fd5b5051600854604080516351f595a560e11b81523060048201526001600160a01b0380851660248301529151939450600093919092169163a3eb2b4a91604480830192602092919082900301818787803b1580156115fe57600080fd5b505af1158015611612573d6000803e3d6000fd5b505050506040513d602081101561162857600080fd5b5051116116665760405162461bcd60e51b8152600401808060200182810382526024815260200180611a7f6024913960400191505060405180910390fd5b60045460009061168a90610100900460ff16611684866103e8611777565b906117db565b905060006116988583611834565b90506116a43382611891565b6009546040805163a9059cbb60e01b81526001600160a01b0392831660048201526024810188905290519188169163a9059cbb916044808201926020929091908290030181600087803b1580156116fa57600080fd5b505af115801561170e573d6000803e3d6000fd5b505050506040513d602081101561172457600080fd5b50506040805186815260208101839052808201849052905133917f5a3358a3d27a5373c0df2604662088d37894d56b7cfd27f315770440f4e0d919919081900360600190a295945050505050565b505050565b60008082116117ca576040805162461bcd60e51b815260206004820152601a602482015279536166654d6174683a206469766973696f6e206279207a65726f60301b604482015290519081900360640190fd5b8183816117d357fe5b049392505050565b6000826117ea575060006106a0565b828202828482816117f757fe5b0414610d1d5760405162461bcd60e51b81526004018080602001828103825260218152602001806119ed6021913960400191505060405180910390fd5b60008282111561188b576040805162461bcd60e51b815260206004820152601e60248201527f536166654d6174683a207375627472616374696f6e206f766572666c6f770000604482015290519081900360640190fd5b50900390565b6001600160a01b0382166118ec576040805162461bcd60e51b815260206004820152601f60248201527f45524332303a206d696e7420746f20746865207a65726f206164647265737300604482015290519081900360640190fd5b6118f860008383611772565b60025461190590826114c3565b6002556001600160a01b03821660009081526020819052604090205461192b90826114c3565b6001600160a01b0383166000818152602081815260408083209490945583518581529351929391927fddf252ad1be2c89b69c2b068fc378daa952ba7f163c4a11628f55a4df523b3ef9281900390910190a3505056fe45524332303a207472616e7366657220746f20746865207a65726f206164647265737345524332303a20617070726f766520746f20746865207a65726f206164647265737345524332303a207472616e7366657220616d6f756e7420657863656564732062616c616e6365536166654d6174683a206d756c7469706c69636174696f6e206f766572666c6f7745524332303a207472616e7366657220616d6f756e74206578636565647320616c6c6f77616e636545524332303a207472616e736665722066726f6d20746865207a65726f206164647265737345524332303a20617070726f76652066726f6d20746865207a65726f206164647265737347435420646f6573206e6f7420747275737420636f6c6c61746572616c206f776e65722e74727573746565206973206e6f74207472757374656420627920616e792064656c65676174652e45524332303a2064656372656173656420616c6c6f77616e63652062656c6f77207a65726fa2646970667358221220a16afe42576b1e9ed029f3ded19895945ccee59f8ccd909ea95296c54e66969664736f6c63430007010033a2646970667358221220907170938e90b42c9f8bf3315198578abf3ec0ed86efe90194ad9c5a335cde6c64736f6c63430007010033",
  "immutableReferences": {},
  "source": "// SPDX-License-Identifier: AGPL\npragma solidity ^0.7.0;\n\nimport \"./GroupCurrencyToken.sol\";\n\ncontract GroupCurrencyTokenFactory {\n\n    event GroupCurrencyTokenCreated(address indexed _address, address indexed _deployer);\n\n    function createGroupCurrencyToken(address _hub, address _treasury, address _owner, uint8 _mintFeePerThousand, string memory _name, string memory _symbol) public {\n        GroupCurrencyToken gct = new GroupCurrencyToken(\n            _hub,\n            _treasury,\n            _owner,\n            _mintFeePerThousand,\n            _name,\n            _symbol\n        );\n        emit GroupCurrencyTokenCreated(address(gct), msg.sender);\n    }\n}\n",
  "sourcePath": "/mnt/d6120f27-3dfd-4906-94cc-f395883b3f8e/src/circles-contracts/contracts/GroupCurrencyTokenFactory.sol",
  "compiler": {
    "name": "solc",
    "version": "0.7.1+commit.f4a555be.Emscripten.clang"
  },
  "schemaVersion": "3.4.7",
  "updatedAt": "2022-07-12T08:32:59.660Z",
  "devdoc": {
    "kind": "dev",
    "methods": {},
    "version": 1
  },
  "userdoc": {
    "kind": "user",
    "methods": {},
    "version": 1
  }
}