{
  "contractName": "GroupCurrencyTokenOwnerCentralizedEdition",
  "abi": [
    {
      "inputs": [
        {
          "internalType": "address",
          "name": "_hub",
          "type": "address"
        },
        {
          "internalType": "address",
          "name": "_token",
          "type": "address"
        },
        {
          "internalType": "address",
          "name": "_owner",
          "type": "address"
        }
      ],
      "stateMutability": "nonpayable",
      "type": "constructor"
    },
    {
      "anonymous": false,
      "inputs": [
        {
          "indexed": true,
          "internalType": "address",
          "name": "receiver",
          "type": "address"
        },
        {
          "indexed": true,
          "internalType": "address",
          "name": "collateral",
          "type": "address"
        },
        {
          "indexed": false,
          "internalType": "uint256",
          "name": "amount",
          "type": "uint256"
        }
      ],
      "name": "Minted",
      "type": "event"
    },
    {
      "inputs": [],
      "name": "hub",
      "outputs": [
        {
          "internalType": "address",
          "name": "",
          "type": "address"
        }
      ],
      "stateMutability": "view",
      "type": "function"
    },
    {
      "inputs": [],
      "name": "owner",
      "outputs": [
        {
          "internalType": "address",
          "name": "",
          "type": "address"
        }
      ],
      "stateMutability": "view",
      "type": "function"
    },
    {
      "inputs": [],
      "name": "token",
      "outputs": [
        {
          "internalType": "address",
          "name": "",
          "type": "address"
        }
      ],
      "stateMutability": "view",
      "type": "function"
    },
    {
      "inputs": [],
      "name": "setup",
      "outputs": [],
      "stateMutability": "nonpayable",
      "type": "function"
    },
    {
      "inputs": [
        {
          "internalType": "address",
          "name": "_trustee",
          "type": "address"
        }
      ],
      "name": "trust",
      "outputs": [],
      "stateMutability": "nonpayable",
      "type": "function"
    },
    {
      "inputs": [
        {
          "internalType": "address",
          "name": "_owner",
          "type": "address"
        }
      ],
      "name": "changeOwner",
      "outputs": [],
      "stateMutability": "nonpayable",
      "type": "function"
    },
    {
      "inputs": [
        {
          "internalType": "address",
          "name": "dest",
          "type": "address"
        },
        {
          "internalType": "address",
          "name": "src",
          "type": "address"
        },
        {
          "internalType": "uint256",
          "name": "wads",
          "type": "uint256"
        }
      ],
      "name": "mintTransitive",
      "outputs": [],
      "stateMutability": "nonpayable",
      "type": "function"
    }
  ],
  "bytecode": "0x608060405234801561001057600080fd5b506040516105f23803806105f28339818101604052606081101561003357600080fd5b5080516020820151604090920151600280546001600160a01b039283166001600160a01b0319918216179091556001805493831693821693909317909255600080549190931691161790556105658061008d6000396000f3fe608060405234801561001057600080fd5b506004361061006d5760003560e01c8063365a86fc146100725780634637d827146100965780634d5a0139146100be5780638da5cb5b146100f4578063a6f9dae1146100fc578063ba0bba4014610122578063fc0c546a1461012a575b600080fd5b61007a610132565b604080516001600160a01b039092168252519081900360200190f35b6100bc600480360360208110156100ac57600080fd5b50356001600160a01b0316610141565b005b6100bc600480360360608110156100d457600080fd5b506001600160a01b038135811691602081013590911690604001356101c8565b61007a610457565b6100bc6004803603602081101561011257600080fd5b50356001600160a01b0316610466565b6100bc61049f565b61007a610520565b6001546001600160a01b031681565b6002546001600160a01b0316331461015857600080fd5b60015460408051639951d62f60e01b81526001600160a01b0384811660048301526064602483015291519190921691639951d62f91604480830192600092919082900301818387803b1580156101ad57600080fd5b505af11580156101c1573d6000803e3d6000fd5b5050505050565b6001546040805163146924ff60e11b81526001600160a01b038581166004830152915191909216916328d249fe9160248083019260209291908290030181600087803b15801561021757600080fd5b505af115801561022b573d6000803e3d6000fd5b505050506040513d602081101561024157600080fd5b5051600080546040805163095ea7b360e01b81526001600160a01b039283166004820152602481018690529051919093169263095ea7b39260448083019360209390929083900390910190829087803b15801561029d57600080fd5b505af11580156102b1573d6000803e3d6000fd5b505050506040513d60208110156102c757600080fd5b5050600080546001546040805163146924ff60e11b81526001600160a01b0387811660048301529151938216936340c10f1993909216916328d249fe9160248082019260209290919082900301818987803b15801561032557600080fd5b505af1158015610339573d6000803e3d6000fd5b505050506040513d602081101561034f57600080fd5b5051604080516001600160e01b031960e085901b1681526001600160a01b039092166004830152602482018690525160448083019260209291908290030181600087803b15801561039f57600080fd5b505af11580156103b3573d6000803e3d6000fd5b505050506040513d60208110156103c957600080fd5b5051600080546040805163a9059cbb60e01b81526001600160a01b03898116600483015260248201869052915194955091169263a9059cbb92604480840193602093929083900390910190829087803b15801561042557600080fd5b505af1158015610439573d6000803e3d6000fd5b505050506040513d602081101561044f57600080fd5b505050505050565b6002546001600160a01b031681565b6002546001600160a01b0316331461047d57600080fd5b600280546001600160a01b0319166001600160a01b0392909216919091179055565b6002546001600160a01b031633146104b657600080fd5b600160009054906101000a90046001600160a01b03166001600160a01b0316633fbd653c6040518163ffffffff1660e01b8152600401600060405180830381600087803b15801561050657600080fd5b505af115801561051a573d6000803e3d6000fd5b50505050565b6000546001600160a01b03168156fea264697066735822122092b2a627c7ed9beb1a80b5873e5ba7ae6cc7cbb6d9de0dc7a1d982afa790795064736f6c63430007010033",
  "immutableReferences": {},
  "source": "// SPDX-License-Identifier: AGPL\npragma solidity ^0.7.0;\n\nimport \"./lib/SafeMath.sol\";\nimport \"./GroupCurrencyTokenCentralizedEdition.sol\";\nimport \"./Hub.sol\";\n\ncontract GroupCurrencyTokenOwnerCentralizedEdition {\n    using SafeMath for uint256;\n\n    address public token; // the safe/EOA/contract that deployed this token, can be changed by owner\n    address public hub; // the address of the hub this token is associated with\n    address public owner; \n    \n    event Minted(address indexed receiver, address indexed collateral, uint256 amount);\n\n    /// @dev modifier allowing function to be only called by the token owner\n    modifier onlyOwner() {\n        require(msg.sender == owner);\n        _;\n    }\n\n    constructor(address _hub, address _token, address _owner) {\n        owner = _owner;\n        hub = _hub;\n        token = _token;\n    }\n    \n    function setup() public onlyOwner {\n       Hub(hub).organizationSignup();\n    }\n\n    // Trust must be called by this contract (as a delegate) on Hub\n    function trust(address _trustee) public onlyOwner {\n        Hub(hub).trust(_trustee, 100);\n    }\n\n    function changeOwner(address _owner) public onlyOwner {\n        owner = _owner;\n    }\n    \n    // Group currently is created from collateral tokens. Collateral is directly part of the directMembers dictionary.\n    function mintTransitive(address dest, address src, uint wads) public {\n        // approve GCT for CRC to be swapped so CRC can be transferred to Treasury\n        ERC20(HubI(hub).userToToken(src)).approve(token, wads);\n        uint mintedAmount = GroupCurrencyTokenCentralizedEdition(token).mint(HubI(hub).userToToken(src), wads);\n        ERC20(token).transfer(dest, mintedAmount);\n    }\n    \n}\n",
  "sourcePath": "/home/daniel/src/circles-world/circles-contracts/contracts/GroupCurrencyTokenOwnerCentralizedEdition.sol",
  "compiler": {
    "name": "solc",
    "version": "0.7.1+commit.f4a555be.Emscripten.clang"
  },
  "schemaVersion": "3.4.8",
  "updatedAt": "2022-07-16T18:47:06.615Z",
  "devdoc": {
    "kind": "dev",
    "methods": {},
    "version": 1
  },
  "userdoc": {
    "kind": "user",
    "methods": {},
    "version": 1
  }
}