{
  "contractName": "HubV2",
  "abi": [
    {
      "inputs": [
        {
          "internalType": "address",
          "name": "_previousHub",
          "type": "address"
        },
        {
          "internalType": "uint256",
          "name": "_inflation",
          "type": "uint256"
        },
        {
          "internalType": "uint256",
          "name": "_period",
          "type": "uint256"
        },
        {
          "internalType": "string",
          "name": "_symbol",
          "type": "string"
        },
        {
          "internalType": "string",
          "name": "_name",
          "type": "string"
        },
        {
          "internalType": "uint256",
          "name": "_signupBonus",
          "type": "uint256"
        },
        {
          "internalType": "uint256",
          "name": "_initialIssuance",
          "type": "uint256"
        },
        {
          "internalType": "uint256",
          "name": "_timeout",
          "type": "uint256"
        }
      ],
      "stateMutability": "nonpayable",
      "type": "constructor"
    },
    {
      "anonymous": false,
      "inputs": [
        {
          "indexed": true,
          "internalType": "address",
          "name": "from",
          "type": "address"
        },
        {
          "indexed": true,
          "internalType": "address",
          "name": "to",
          "type": "address"
        },
        {
          "indexed": false,
          "internalType": "uint256",
          "name": "amount",
          "type": "uint256"
        }
      ],
      "name": "HubTransfer",
      "type": "event"
    },
    {
      "anonymous": false,
      "inputs": [
        {
          "indexed": true,
          "internalType": "address",
          "name": "organization",
          "type": "address"
        }
      ],
      "name": "OrganizationSignup",
      "type": "event"
    },
    {
      "anonymous": false,
      "inputs": [
        {
          "indexed": true,
          "internalType": "address",
          "name": "user",
          "type": "address"
        },
        {
          "indexed": false,
          "internalType": "address",
          "name": "token",
          "type": "address"
        }
      ],
      "name": "Signup",
      "type": "event"
    },
    {
      "anonymous": false,
      "inputs": [
        {
          "indexed": true,
          "internalType": "address",
          "name": "user",
          "type": "address"
        },
        {
          "indexed": true,
          "internalType": "address",
          "name": "oldToken",
          "type": "address"
        },
        {
          "indexed": true,
          "internalType": "address",
          "name": "newToken",
          "type": "address"
        },
        {
          "indexed": false,
          "internalType": "uint256",
          "name": "amount",
          "type": "uint256"
        }
      ],
      "name": "TokensMigrated",
      "type": "event"
    },
    {
      "inputs": [],
      "name": "deployedAt",
      "outputs": [
        {
          "internalType": "uint256",
          "name": "",
          "type": "uint256"
        }
      ],
      "stateMutability": "view",
      "type": "function"
    },
    {
      "inputs": [],
      "name": "divisor",
      "outputs": [
        {
          "internalType": "uint256",
          "name": "",
          "type": "uint256"
        }
      ],
      "stateMutability": "view",
      "type": "function"
    },
    {
      "inputs": [],
      "name": "inflation",
      "outputs": [
        {
          "internalType": "uint256",
          "name": "",
          "type": "uint256"
        }
      ],
      "stateMutability": "view",
      "type": "function"
    },
    {
      "inputs": [],
      "name": "initialIssuance",
      "outputs": [
        {
          "internalType": "uint256",
          "name": "",
          "type": "uint256"
        }
      ],
      "stateMutability": "view",
      "type": "function"
    },
    {
      "inputs": [],
      "name": "name",
      "outputs": [
        {
          "internalType": "string",
          "name": "",
          "type": "string"
        }
      ],
      "stateMutability": "view",
      "type": "function"
    },
    {
      "inputs": [
        {
          "internalType": "address",
          "name": "",
          "type": "address"
        }
      ],
      "name": "organizations",
      "outputs": [
        {
          "internalType": "bool",
          "name": "",
          "type": "bool"
        }
      ],
      "stateMutability": "view",
      "type": "function"
    },
    {
      "inputs": [],
      "name": "period",
      "outputs": [
        {
          "internalType": "uint256",
          "name": "",
          "type": "uint256"
        }
      ],
      "stateMutability": "view",
      "type": "function"
    },
    {
      "inputs": [],
      "name": "previousHub",
      "outputs": [
        {
          "internalType": "address",
          "name": "",
          "type": "address"
        }
      ],
      "stateMutability": "view",
      "type": "function"
    },
    {
      "inputs": [
        {
          "internalType": "uint256",
          "name": "",
          "type": "uint256"
        }
      ],
      "name": "seen",
      "outputs": [
        {
          "internalType": "address",
          "name": "",
          "type": "address"
        }
      ],
      "stateMutability": "view",
      "type": "function"
    },
    {
      "inputs": [],
      "name": "signupBonus",
      "outputs": [
        {
          "internalType": "uint256",
          "name": "",
          "type": "uint256"
        }
      ],
      "stateMutability": "view",
      "type": "function"
    },
    {
      "inputs": [],
      "name": "symbol",
      "outputs": [
        {
          "internalType": "string",
          "name": "",
          "type": "string"
        }
      ],
      "stateMutability": "view",
      "type": "function"
    },
    {
      "inputs": [],
      "name": "timeout",
      "outputs": [
        {
          "internalType": "uint256",
          "name": "",
          "type": "uint256"
        }
      ],
      "stateMutability": "view",
      "type": "function"
    },
    {
      "inputs": [
        {
          "internalType": "address",
          "name": "",
          "type": "address"
        }
      ],
      "name": "tokenToUser",
      "outputs": [
        {
          "internalType": "address",
          "name": "",
          "type": "address"
        }
      ],
      "stateMutability": "view",
      "type": "function"
    },
    {
      "inputs": [
        {
          "internalType": "address",
          "name": "",
          "type": "address"
        }
      ],
      "name": "userToToken",
      "outputs": [
        {
          "internalType": "contract TokenV2",
          "name": "",
          "type": "address"
        }
      ],
      "stateMutability": "view",
      "type": "function"
    },
    {
      "inputs": [
        {
          "internalType": "address",
          "name": "",
          "type": "address"
        }
      ],
      "name": "userVerifierMap",
      "outputs": [
        {
          "internalType": "address",
          "name": "",
          "type": "address"
        }
      ],
      "stateMutability": "view",
      "type": "function"
    },
    {
      "inputs": [
        {
          "internalType": "address",
          "name": "",
          "type": "address"
        }
      ],
      "name": "validation",
      "outputs": [
        {
          "internalType": "bool",
          "name": "seen",
          "type": "bool"
        },
        {
          "internalType": "uint256",
          "name": "sent",
          "type": "uint256"
        },
        {
          "internalType": "uint256",
          "name": "received",
          "type": "uint256"
        }
      ],
      "stateMutability": "view",
      "type": "function"
    },
    {
      "inputs": [
        {
          "internalType": "address",
          "name": "verifier",
          "type": "address"
        }
      ],
      "name": "useVerifier",
      "outputs": [],
      "stateMutability": "nonpayable",
      "type": "function"
    },
    {
      "inputs": [
        {
          "internalType": "address",
          "name": "user",
          "type": "address"
        }
      ],
      "name": "tokenOfUser",
      "outputs": [
        {
          "internalType": "contract TokenV2",
          "name": "",
          "type": "address"
        }
      ],
      "stateMutability": "view",
      "type": "function"
    },
    {
      "inputs": [
        {
          "internalType": "address",
          "name": "token",
          "type": "address"
        }
      ],
      "name": "userOfToken",
      "outputs": [
        {
          "internalType": "address",
          "name": "",
          "type": "address"
        }
      ],
      "stateMutability": "view",
      "type": "function"
    },
    {
      "inputs": [],
      "name": "periods",
      "outputs": [
        {
          "internalType": "uint256",
          "name": "",
          "type": "uint256"
        }
      ],
      "stateMutability": "view",
      "type": "function"
    },
    {
      "inputs": [],
      "name": "issuance",
      "outputs": [
        {
          "internalType": "uint256",
          "name": "",
          "type": "uint256"
        }
      ],
      "stateMutability": "view",
      "type": "function"
    },
    {
      "inputs": [
        {
          "internalType": "uint256",
          "name": "_periods",
          "type": "uint256"
        }
      ],
      "name": "issuanceByStep",
      "outputs": [
        {
          "internalType": "uint256",
          "name": "",
          "type": "uint256"
        }
      ],
      "stateMutability": "view",
      "type": "function"
    },
    {
      "inputs": [
        {
          "internalType": "uint256",
          "name": "_initial",
          "type": "uint256"
        },
        {
          "internalType": "uint256",
          "name": "_periods",
          "type": "uint256"
        }
      ],
      "name": "inflate",
      "outputs": [
        {
          "internalType": "uint256",
          "name": "",
          "type": "uint256"
        }
      ],
      "stateMutability": "view",
      "type": "function"
    },
    {
      "inputs": [],
      "name": "migrate",
      "outputs": [],
      "stateMutability": "nonpayable",
      "type": "function"
    },
    {
      "inputs": [
        {
          "internalType": "address",
          "name": "_token",
          "type": "address"
        },
        {
          "internalType": "uint256",
          "name": "_amount",
          "type": "uint256"
        }
      ],
      "name": "mint",
      "outputs": [],
      "stateMutability": "nonpayable",
      "type": "function"
    },
    {
      "inputs": [],
      "name": "signup",
      "outputs": [],
      "stateMutability": "nonpayable",
      "type": "function"
    },
    {
      "inputs": [],
      "name": "organizationSignup",
      "outputs": [],
      "stateMutability": "nonpayable",
      "type": "function"
    },
    {
      "inputs": [
        {
          "internalType": "uint256",
          "name": "base",
          "type": "uint256"
        },
        {
          "internalType": "uint256",
          "name": "exponent",
          "type": "uint256"
        }
      ],
      "name": "pow",
      "outputs": [
        {
          "internalType": "uint256",
          "name": "",
          "type": "uint256"
        }
      ],
      "stateMutability": "pure",
      "type": "function"
    },
    {
      "inputs": [
        {
          "internalType": "address",
          "name": "tokenOwner",
          "type": "address"
        },
        {
          "internalType": "address",
          "name": "src",
          "type": "address"
        },
        {
          "internalType": "address",
          "name": "dest",
          "type": "address"
        }
      ],
      "name": "checkSendLimit",
      "outputs": [
        {
          "internalType": "uint256",
          "name": "",
          "type": "uint256"
        }
      ],
      "stateMutability": "view",
      "type": "function"
    },
    {
      "inputs": [
        {
          "internalType": "address[]",
          "name": "tokenOwners",
          "type": "address[]"
        },
        {
          "internalType": "address[]",
          "name": "srcs",
          "type": "address[]"
        },
        {
          "internalType": "address[]",
          "name": "dests",
          "type": "address[]"
        },
        {
          "internalType": "uint256[]",
          "name": "wads",
          "type": "uint256[]"
        }
      ],
      "name": "transferThrough",
      "outputs": [],
      "stateMutability": "nonpayable",
      "type": "function"
    }
  ],
  "bytecode": "0x6101806040523480156200001257600080fd5b5060405162003e5b38038062003e5b83398181016040526101008110156200003957600080fd5b8151602083015160408085015160608601805192519496939591949391820192846401000000008211156200006d57600080fd5b9083019060208201858111156200008357600080fd5b82516401000000008111828201881017156200009e57600080fd5b82525081516020918201929091019080838360005b83811015620000cd578181015183820152602001620000b3565b50505050905090810190601f168015620000fb5780820380516001836020036101000a031916815260200191505b50604052602001805160405193929190846401000000008211156200011f57600080fd5b9083019060208201858111156200013557600080fd5b82516401000000008111828201881017156200015057600080fd5b82525081516020918201929091019080838360005b838110156200017f57818101518382015260200162000165565b50505050905090810190601f168015620001ad5780820380516001836020036101000a031916815260200191505b506040908152602082015190820151606092830151928a901b6001600160601b03191660805260a08990529093509150620001e8876200023c565b60c05260e0869052845162000205906000906020880190620003f5565b5083516200021b906001906020870190620003f5565b50610100929092526101205242610140526101605250620004919350505050565b6000805b60096200026862000253600a846200028c565b85620003c460201b6200197b1790919060201c565b1115620002785760010162000240565b62000285600a826200028c565b9392505050565b6000826200029d57506000620003be565b81620002ac57506001620003be565b8160011415620002be575081620003be565b60015b6001831115620003a057620002e6600284620003d860201b6200198f1790919060201c565b6200032a57620003058485620003ec60201b620019a31790919060201c565b935062000322600284620003c460201b6200197b1790919060201c565b92506200039a565b620003448185620003ec60201b620019a31790919060201c565b9050620003608485620003ec60201b620019a31790919060201c565b935062000397600262000383600186620003f060201b620019a71790919060201c565b620003c460201b6200197b1790919060201c565b92505b620002c1565b620003ba8185620003ec60201b620019a31790919060201c565b9150505b92915050565b6000818381620003d057fe5b049392505050565b6000818381620003e457fe5b069392505050565b0290565b900390565b828054600181600116156101000203166002900490600052602060002090601f016020900481019282601f106200043857805160ff191683800117855562000468565b8280016001018555821562000468579182015b82811115620004685782518255916020019190600101906200044b565b50620004769291506200047a565b5090565b5b808211156200047657600081556001016200047b565b60805160601c60a05160c05160e0516101005161012051610140516101605161393c6200051f60003980610dce5250806114d65280611911525080610d825280610e455280611959525080610daa5250806114b0528061193552508061081a52806108905250806108605280611671525080610aa75280610ca15280610e7e52806111e7525061393c6000f3fe60806040523480156200001157600080fd5b50600436106200019c5760003560e01c80637f501d0411620000e75780637f501d041462000421578063863623bb14620004415780638a0ef184146200044b5780638cd797bd14620004865780638fd3ab8014620004af57806395d89b4114620004b9578063a18b506b14620004c3578063a4caeb4214620004ec578063b7bc0f7314620004f6578063be0522e01462000500578063d4688092146200050a578063d62fd9a21462000533578063eae4c19f1462000769578063ef78d4fd1462000773578063fc22a9f8146200077d576200019c565b806306fdde0314620001a15780631f2dc5ef146200022357806328d249fe146200023f5780632a93834214620002845780632e4c697f14620002aa5780633c6a1e2014620002d05780633fbd653c14620002f957806340c10f1914620003055780635a1f740614620003345780635d68750c14620003715780635eda89c5146200037b57806361c4b42114620003a457806367cb52d814620003c457806370dea79a14620003ce57806377ed63c214620003d8575b600080fd5b620001ab62000787565b6040805160208082528351818301528351919283929083019185019080838360005b83811015620001e7578181015183820152602001620001cd565b50505050905090810190601f168015620002155780820380516001836020036101000a031916815260200191505b509250505060405180910390f35b6200022d62000818565b60408051918252519081900360200190f35b62000268600480360360208110156200025757600080fd5b50356001600160a01b03166200083c565b604080516001600160a01b039092168252519081900360200190f35b6200022d600480360360408110156200029c57600080fd5b508035906020013562000857565b6200022d60048036036040811015620002c257600080fd5b5080359060200135620008db565b6200026860048036036020811015620002e857600080fd5b50356001600160a01b03166200099b565b62000303620009b9565b005b62000303600480360360408110156200031d57600080fd5b506001600160a01b03813516906020013562000aa3565b6200035d600480360360208110156200034c57600080fd5b50356001600160a01b031662000c8a565b604080519115158252519081900360200190f35b6200026862000c9f565b62000303600480360360208110156200039357600080fd5b50356001600160a01b031662000cc3565b6200022d60048036036020811015620003bc57600080fd5b503562000d7a565b6200022d62000da8565b6200022d62000dcc565b6200040160048036036020811015620003f057600080fd5b50356001600160a01b031662000df0565b604080519315158452602084019290925282820152519081900360600190f35b62000268600480360360208110156200043957600080fd5b503562000e15565b6200022d62000e3d565b6200022d600480360360608110156200046357600080fd5b506001600160a01b03813581169160208101358216916040909101351662000e79565b62000268600480360360208110156200049e57600080fd5b50356001600160a01b031662001111565b620003036200112c565b620001ab6200142f565b6200026860048036036020811015620004db57600080fd5b50356001600160a01b03166200148d565b6200022d620014a8565b62000303620014fb565b6200022d6200166f565b62000268600480360360208110156200052257600080fd5b50356001600160a01b031662001693565b62000303600480360360808110156200054b57600080fd5b810190602081018135600160201b8111156200056657600080fd5b8201836020820111156200057957600080fd5b803590602001918460208302840111600160201b831117156200059b57600080fd5b9190808060200260200160405190810160405280939291908181526020018383602002808284376000920191909152509295949360208101935035915050600160201b811115620005eb57600080fd5b820183602082011115620005fe57600080fd5b803590602001918460208302840111600160201b831117156200062057600080fd5b9190808060200260200160405190810160405280939291908181526020018383602002808284376000920191909152509295949360208101935035915050600160201b8111156200067057600080fd5b8201836020820111156200068357600080fd5b803590602001918460208302840111600160201b83111715620006a557600080fd5b9190808060200260200160405190810160405280939291908181526020018383602002808284376000920191909152509295949360208101935035915050600160201b811115620006f557600080fd5b8201836020820111156200070857600080fd5b803590602001918460208302840111600160201b831117156200072a57600080fd5b919080806020026020016040519081016040528093929190818152602001838360200280828437600092019190915250929550620016b1945050505050565b6200022d6200190f565b6200022d62001933565b6200022d62001957565b60018054604080516020600284861615610100026000190190941693909304601f81018490048402820184019092528181529291830182828015620008105780601f10620007e45761010080835404028352916020019162000810565b820191906000526020600020905b815481529060010190602001808311620007f257829003601f168201915b505050505081565b7f000000000000000000000000000000000000000000000000000000000000000081565b6003602052600090815260409020546001600160a01b031681565b600080620008867f000000000000000000000000000000000000000000000000000000000000000084620008db565b90506000620008b67f000000000000000000000000000000000000000000000000000000000000000085620008db565b9050620008d081620008c98785620019a3565b906200197b565b925050505b92915050565b600082620008ec57506000620008d5565b81620008fb57506001620008d5565b81600114156200090d575081620008d5565b60015b60018311156200098757620009278360026200198f565b6200094f57620009388480620019a3565b9350620009478360026200197b565b925062000981565b6200095b8482620019a3565b9050620009698480620019a3565b93506200097e6002620008c9856001620019a7565b92505b62000910565b620009938482620019a3565b949350505050565b6001600160a01b039081166000908152600460205260409020541690565b336000908152600360205260409020546001600160a01b03161562000a105760405162461bcd60e51b815260040180806020018281038252602b81526020018062003854602b913960400191505060405180910390fd5b3360009081526005602052604090205460ff161562000a615760405162461bcd60e51b815260040180806020018281038252602a81526020018062003750602a913960400191505060405180910390fd5b33600081815260056020526040808220805460ff19166001179055517fb0b94cff8b84fc67513b977d68a5cdd67550bd9b8d99a34b570e3367b78437869190a2565b60007f00000000000000000000000000000000000000000000000000000000000000006001600160a01b031663a18b506b846040518263ffffffff1660e01b815260040180826001600160a01b03168152602001915050602060405180830381600087803b15801562000b1557600080fd5b505af115801562000b2a573d6000803e3d6000fd5b505050506040513d602081101562000b4157600080fd5b50516001600160a01b0380821660009081526003602052604080822054815162d2cb0160e81b815233600482015260248101889052915194955090921692839263d2cb010092604480830193919282900301818387803b15801562000ba557600080fd5b505af115801562000bba573d6000803e3d6000fd5b50506040805163a9059cbb60e01b815261dead60048201526024810187905290516001600160a01b038816935063a9059cbb925060448083019260209291908290030181600087803b15801562000c1057600080fd5b505af115801562000c25573d6000803e3d6000fd5b505050506040513d602081101562000c3c57600080fd5b50506040805184815290516001600160a01b03808416929087169133917f9237b9bb935e84e8581e252a8b7e763ba22a2ff20af398e9819f4c55e86c4744919081900360200190a450505050565b60056020526000908152604090205460ff1681565b7f000000000000000000000000000000000000000000000000000000000000000081565b336000908152600360205260409020546001600160a01b031615158062000cf957503360009081526005602052604090205460ff165b62000d4b576040805162461bcd60e51b815260206004820152601c60248201527f6d73672e73656e646572206d757374206265207369676e656420757000000000604482015290519081900360640190fd5b33600090815260026020526040902080546001600160a01b0319166001600160a01b0392909216919091179055565b6000620008d57f00000000000000000000000000000000000000000000000000000000000000008362000857565b7f000000000000000000000000000000000000000000000000000000000000000081565b7f000000000000000000000000000000000000000000000000000000000000000081565b60066020526000908152604090208054600182015460029092015460ff909116919083565b6007818154811062000e2357fe5b6000918252602090912001546001600160a01b0316905081565b600062000e747f000000000000000000000000000000000000000000000000000000000000000062000e6e620014a8565b62000857565b905090565b6000807f00000000000000000000000000000000000000000000000000000000000000006001600160a01b031663a3eb2b4a84876040518363ffffffff1660e01b815260040180836001600160a01b03168152602001826001600160a01b031681526020019250505060206040518083038186803b15801562000efb57600080fd5b505afa15801562000f10573d6000803e3d6000fd5b505050506040513d602081101562000f2757600080fd5b505190508062001000576001600160a01b03838116600090815260026020526040902054161562000ff5576001600160a01b03808416600081815260026020908152604091829020548251632283bc6160e21b81528a861660048201528986166024820152604481019490945291519190931692638a0ef1849260648082019391829003018186803b15801562000fbd57600080fd5b505afa15801562000fd2573d6000803e3d6000fd5b505050506040513d602081101562000fe957600080fd5b505191506200110a9050565b60009150506200110a565b6001600160a01b03838116600090815260036020526040902054161580156200104257506001600160a01b03831660009081526005602052604090205460ff16155b15620010535760009150506200110a565b6001600160a01b03858116600090815260036020526040902054166200107e5760009150506200110a565b6001600160a01b038086166000908152600360209081526040918290205482516370a0823160e01b8152888516600482015292519316926370a08231926024808201939291829003018186803b158015620010d857600080fd5b505afa158015620010ed573d6000803e3d6000fd5b505050506040513d60208110156200110457600080fd5b50519150505b9392505050565b6002602052600090815260409020546001600160a01b031681565b336000908152600360205260409020546001600160a01b03161562001192576040805162461bcd60e51b8152602060048201526017602482015276596f752063616e2774207369676e20757020747769636560481b604482015290519081900360640190fd5b3360009081526005602052604090205460ff1615620011e35760405162461bcd60e51b815260040180806020018281038252602b8152602001806200387f602b913960400191505060405180910390fd5b60007f00000000000000000000000000000000000000000000000000000000000000006001600160a01b03166328d249fe336040518263ffffffff1660e01b815260040180826001600160a01b03168152602001915050602060405180830381600087803b1580156200125557600080fd5b505af11580156200126a573d6000803e3d6000fd5b505050506040513d60208110156200128157600080fd5b505190506001600160a01b038116620012cc5760405162461bcd60e51b815260040180806020018281038252603c815260200180620038aa603c913960400191505060405180910390fd5b806001600160a01b03166375f12b216040518163ffffffff1660e01b815260040160206040518083038186803b1580156200130657600080fd5b505afa1580156200131b573d6000803e3d6000fd5b505050506040513d60208110156200133257600080fd5b5051620013715760405162461bcd60e51b815260040180806020018281038252603a8152602001806200381a603a913960400191505060405180910390fd5b6000336040516200138290620020b4565b6001600160a01b03909116815260405190819003602001906000f080158015620013b0573d6000803e3d6000fd5b5033600081815260036020908152604080832080546001600160a01b0387166001600160a01b0319918216811790925581855260048452938290208054909416851790935580519283525193945091927f358ba8f768af134eb5af120e9a61dc1ef29b29f597f047b555fc3675064a0342929181900390910190a25050565b6000805460408051602060026001851615610100026000190190941693909304601f81018490048402820184019092528181529291830182828015620008105780601f10620007e45761010080835404028352916020019162000810565b6004602052600090815260409020546001600160a01b031681565b600062000e747f0000000000000000000000000000000000000000000000000000000000000000620008c9427f0000000000000000000000000000000000000000000000000000000000000000620019a7565b336000908152600360205260409020546001600160a01b03161562001561576040805162461bcd60e51b8152602060048201526017602482015276596f752063616e2774207369676e20757020747769636560481b604482015290519081900360640190fd5b3360009081526005602052604090205460ff1615620015b25760405162461bcd60e51b815260040180806020018281038252602b8152602001806200387f602b913960400191505060405180910390fd5b600033604051620015c390620020b4565b6001600160a01b03909116815260405190819003602001906000f080158015620015f1573d6000803e3d6000fd5b5033600081815260036020908152604080832080546001600160a01b0387166001600160a01b0319918216811790925581855260048452938290208054909416851790935580519283525193945091927f358ba8f768af134eb5af120e9a61dc1ef29b29f597f047b555fc3675064a0342929181900390910190a250565b7f000000000000000000000000000000000000000000000000000000000000000081565b6001600160a01b039081166000908152600360205260409020541690565b8351825114620016f35760405162461bcd60e51b815260040180806020018281038252602a8152602001806200377a602a913960400191505060405180910390fd5b8351835114620017355760405162461bcd60e51b8152600401808060200182810382526029815260200180620037276029913960400191505060405180910390fd5b8351815114620017775760405162461bcd60e51b815260040180806020018281038252602c815260200180620037a4602c913960400191505060405180910390fd5b60005b8351811015620018fc5760008482815181106200179357fe5b602002602001015190506000848381518110620017ac57fe5b602002602001015190506000878481518110620017c557fe5b602002602001015190506000858581518110620017de57fe5b602002602001015190506000620017f783868662000e79565b90508082111562001846576040805162461bcd60e51b8152602060048201526014602482015273151c9d5cdd081b1a5b5a5d08195e18d95959195960621b604482015290519081900360640190fd5b62001853858584620019ac565b6001600160a01b0380841660009081526003602090815260408083205481516308299c0f60e21b81528a8616600482015289861660248201526044810188905291519416936320a6703c93606480840194938390030190829087803b158015620018bc57600080fd5b505af1158015620018d1573d6000803e3d6000fd5b505050506040513d6020811015620018e857600080fd5b5050600190950194506200177a9350505050565b5062001909835162001b61565b50505050565b7f000000000000000000000000000000000000000000000000000000000000000081565b7f000000000000000000000000000000000000000000000000000000000000000081565b7f000000000000000000000000000000000000000000000000000000000000000081565b60008183816200198757fe5b049392505050565b60008183816200199b57fe5b069392505050565b0290565b900390565b6001600160a01b03831660009081526006602052604090205460ff161562001a18576001600160a01b038316600090815260066020526040902060010154620019f69082620020b0565b6001600160a01b03841660009081526006602052604090206001015562001a83565b6001600160a01b0383166000818152600660205260408120805460ff1916600190811782559081018490556007805491820181559091527fa66cc928b5edb82af9bd49922954155ab7b0942694bea4ce44661d9a8736c6880180546001600160a01b03191690911790555b6001600160a01b03821660009081526006602052604090205460ff161562001aef576001600160a01b03821660009081526006602052604090206002015462001acd9082620020b0565b6001600160a01b03831660009081526006602052604090206002015562001b5c565b6001600160a01b0382166000818152600660205260408120805460ff19166001908117825560029091018490556007805491820181559091527fa66cc928b5edb82af9bd49922954155ab7b0942694bea4ce44661d9a8736c6880180546001600160a01b03191690911790555b505050565b60008060005b60075481101562001d5d5762001b7c620020c2565b600660006007848154811062001b8e57fe5b60009182526020808320909101546001600160a01b0316835282810193909352604091820190208151606081018352815460ff161515815260018201549381018490526002909101549181018290529250101562001cbf576001600160a01b0384161562001c2e5760405162461bcd60e51b8152600401808060200182810382526021815260200180620037d06021913960400191505060405180910390fd5b336001600160a01b03166007838154811062001c4657fe5b6000918252602090912001546001600160a01b03161462001c995760405162461bcd60e51b8152600401808060200182810382526029815260200180620037f16029913960400191505060405180910390fd5b6007828154811062001ca757fe5b6000918252602090912001546001600160a01b031693505b80602001518160400151111562001d53576001600160a01b0383161562001d2d576040805162461bcd60e51b815260206004820181905260248201527f506174682073656e647320746f206d6f7265207468616e206f6e652064657374604482015290519081900360640190fd5b6007828154811062001d3b57fe5b6000918252602090912001546001600160a01b031692505b5060010162001b67565b506001600160a01b03821662001db8576040805162461bcd60e51b815260206004820152601b60248201527a5472616e73616374696f6e206d757374206861766520612073726360281b604482015290519081900360640190fd5b6001600160a01b03811662001e14576040805162461bcd60e51b815260206004820152601c60248201527f5472616e73616374696f6e206d75737420686176652061206465737400000000604482015290519081900360640190fd5b6001600160a01b0382166000908152600660205260409020600201541562001e79576040805162461bcd60e51b815260206004820152601360248201527253656e64657220697320726563656976696e6760681b604482015290519081900360640190fd5b6001600160a01b0381166000908152600660205260409020600101541562001edf576040805162461bcd60e51b8152602060048201526014602482015273526563697069656e742069732073656e64696e6760601b604482015290519081900360640190fd5b6001600160a01b038082166000908152600660205260408082206002015492851682529020600101541462001f465760405162461bcd60e51b8152600401808060200182810382526021815260200180620038e66021913960400191505060405180910390fd5b60075460018401101562001f9b576040805162461bcd60e51b81526020600482015260176024820152765365656e20746f6f206d616e792061646472657373657360481b604482015290519081900360640190fd5b6001600160a01b038281166000818152600660209081526040918290206001015482519081529151938516937f8451019aab65b4193860ef723cb0d56b475a26a72b7bfc55c1dbd6121015285a9281900390910190a36007545b60018110620020545760066000600760018403815481106200201357fe5b60009182526020808320909101546001600160a01b031683528201929092526040018120805460ff1916815560018101829055600201556000190162001ff5565b506200206360076000620020e5565b6007541562001b5c576040805162461bcd60e51b81526020600482015260146024820152735365656e2073686f756c6420626520656d70747960601b604482015290519081900360640190fd5b0190565b611603806200212483390190565b604051806060016040528060001515815260200160008152602001600081525090565b508054600082559060005260206000209081019062002105919062002108565b50565b5b808211156200211f576000815560010162002109565b509056fe60c0604052600960f91b6080523480156200001957600080fd5b506040516200160338038062001603833981810160405260208110156200003f57600080fd5b50516001600160a01b0381166200005557600080fd5b6001600160601b0319606082901b1660a052600680546001600160a01b031916331790556200008362000192565b6005556200009062000196565b6007556006546040805163863623bb60e01b815290516001600160a01b039092169163863623bb91600480820192602092909190829003018186803b158015620000d957600080fd5b505afa158015620000ee573d6000803e3d6000fd5b505050506040513d60208110156200010557600080fd5b505160085560065460408051630cf96a5b60e31b815290516200018b9284926001600160a01b03909116916367cb52d891600480820192602092909190829003018186803b1580156200015757600080fd5b505afa1580156200016c573d6000803e3d6000fd5b505050506040513d60208110156200018357600080fd5b505162000215565b506200043b565b4290565b600080620001ea620001a762000324565b620001b8620001cc6001826200039d565b620003e360201b62000c5d1790919060201c565b620001d6620003e7565b6200042d60201b62000c611790919060201c565b90506200020f620001fa62000192565b826200043160201b62000c651790919060201c565b91505090565b6001600160a01b03821662000271576040805162461bcd60e51b815260206004820152601f60248201527f45524332303a206d696e7420746f20746865207a65726f206164647265737300604482015290519081900360640190fd5b6200027f6000838362000436565b6200029b81600254620003e360201b62000c5d1790919060201c565b6002556001600160a01b03821660009081526020818152604090912054620002ce91839062000c5d620003e3821b17901c565b6001600160a01b0383166000818152602081815260408083209490945583518581529351929391927fddf252ad1be2c89b69c2b068fc378daa952ba7f163c4a11628f55a4df523b3ef9281900390910190a35050565b6006546040805163eae4c19f60e01b815290516000926001600160a01b03169163eae4c19f916004808301926020929190829003018186803b1580156200036a57600080fd5b505afa1580156200037f573d6000803e3d6000fd5b505050506040513d60208110156200039657600080fd5b5051905090565b6006546040805163526575a160e11b815290516000926001600160a01b03169163a4caeb42916004808301926020929190829003018186803b1580156200036a57600080fd5b0190565b6006546040805163ef78d4fd60e01b815290516000926001600160a01b03169163ef78d4fd916004808301926020929190829003018186803b1580156200036a57600080fd5b0290565b900390565b505050565b60805160f81c60a05160601c6111946200046f600039806105c052806109f25280610afa5250806106e252506111946000f3fe608060405234801561001057600080fd5b506004361061016f5760003560e01c80636c050eae116100d45780636c050eae1461035757806370a082311461035f57806370dea79a1461038557806375f12b211461038d5780638b4eed81146103955780638da5cb5b1461039d57806395d89b41146103a5578063a2e62045146103ad578063a457c2d7146103b5578063a4caeb42146103e1578063a9059cbb146103e9578063d2cb010014610415578063d404808914610441578063dd62ed3e14610449578063ef78d4fd146104775761016f565b806306fdde031461017457806307da68f5146101f1578063095ea7b3146101fb5780630b0aaf271461023b578063107129dd1461025557806316ada5471461025d57806318160ddd1461026557806320a6703c1461026d57806323b872dd146102a3578063313ce567146102d9578063365a86fc146102f7578063395093511461031b5780633b6fe91f1461034757806341c305461461034f575b600080fd5b61017c61047f565b6040805160208082528351818301528351919283929083019185019080838360005b838110156101b657818101518382015260200161019e565b50505050905090810190601f1680156101e35780820380516001836020036101000a031916815260200191505b509250505060405180910390f35b6101f96105b5565b005b6102276004803603604081101561021157600080fd5b506001600160a01b0381351690602001356105f9565b604080519115158252519081900360200190f35b61024361060f565b60408051918252519081900360200190f35b61024361063b565b610243610641565b610243610645565b6102276004803603606081101561028357600080fd5b506001600160a01b0381358116916020810135909116906040013561064b565b610227600480360360608110156102b957600080fd5b506001600160a01b03813581169160208101359091169060400135610677565b6102e16106e0565b6040805160ff9092168252519081900360200190f35b6102ff610704565b604080516001600160a01b039092168252519081900360200190f35b6102276004803603604081101561033157600080fd5b506001600160a01b038135169060200135610713565b610243610749565b6102436107bf565b61024361080b565b6102436004803603602081101561037557600080fd5b50356001600160a01b0316610941565b61024361095c565b6102276109a1565b6102436109ea565b6102ff6109f0565b61017c610a14565b6101f9610a59565b610227600480360360408110156103cb57600080fd5b506001600160a01b038135169060200135610b22565b610243610b71565b610227600480360360408110156103ff57600080fd5b506001600160a01b038135169060200135610bb6565b6101f96004803603604081101561042b57600080fd5b506001600160a01b038135169060200135610bc2565b610243610be7565b6102436004803603604081101561045f57600080fd5b506001600160a01b0381358116916020013516610bed565b610243610c18565b600654604080516306fdde0360e01b815290516060926001600160a01b0316916306fdde03916004808301926000929190829003018186803b1580156104c457600080fd5b505afa1580156104d8573d6000803e3d6000fd5b505050506040513d6000823e601f3d908101601f19168201604052602081101561050157600080fd5b8101908080516040519392919084600160201b82111561052057600080fd5b90830190602082018581111561053557600080fd5b8251600160201b81118282018810171561054e57600080fd5b82525081516020918201929091019080838360005b8381101561057b578181015183820152602001610563565b50505050905090810190601f1680156105a85780820380516001836020036101000a031916815260200191505b5060405250505090505b90565b336001600160a01b037f000000000000000000000000000000000000000000000000000000000000000016146105ea57600080fd5b6009805460ff19166001179055565b6000610606338484610c6a565b50600192915050565b600061063661061c610c18565b610630610627610749565b60055490610c65565b90610d56565b905090565b60075481565b4290565b60025490565b6006546000906001600160a01b0316331461066557600080fd5b610670848484610d69565b9392505050565b6000610684848484610d69565b6106d684336106d1856040518060600160405280602881526020016110c9602891396001600160a01b038a1660009081526001602090815260408083203384529091529020549190610ec4565b610c6a565b5060019392505050565b7f000000000000000000000000000000000000000000000000000000000000000081565b6006546001600160a01b031681565b3360008181526001602090815260408083206001600160a01b038716845290915281205490916106069185906106d19086610c5d565b6006546040805163eae4c19f60e01b815290516000926001600160a01b03169163eae4c19f916004808301926020929190829003018186803b15801561078e57600080fd5b505afa1580156107a2573d6000803e3d6000fd5b505050506040513d60208110156107b857600080fd5b5051905090565b6000806107f16107cd610749565b6107dd6107e360016107dd610b71565b90610c5d565b6107eb610c18565b90610c61565b90506108056107fe610641565b8290610c65565b91505090565b60006108156109a1565b15610822575060006105b2565b60055460075460085460009291908361083961060f565b90505b610844610641565b61084e8585610c5d565b1161090c576108676108608484610c61565b8690610c5d565b94506108738484610c5d565b935061087d610c18565b925061088a816001610c5d565b600654604080516361c4b42160e01b81526004810184905290519293506001600160a01b03909116916361c4b42191602480820192602092909190829003018186803b1580156108d957600080fd5b505afa1580156108ed573d6000803e3d6000fd5b505050506040513d602081101561090357600080fd5b5051915061083c565b60006109208561091a610641565b90610c65565b905061093661092f8285610c61565b8790610c5d565b965050505050505090565b6001600160a01b031660009081526020819052604090205490565b6006546040805163386f53cd60e11b815290516000926001600160a01b0316916370dea79a916004808301926020929190829003018186803b15801561078e57600080fd5b60095460009060ff16156109b7575060016105b2565b60006109c760055461091a610641565b90506109d161095c565b8111156109e25760019150506105b2565b600091505090565b60055481565b7f000000000000000000000000000000000000000000000000000000000000000081565b600654604080516395d89b4160e01b815290516060926001600160a01b0316916395d89b41916004808301926000929190829003018186803b1580156104c457600080fd5b6000610a6361080b565b90508015610b1f57610a736107bf565b600755610a7e610641565b6005556006546040805163863623bb60e01b815290516001600160a01b039092169163863623bb91600480820192602092909190829003018186803b158015610ac657600080fd5b505afa158015610ada573d6000803e3d6000fd5b505050506040513d6020811015610af057600080fd5b5051600855610b1f7f000000000000000000000000000000000000000000000000000000000000000082610f5b565b50565b600061060633846106d18560405180606001604052806025815260200161113a602591393360009081526001602090815260408083206001600160a01b038d1684529091529020549190610ec4565b6006546040805163526575a160e11b815290516000926001600160a01b03169163a4caeb42916004808301926020929190829003018186803b15801561078e57600080fd5b6000610670838361104b565b6006546001600160a01b03163314610bd957600080fd5b610be38282610f5b565b5050565b60085481565b6001600160a01b03918216600090815260016020908152604080832093909416825291909152205490565b6006546040805163ef78d4fd60e01b815290516000926001600160a01b03169163ef78d4fd916004808301926020929190829003018186803b15801561078e57600080fd5b0190565b0290565b900390565b6001600160a01b038316610caf5760405162461bcd60e51b81526004018080602001828103825260248152602001806111166024913960400191505060405180910390fd5b6001600160a01b038216610cf45760405162461bcd60e51b81526004018080602001828103825260228152602001806110816022913960400191505060405180910390fd5b6001600160a01b03808416600081815260016020908152604080832094871680845294825291829020859055815185815291517f8c5be1e5ebec7d5bd14f71427d1e84f3dd0314c0f7b2291e5b200ac8c7c3b9259281900390910190a3505050565b6000818381610d6157fe5b049392505050565b6001600160a01b038316610dae5760405162461bcd60e51b81526004018080602001828103825260258152602001806110f16025913960400191505060405180910390fd5b6001600160a01b038216610df35760405162461bcd60e51b815260040180806020018281038252602381526020018061105e6023913960400191505060405180910390fd5b610dfe838383611058565b610e3b816040518060600160405280602681526020016110a3602691396001600160a01b0386166000908152602081905260409020549190610ec4565b6001600160a01b038085166000908152602081905260408082209390935590841681522054610e6a9082610c5d565b6001600160a01b038084166000818152602081815260409182902094909455805185815290519193928716927fddf252ad1be2c89b69c2b068fc378daa952ba7f163c4a11628f55a4df523b3ef92918290030190a3505050565b60008184841115610f535760405162461bcd60e51b81526004018080602001828103825283818151815260200191508051906020019080838360005b83811015610f18578181015183820152602001610f00565b50505050905090810190601f168015610f455780820380516001836020036101000a031916815260200191505b509250505060405180910390fd5b505050900390565b6001600160a01b038216610fb6576040805162461bcd60e51b815260206004820152601f60248201527f45524332303a206d696e7420746f20746865207a65726f206164647265737300604482015290519081900360640190fd5b610fc260008383611058565b600254610fcf9082610c5d565b6002556001600160a01b038216600090815260208190526040902054610ff59082610c5d565b6001600160a01b0383166000818152602081815260408083209490945583518581529351929391927fddf252ad1be2c89b69c2b068fc378daa952ba7f163c4a11628f55a4df523b3ef9281900390910190a35050565b6000610606338484610d69565b50505056fe45524332303a207472616e7366657220746f20746865207a65726f206164647265737345524332303a20617070726f766520746f20746865207a65726f206164647265737345524332303a207472616e7366657220616d6f756e7420657863656564732062616c616e636545524332303a207472616e7366657220616d6f756e74206578636565647320616c6c6f77616e636545524332303a207472616e736665722066726f6d20746865207a65726f206164647265737345524332303a20617070726f76652066726f6d20746865207a65726f206164647265737345524332303a2064656372656173656420616c6c6f77616e63652062656c6f77207a65726fa26469706673582212209b7f3894b3b6de43b87ba3cdd70028f1e567321f38de0d8e28ed56bff384cece64736f6c63430007010033546f6b656e73206172726179206c656e677468206d75737420657175616c2073726373206172726179596f752063616e2774207369676e20757020617320616e206f7267616e697a6174696f6e207477696365546f6b656e73206172726179206c656e677468206d75737420657175616c206465737473206172726179546f6b656e73206172726179206c656e677468206d75737420657175616c20616d6f756e7473206172726179506174682073656e64732066726f6d206d6f7265207468616e206f6e65207372635061746820646f65736e27742073656e642066726f6d207472616e73616374696f6e2073656e646572596f75206d7573742073746f7020796f757220763120746f6b656e206265666f7265206d6967726174696e6720746f20746865207632206875624e6f726d616c2075736572732063616e6e6f74207369676e7570206173206f7267616e697a6174696f6e734f7267616e697a6174696f6e732063616e6e6f74207369676e7570206173206e6f726d616c207573657273596f75206e65656420746f206265207369676e65642d7570206174204875625631206265666f7265207369676e696e67207570206174204875625632556e657175616c2073656e7420616e6420726563656976656420616d6f756e7473a264697066735822122008aa17d0a4386cd2b7835b67cd19a0317ab911e741343fc311212f26d6e4d70f64736f6c63430007010033",
  "immutableReferences": {
    "492": [
      {
        "length": 32,
        "start": 2727
      },
      {
        "length": 32,
        "start": 3233
      },
      {
        "length": 32,
        "start": 3710
      },
      {
        "length": 32,
        "start": 4583
      }
    ],
    "494": [
      {
        "length": 32,
        "start": 2144
      },
      {
        "length": 32,
        "start": 5745
      }
    ],
    "496": [
      {
        "length": 32,
        "start": 2074
      },
      {
        "length": 32,
        "start": 2192
      }
    ],
    "498": [
      {
        "length": 32,
        "start": 5296
      },
      {
        "length": 32,
        "start": 6453
      }
    ],
    "504": [
      {
        "length": 32,
        "start": 3498
      }
    ],
    "506": [
      {
        "length": 32,
        "start": 3458
      },
      {
        "length": 32,
        "start": 3653
      },
      {
        "length": 32,
        "start": 6489
      }
    ],
    "508": [
      {
        "length": 32,
        "start": 5334
      },
      {
        "length": 32,
        "start": 6417
      }
    ],
    "510": [
      {
        "length": 32,
        "start": 3534
      }
    ]
  },
  "source": "// SPDX-License-Identifier: AGPL\npragma solidity ^0.7.0;\n\nimport \"./lib/SafeMath.sol\";\nimport \"./Token.sol\";\nimport \"./TokenV2.sol\";\nimport \"./interfaces/VerifierI.sol\";\nimport \"./interfaces/HubI.sol\";\n\ncontract HubV2 {\n    using SafeMath for uint256;\n\n    address public immutable previousHub;\n    uint256 public immutable inflation; // the inflation rate expressed as 1 + percentage inflation, aka 7% inflation is 107\n    uint256 public immutable divisor; // the largest power of 10 the inflation rate can be divided by\n    uint256 public immutable period; // the amount of sections between inflation steps\n    string public symbol;\n    string public name;\n    uint256 public immutable signupBonus; // a one-time payout made immediately on signup\n    uint256 public immutable initialIssuance; // the starting payout per second, this gets inflated by the inflation rate\n    uint256 public immutable deployedAt; // the timestamp this contract was deployed at\n    uint256 public immutable timeout; // longest a token can go without a ubi payout before it gets deactivated\n\n    mapping (address => address) public userVerifierMap; // Each safe can opt-in for a verifier\n    mapping (address => TokenV2) public userToToken;\n    mapping (address => address) public tokenToUser;\n    mapping (address => bool) public organizations;\n\n    event Signup(address indexed user, address token);\n    event OrganizationSignup(address indexed organization);\n    event HubTransfer(address indexed from, address indexed to, uint256 amount);\n\n    event TokensMigrated(address indexed user, address indexed oldToken, address indexed newToken, uint256 amount);\n\n    // some data types used for validating transitive transfers\n    struct transferValidator {\n        bool seen;\n        uint256 sent;\n        uint256 received;\n    }\n    mapping (address => transferValidator) public validation;\n    address[] public seen;\n\n    constructor(\n        address _previousHub,\n        uint256 _inflation,\n        uint256 _period,\n        string memory _symbol,\n        string memory _name,\n        uint256 _signupBonus,\n        uint256 _initialIssuance,\n        uint256 _timeout\n    ) {\n        previousHub = _previousHub;\n        inflation = _inflation;\n        divisor = findDivisor(_inflation);\n        period = _period;\n        symbol = _symbol;\n        name = _name;\n        signupBonus = _signupBonus;\n        initialIssuance = _initialIssuance;\n        deployedAt = block.timestamp;\n        timeout = _timeout;\n    }\n\n    /// @notice Can be called by all signed-up users to opt-in for external verifiers\n    function useVerifier(address verifier) public {\n        require(address(userToToken[msg.sender]) != address(0) || organizations[msg.sender], \"msg.sender must be signed up\");\n        userVerifierMap[msg.sender] = verifier;\n    }\n\n    function tokenOfUser(address user) public view returns (TokenV2) {\n        return userToToken[user];\n    }\n    function userOfToken(address token) public view returns (address) {\n        return tokenToUser[token];\n    }\n\n    /// @notice calculates the correct divisor for the given inflation rate\n    /// @dev the divisor is used to maintain precision when doing math with percentages\n    /// @param _inf the inflation rate\n    /// @return the largest power of ten the inflation rate can be divided by\n    function findDivisor(uint256 _inf) internal pure returns (uint256) {\n        uint256 iter = 0;\n        while (_inf.div(pow(10, iter)) > 9) {\n            iter += 1;\n        }\n        return pow(10, iter);\n    }\n\n    /// @notice helper function for finding the amount of inflation periods since this hub was deployed\n    /// @return the amount of periods since hub was deployed\n    function periods() public view returns (uint256) {\n        return (block.timestamp.sub(deployedAt)).div(period);\n    }\n\n    /// @notice calculates the current issuance rate per second\n    /// @dev current issuance is the initial issuance inflated by the amount of inflation periods since the hub was deployed\n    /// @return current issuance rate\n    function issuance() public view returns (uint256) {\n        return inflate(initialIssuance, periods());\n    }\n\n    /// @notice finds the inflation rate at a given inflation period\n    /// @param _periods the step to calculate the issuance rate at\n    /// @return inflation rate as of the given period\n    function issuanceByStep(uint256 _periods) public view returns (uint256) {\n        return inflate(initialIssuance, _periods);\n    }\n\n    /// @notice find the current issuance rate for any initial issuance and amount of periods\n    /// @dev this is basically the calculation for compound interest, with some adjustments because of integer math\n    /// @param _initial the starting issuance rate\n    /// @param _periods the step to calculate the issuance rate as of\n    /// @return initial issuance rate as if interest (inflation) has been compounded period times\n    function inflate(uint256 _initial, uint256 _periods) public view returns (uint256) {\n        // this returns P * (1 + r) ** t - which is a the formula for compound interest if\n        // interest is compounded only once per period\n        // in our case, currentIssuanceRate = initialIssuance * (inflation) ** periods\n        uint256 q = pow(inflation, _periods);\n        uint256 d = pow(divisor, _periods);\n        return (_initial.mul(q)).div(d);\n    }\n\n    /// @notice signup to this circles hub - create a circles token and join the trust graph\n    /// @dev signup is permanent, there's no way to unsignup\n    function migrate() public {\n        // signup can only be called once\n        require(address(userToToken[msg.sender]) == address(0), \"You can't sign up twice\");\n        // organizations cannot sign up for a token\n        require(organizations[msg.sender] == false, \"Organizations cannot signup as normal users\");\n\n        address v1Token = HubI(previousHub).userToToken(msg.sender);\n        require(v1Token != address(0), \"You need to be signed-up at HubV1 before signing up at HubV2\");\n        require(Token(v1Token).stopped(), \"You must stop your v1 token before migrating to the v2 hub\");\n\n        TokenV2 token = new TokenV2(msg.sender);\n        userToToken[msg.sender] = token;\n        tokenToUser[address(token)] = msg.sender;\n\n        emit Signup(msg.sender, address(token));\n    }\n\n    /// @notice mints the new token\n    function mint(address _token, uint256 _amount) public {\n        // Find the new token to mint\n        address tokenOwner = HubI(previousHub).tokenToUser(_token);\n        TokenV2 newToken = userToToken[tokenOwner];\n        newToken.migrateMint(msg.sender, _amount);\n\n        // _mint(msg.sender, mintAmount);\n        ERC20(_token).transfer(address(0x000000000000000000000000000000000000dEaD), _amount);\n        emit TokensMigrated(msg.sender, _token, address(newToken), _amount);\n    }\n\n    /// @notice signup to this circles hub - create a circles token and join the trust graph\n    /// @dev signup is permanent, there's no way to unsignup\n    function signup() public {\n        // signup can only be called once\n        require(address(userToToken[msg.sender]) == address(0), \"You can't sign up twice\");\n        // organizations cannot sign up for a token\n        require(organizations[msg.sender] == false, \"Organizations cannot signup as normal users\");\n\n        TokenV2 token = new TokenV2(msg.sender);\n        userToToken[msg.sender] = token;\n        tokenToUser[address(token)] = msg.sender;\n\n        // every user must trust themselves with a weight of 100\n        // this is so that all users accept their own token at all times\n        //_trust(msg.sender, 100);\n        // Not reuqired because signup at v1 is always mandatory first\n        //HubI(previousHub).trust(msg.sender, 100);\n\n        emit Signup(msg.sender, address(token));\n    }\n\n    /// @notice register an organization address with the hub and join the trust graph\n    /// @dev signup is permanent for organizations too, there's no way to unsignup\n    function organizationSignup() public {\n        // can't register as an organization if you have a token\n        require(address(userToToken[msg.sender]) == address(0), \"Normal users cannot signup as organizations\");\n        // can't register as an organization twice\n        require(organizations[msg.sender] == false, \"You can't sign up as an organization twice\");\n\n        organizations[msg.sender] = true;\n\n        emit OrganizationSignup(msg.sender);\n    }\n\n    /// @dev this is an implementation of exponentiation by squares\n    /// @param base the base to be used in the calculation\n    /// @param exponent the exponent to be used in the calculation\n    /// @return the result of the calculation\n    function pow(uint256 base, uint256 exponent) public pure returns (uint256) {\n        if (base == 0) {\n            return 0;\n        }\n        if (exponent == 0) {\n            return 1;\n        }\n        if (exponent == 1) {\n            return base;\n        }\n        uint256 y = 1;\n        while(exponent > 1) {\n            if(exponent.mod(2) == 0) {\n                base = base.mul(base);\n                exponent = exponent.div(2);\n            } else {\n                y = base.mul(y);\n                base = base.mul(base);\n                exponent = (exponent.sub(1)).div(2);\n            }\n        }\n        return base.mul(y);\n    }\n\n    /// @notice finds the maximum amount of a specific token that can be sent between two users\n    /// @dev the goal of this function is to always return a sensible number, it's used to validate transfer throughs, and also heavily in the graph/pathfinding services\n    /// @param tokenOwner the safe/owner that the token was minted to\n    /// @param src the sender of the tokens\n    /// @param dest the recipient of the tokens\n    /// @return the amount of tokenowner's token src can send to dest\n    function checkSendLimit(address tokenOwner, address src, address dest) public view returns (uint256) {\n        uint256 limit = HubI(previousHub).limits(dest, tokenOwner);\n\n        // there is no trust\n        if (limit == 0) {\n\n            // Check if the dest registered a verifier\n            if (address(userVerifierMap[dest]) != address(0)) {\n                return VerifierI(userVerifierMap[dest]).checkSendLimit(tokenOwner, src, dest);\n            } else {\n                return 0;\n            }\n        }\n\n        // if dest hasn't signed up, they cannot trust anyone\n        if (address(userToToken[dest]) == address(0) && !organizations[dest]) {\n            return 0;\n        }\n\n        //if the token doesn't exist, it can't be sent/accepted\n        if (address(userToToken[tokenOwner]) == address(0)) {\n            return 0;\n        }\n\n        return userToToken[tokenOwner].balanceOf(src);\n    }\n\n    /// @dev builds the validation data structures, called for each transaction step of a transtive transactions\n    /// @param src the sender of a single transaction step\n    /// @param dest the recipient of a single transaction step\n    /// @param wad the amount being passed along a single transaction step\n    function buildValidationData(address src, address dest, uint wad) internal {\n        // the validation mapping has this format\n        // { address: {\n        //     seen: whether this user is part of the transaction,\n        //     sent: total amount sent by this user,\n        //     received: total amount received by this user,\n        //    }\n        // }\n        if (validation[src].seen != false) {\n            // if we have seen the addresses, increment their sent amounts\n            validation[src].sent = validation[src].sent.add(wad);\n        } else {\n            // if we haven't, add them to the validation mapping\n            validation[src].seen = true;\n            validation[src].sent = wad;\n            seen.push(src);\n        }\n        if (validation[dest].seen != false) {\n            // if we have seen the addresses, increment their sent amounts\n            validation[dest].received = validation[dest].received.add(wad);\n        } else {\n            // if we haven't, add them to the validation mapping\n            validation[dest].seen = true;\n            validation[dest].received = wad;\n            seen.push(dest);\n        }\n    }\n\n    /// @dev performs the validation for an attempted transitive transfer\n    /// @param steps the number of steps in the transitive transaction\n    function validateTransferThrough(uint256 steps) internal {\n        // a valid path has only one real sender and receiver\n        address src;\n        address dest;\n        // iterate through the array of all the addresses that were part of the transaction data\n        for (uint i = 0; i < seen.length; i++) {\n            transferValidator memory curr = validation[seen[i]];\n            // if the address sent more than they received, they are the sender\n            if (curr.sent > curr.received) {\n                // if we've already found a sender, transaction is invalid\n                require(src == address(0), \"Path sends from more than one src\");\n                // the real token sender must also be the transaction sender\n                require(seen[i] == msg.sender, \"Path doesn't send from transaction sender\");\n                src = seen[i];\n            }\n            // if the address received more than they sent, they are the recipient\n            if (curr.received > curr.sent) {\n                // if we've already found a recipient, transaction is invalid\n                require(dest == address(0), \"Path sends to more than one dest\");\n                dest = seen[i];\n            }\n        }\n        // a valid path has both a sender and a recipient\n        require(src != address(0), \"Transaction must have a src\");\n        require(dest != address(0), \"Transaction must have a dest\");\n        // sender should not recieve, recipient should not send\n        // by this point in the code, we should have one src and one dest and no one else's balance should change\n        require(validation[src].received == 0, \"Sender is receiving\");\n        require(validation[dest].sent == 0, \"Recipient is sending\");\n        // the total amounts sent and received by sender and recipient should match\n        require(validation[src].sent == validation[dest].received, \"Unequal sent and received amounts\");\n        // the maximum amount of addresses we should see is one more than steps in the path\n        require(seen.length <= steps + 1, \"Seen too many addresses\");\n        emit HubTransfer(src, dest, validation[src].sent);\n        // clean up the validation datastructures\n        for (uint i = seen.length; i >= 1; i--) {\n            delete validation[seen[i-1]];\n        }\n        delete seen;\n        // sanity check that we cleaned everything up correctly\n        require(seen.length == 0, \"Seen should be empty\");\n    }\n\n    /// @notice walks through tokenOwners, srcs, dests, and amounts array and executes transtive transfer\n    /// @dev tokenOwners[0], srcs[0], dests[0], and wads[0] constitute a transaction step\n    /// @param tokenOwners the owner of the tokens being sent in each transaction step\n    /// @param srcs the sender of each transaction step\n    /// @param dests the recipient of each transaction step\n    /// @param wads the amount for each transaction step\n    function transferThrough(\n        address[] memory tokenOwners,\n        address[] memory srcs,\n        address[] memory dests,\n        uint[] memory wads\n    ) public {\n        // all the arrays must be the same length\n        require(dests.length == tokenOwners.length, \"Tokens array length must equal dests array\");\n        require(srcs.length == tokenOwners.length, \"Tokens array length must equal srcs array\");\n        require(wads.length == tokenOwners.length, \"Tokens array length must equal amounts array\");\n        for (uint i = 0; i < srcs.length; i++) {\n            address src = srcs[i];\n            address dest = dests[i];\n            address token = tokenOwners[i];\n            uint256 wad = wads[i];\n\n            // check that no trust limits are violated\n            uint256 max = checkSendLimit(token, src, dest);\n            require(wad <= max, \"Trust limit exceeded\");\n\n            buildValidationData(src, dest, wad);\n\n            // go ahead and do the transfers now so that we don't have to walk through this array again\n            userToToken[token].hubTransfer(src, dest, wad);\n        }\n        // this will revert if there are any problems found\n        validateTransferThrough(srcs.length);\n    }\n}\n\n",
  "sourcePath": "/home/daniel/src/circles-world/circles-contracts/contracts/HubV2.sol",
  "compiler": {
    "name": "solc",
    "version": "0.7.1+commit.f4a555be.Emscripten.clang"
  },
  "schemaVersion": "3.4.8",
  "updatedAt": "2022-07-17T11:14:04.266Z",
  "devdoc": {
    "kind": "dev",
    "methods": {
      "checkSendLimit(address,address,address)": {
        "details": "the goal of this function is to always return a sensible number, it's used to validate transfer throughs, and also heavily in the graph/pathfinding services",
        "params": {
          "dest": "the recipient of the tokens",
          "src": "the sender of the tokens",
          "tokenOwner": "the safe/owner that the token was minted to"
        },
        "returns": {
          "_0": "the amount of tokenowner's token src can send to dest"
        }
      },
      "inflate(uint256,uint256)": {
        "details": "this is basically the calculation for compound interest, with some adjustments because of integer math",
        "params": {
          "_initial": "the starting issuance rate",
          "_periods": "the step to calculate the issuance rate as of"
        },
        "returns": {
          "_0": "initial issuance rate as if interest (inflation) has been compounded period times"
        }
      },
      "issuance()": {
        "details": "current issuance is the initial issuance inflated by the amount of inflation periods since the hub was deployed",
        "returns": {
          "_0": "current issuance rate"
        }
      },
      "issuanceByStep(uint256)": {
        "params": {
          "_periods": "the step to calculate the issuance rate at"
        },
        "returns": {
          "_0": "inflation rate as of the given period"
        }
      },
      "migrate()": {
        "details": "signup is permanent, there's no way to unsignup"
      },
      "organizationSignup()": {
        "details": "signup is permanent for organizations too, there's no way to unsignup"
      },
      "periods()": {
        "returns": {
          "_0": "the amount of periods since hub was deployed"
        }
      },
      "pow(uint256,uint256)": {
        "details": "this is an implementation of exponentiation by squares",
        "params": {
          "base": "the base to be used in the calculation",
          "exponent": "the exponent to be used in the calculation"
        },
        "returns": {
          "_0": "the result of the calculation"
        }
      },
      "signup()": {
        "details": "signup is permanent, there's no way to unsignup"
      },
      "transferThrough(address[],address[],address[],uint256[])": {
        "details": "tokenOwners[0], srcs[0], dests[0], and wads[0] constitute a transaction step",
        "params": {
          "dests": "the recipient of each transaction step",
          "srcs": "the sender of each transaction step",
          "tokenOwners": "the owner of the tokens being sent in each transaction step",
          "wads": "the amount for each transaction step"
        }
      }
    },
    "version": 1
  },
  "userdoc": {
    "kind": "user",
    "methods": {
      "checkSendLimit(address,address,address)": {
        "notice": "finds the maximum amount of a specific token that can be sent between two users"
      },
      "inflate(uint256,uint256)": {
        "notice": "find the current issuance rate for any initial issuance and amount of periods"
      },
      "issuance()": {
        "notice": "calculates the current issuance rate per second"
      },
      "issuanceByStep(uint256)": {
        "notice": "finds the inflation rate at a given inflation period"
      },
      "migrate()": {
        "notice": "signup to this circles hub - create a circles token and join the trust graph"
      },
      "mint(address,uint256)": {
        "notice": "mints the new token"
      },
      "organizationSignup()": {
        "notice": "register an organization address with the hub and join the trust graph"
      },
      "periods()": {
        "notice": "helper function for finding the amount of inflation periods since this hub was deployed"
      },
      "signup()": {
        "notice": "signup to this circles hub - create a circles token and join the trust graph"
      },
      "transferThrough(address[],address[],address[],uint256[])": {
        "notice": "walks through tokenOwners, srcs, dests, and amounts array and executes transtive transfer"
      },
      "useVerifier(address)": {
        "notice": "Can be called by all signed-up users to opt-in for external verifiers"
      }
    },
    "version": 1
  }
}