{
  "contractName": "Hub",
  "abi": [
    {
      "inputs": [
        {
          "internalType": "uint256",
          "name": "_inflation",
          "type": "uint256"
        },
        {
          "internalType": "uint256",
          "name": "_period",
          "type": "uint256"
        },
        {
          "internalType": "string",
          "name": "_symbol",
          "type": "string"
        },
        {
          "internalType": "string",
          "name": "_name",
          "type": "string"
        },
        {
          "internalType": "uint256",
          "name": "_signupBonus",
          "type": "uint256"
        },
        {
          "internalType": "uint256",
          "name": "_initialIssuance",
          "type": "uint256"
        },
        {
          "internalType": "uint256",
          "name": "_timeout",
          "type": "uint256"
        }
      ],
      "stateMutability": "nonpayable",
      "type": "constructor"
    },
    {
      "anonymous": false,
      "inputs": [
        {
          "indexed": true,
          "internalType": "address",
          "name": "from",
          "type": "address"
        },
        {
          "indexed": true,
          "internalType": "address",
          "name": "to",
          "type": "address"
        },
        {
          "indexed": false,
          "internalType": "uint256",
          "name": "amount",
          "type": "uint256"
        }
      ],
      "name": "HubTransfer",
      "type": "event"
    },
    {
      "anonymous": false,
      "inputs": [
        {
          "indexed": true,
          "internalType": "address",
          "name": "organization",
          "type": "address"
        }
      ],
      "name": "OrganizationSignup",
      "type": "event"
    },
    {
      "anonymous": false,
      "inputs": [
        {
          "indexed": true,
          "internalType": "address",
          "name": "user",
          "type": "address"
        },
        {
          "indexed": false,
          "internalType": "address",
          "name": "token",
          "type": "address"
        }
      ],
      "name": "Signup",
      "type": "event"
    },
    {
      "anonymous": false,
      "inputs": [
        {
          "indexed": true,
          "internalType": "address",
          "name": "canSendTo",
          "type": "address"
        },
        {
          "indexed": true,
          "internalType": "address",
          "name": "user",
          "type": "address"
        },
        {
          "indexed": false,
          "internalType": "uint256",
          "name": "limit",
          "type": "uint256"
        }
      ],
      "name": "Trust",
      "type": "event"
    },
    {
      "inputs": [],
      "name": "deployedAt",
      "outputs": [
        {
          "internalType": "uint256",
          "name": "",
          "type": "uint256"
        }
      ],
      "stateMutability": "view",
      "type": "function"
    },
    {
      "inputs": [],
      "name": "divisor",
      "outputs": [
        {
          "internalType": "uint256",
          "name": "",
          "type": "uint256"
        }
      ],
      "stateMutability": "view",
      "type": "function"
    },
    {
      "inputs": [],
      "name": "inflation",
      "outputs": [
        {
          "internalType": "uint256",
          "name": "",
          "type": "uint256"
        }
      ],
      "stateMutability": "view",
      "type": "function"
    },
    {
      "inputs": [],
      "name": "initialIssuance",
      "outputs": [
        {
          "internalType": "uint256",
          "name": "",
          "type": "uint256"
        }
      ],
      "stateMutability": "view",
      "type": "function"
    },
    {
      "inputs": [
        {
          "internalType": "address",
          "name": "",
          "type": "address"
        },
        {
          "internalType": "address",
          "name": "",
          "type": "address"
        }
      ],
      "name": "limits",
      "outputs": [
        {
          "internalType": "uint256",
          "name": "",
          "type": "uint256"
        }
      ],
      "stateMutability": "view",
      "type": "function"
    },
    {
      "inputs": [],
      "name": "name",
      "outputs": [
        {
          "internalType": "string",
          "name": "",
          "type": "string"
        }
      ],
      "stateMutability": "view",
      "type": "function"
    },
    {
      "inputs": [
        {
          "internalType": "address",
          "name": "",
          "type": "address"
        }
      ],
      "name": "organizations",
      "outputs": [
        {
          "internalType": "bool",
          "name": "",
          "type": "bool"
        }
      ],
      "stateMutability": "view",
      "type": "function"
    },
    {
      "inputs": [],
      "name": "period",
      "outputs": [
        {
          "internalType": "uint256",
          "name": "",
          "type": "uint256"
        }
      ],
      "stateMutability": "view",
      "type": "function"
    },
    {
      "inputs": [
        {
          "internalType": "uint256",
          "name": "",
          "type": "uint256"
        }
      ],
      "name": "seen",
      "outputs": [
        {
          "internalType": "address",
          "name": "",
          "type": "address"
        }
      ],
      "stateMutability": "view",
      "type": "function"
    },
    {
      "inputs": [],
      "name": "symbol",
      "outputs": [
        {
          "internalType": "string",
          "name": "",
          "type": "string"
        }
      ],
      "stateMutability": "view",
      "type": "function"
    },
    {
      "inputs": [],
      "name": "timeout",
      "outputs": [
        {
          "internalType": "uint256",
          "name": "",
          "type": "uint256"
        }
      ],
      "stateMutability": "view",
      "type": "function"
    },
    {
      "inputs": [
        {
          "internalType": "address",
          "name": "",
          "type": "address"
        }
      ],
      "name": "tokenToUser",
      "outputs": [
        {
          "internalType": "address",
          "name": "",
          "type": "address"
        }
      ],
      "stateMutability": "view",
      "type": "function"
    },
    {
      "inputs": [
        {
          "internalType": "address",
          "name": "",
          "type": "address"
        }
      ],
      "name": "userToToken",
      "outputs": [
        {
          "internalType": "contract Token",
          "name": "",
          "type": "address"
        }
      ],
      "stateMutability": "view",
      "type": "function"
    },
    {
      "inputs": [
        {
          "internalType": "address",
          "name": "",
          "type": "address"
        }
      ],
      "name": "validation",
      "outputs": [
        {
          "internalType": "bool",
          "name": "seen",
          "type": "bool"
        },
        {
          "internalType": "uint256",
          "name": "sent",
          "type": "uint256"
        },
        {
          "internalType": "uint256",
          "name": "received",
          "type": "uint256"
        }
      ],
      "stateMutability": "view",
      "type": "function"
    },
    {
      "inputs": [],
      "name": "pseudoRandomSignupBonus",
      "outputs": [
        {
          "internalType": "uint256",
          "name": "",
          "type": "uint256"
        }
      ],
      "stateMutability": "view",
      "type": "function"
    },
    {
      "inputs": [],
      "name": "periods",
      "outputs": [
        {
          "internalType": "uint256",
          "name": "",
          "type": "uint256"
        }
      ],
      "stateMutability": "view",
      "type": "function"
    },
    {
      "inputs": [],
      "name": "issuance",
      "outputs": [
        {
          "internalType": "uint256",
          "name": "",
          "type": "uint256"
        }
      ],
      "stateMutability": "view",
      "type": "function"
    },
    {
      "inputs": [
        {
          "internalType": "uint256",
          "name": "_periods",
          "type": "uint256"
        }
      ],
      "name": "issuanceByStep",
      "outputs": [
        {
          "internalType": "uint256",
          "name": "",
          "type": "uint256"
        }
      ],
      "stateMutability": "view",
      "type": "function"
    },
    {
      "inputs": [
        {
          "internalType": "uint256",
          "name": "_initial",
          "type": "uint256"
        },
        {
          "internalType": "uint256",
          "name": "_periods",
          "type": "uint256"
        }
      ],
      "name": "inflate",
      "outputs": [
        {
          "internalType": "uint256",
          "name": "",
          "type": "uint256"
        }
      ],
      "stateMutability": "view",
      "type": "function"
    },
    {
      "inputs": [],
      "name": "signup",
      "outputs": [],
      "stateMutability": "nonpayable",
      "type": "function"
    },
    {
      "inputs": [],
      "name": "organizationSignup",
      "outputs": [],
      "stateMutability": "nonpayable",
      "type": "function"
    },
    {
      "inputs": [
        {
          "internalType": "address",
          "name": "user",
          "type": "address"
        },
        {
          "internalType": "uint256",
          "name": "limit",
          "type": "uint256"
        }
      ],
      "name": "trust",
      "outputs": [],
      "stateMutability": "nonpayable",
      "type": "function"
    },
    {
      "inputs": [
        {
          "internalType": "uint256",
          "name": "base",
          "type": "uint256"
        },
        {
          "internalType": "uint256",
          "name": "exponent",
          "type": "uint256"
        }
      ],
      "name": "pow",
      "outputs": [
        {
          "internalType": "uint256",
          "name": "",
          "type": "uint256"
        }
      ],
      "stateMutability": "pure",
      "type": "function"
    },
    {
      "inputs": [
        {
          "internalType": "address",
          "name": "tokenOwner",
          "type": "address"
        },
        {
          "internalType": "address",
          "name": "src",
          "type": "address"
        },
        {
          "internalType": "address",
          "name": "dest",
          "type": "address"
        }
      ],
      "name": "checkSendLimit",
      "outputs": [
        {
          "internalType": "uint256",
          "name": "",
          "type": "uint256"
        }
      ],
      "stateMutability": "view",
      "type": "function"
    },
    {
      "inputs": [
        {
          "internalType": "address[]",
          "name": "tokenOwners",
          "type": "address[]"
        },
        {
          "internalType": "address[]",
          "name": "srcs",
          "type": "address[]"
        },
        {
          "internalType": "address[]",
          "name": "dests",
          "type": "address[]"
        },
        {
          "internalType": "uint256[]",
          "name": "wads",
          "type": "uint256[]"
        }
      ],
      "name": "transferThrough",
      "outputs": [],
      "stateMutability": "nonpayable",
      "type": "function"
    }
  ],
  "bytecode": "0x6101406040523480156200001257600080fd5b506040516200401038038062004010833981810160405260e08110156200003857600080fd5b815160208301516040808501805191519395929483019291846401000000008211156200006457600080fd5b9083019060208201858111156200007a57600080fd5b82516401000000008111828201881017156200009557600080fd5b82525081516020918201929091019080838360005b83811015620000c4578181015183820152602001620000aa565b50505050905090810190601f168015620000f25780820380516001836020036101000a031916815260200191505b50604052602001805160405193929190846401000000008211156200011657600080fd5b9083019060208201858111156200012c57600080fd5b82516401000000008111828201881017156200014757600080fd5b82525081516020918201929091019080838360005b83811015620001765781810151838201526020016200015c565b50505050905090810190601f168015620001a45780820380516001836020036101000a031916815260200191505b5060409081526020820151908201516060909201516080899052909350909150620001cf876200021e565b60a05260c08690528451620001ec90600090602088019062000534565b5083516200020290600190602087019062000534565b5060e09190915242610100526101205250620005d09350505050565b6000805b60096200024a62000235600a846200026e565b85620003a660201b6200157c1790919060201c565b11156200025a5760010162000222565b62000267600a826200026e565b9392505050565b6000826200027f57506000620003a0565b816200028e57506001620003a0565b8160011415620002a0575081620003a0565b60015b60018311156200038257620002c86002846200040f60201b620015e21790919060201c565b6200030c57620002e784856200047860201b620016461790919060201c565b935062000304600284620003a660201b6200157c1790919060201c565b92506200037c565b6200032681856200047860201b620016461790919060201c565b90506200034284856200047860201b620016461790919060201c565b935062000379600262000365600186620004d660201b620016a41790919060201c565b620003a660201b6200157c1790919060201c565b92505b620002a3565b6200039c81856200047860201b620016461790919060201c565b9150505b92915050565b6000808211620003fd576040805162461bcd60e51b815260206004820152601a60248201527f536166654d6174683a206469766973696f6e206279207a65726f000000000000604482015290519081900360640190fd5b8183816200040757fe5b049392505050565b600080821162000466576040805162461bcd60e51b815260206004820152601860248201527f536166654d6174683a206d6f64756c6f206279207a65726f0000000000000000604482015290519081900360640190fd5b8183816200047057fe5b069392505050565b6000826200048957506000620003a0565b828202828482816200049757fe5b0414620002675760405162461bcd60e51b815260040180806020018281038252602181526020018062003fef6021913960400191505060405180910390fd5b6000828211156200052e576040805162461bcd60e51b815260206004820152601e60248201527f536166654d6174683a207375627472616374696f6e206f766572666c6f770000604482015290519081900360640190fd5b50900390565b828054600181600116156101000203166002900490600052602060002090601f016020900481019282601f106200057757805160ff1916838001178555620005a7565b82800160010185558215620005a7579182015b82811115620005a75782518255916020019190600101906200058a565b50620005b5929150620005b9565b5090565b5b80821115620005b55760008155600101620005ba565b60805160a05160c05160e05161010051610120516139b76200063860003980610a075250806110dd52806115125250806109df5280610a7e528061155a5250806110b7528061153652508061075752806107cd52508061079d528061129052506139b76000f3fe60806040523480156200001157600080fd5b5060043610620001605760003560e01c806386cb35d011620000cf57806386cb35d0146200037a5780638a0ef184146200038457806395d89b4114620003bf5780639951d62f14620003c9578063a18b506b14620003f8578063a3eb2b4a1462000421578063a4caeb421462000452578063b7bc0f73146200045c578063be0522e01462000466578063d62fd9a21462000470578063eae4c19f14620006a6578063ef78d4fd14620006b0578063fc22a9f814620006ba5762000160565b806306fdde0314620001655780631f2dc5ef14620001e757806328d249fe14620002035780632a93834214620002485780632e4c697f146200026e5780633fbd653c14620002945780635a1f740614620002a057806361c4b42114620002dd57806370dea79a14620002fd57806377ed63c214620003075780637f501d041462000350578063863623bb1462000370575b600080fd5b6200016f620006c4565b6040805160208082528351818301528351919283929083019185019080838360005b83811015620001ab57818101518382015260200162000191565b50505050905090810190601f168015620001d95780820380516001836020036101000a031916815260200191505b509250505060405180910390f35b620001f162000755565b60408051918252519081900360200190f35b6200022c600480360360208110156200021b57600080fd5b50356001600160a01b031662000779565b604080516001600160a01b039092168252519081900360200190f35b620001f1600480360360408110156200026057600080fd5b508035906020013562000794565b620001f1600480360360408110156200028657600080fd5b508035906020013562000818565b6200029e620008d8565b005b620002c960048036036020811015620002b857600080fd5b50356001600160a01b0316620009c2565b604080519115158252519081900360200190f35b620001f160048036036020811015620002f557600080fd5b5035620009d7565b620001f162000a05565b62000330600480360360208110156200031f57600080fd5b50356001600160a01b031662000a29565b604080519315158452602084019290925282820152519081900360600190f35b6200022c600480360360208110156200036857600080fd5b503562000a4e565b620001f162000a76565b620001f162000ab2565b620001f1600480360360608110156200039c57600080fd5b506001600160a01b03813581169160208101358216916040909101351662000ae9565b6200016f62000e25565b6200029e60048036036040811015620003e157600080fd5b506001600160a01b03813516906020013562000e83565b6200022c600480360360208110156200041057600080fd5b50356001600160a01b031662001077565b620001f1600480360360408110156200043957600080fd5b506001600160a01b038135811691602001351662001092565b620001f1620010af565b6200029e62001102565b620001f16200128e565b6200029e600480360360808110156200048857600080fd5b810190602081018135600160201b811115620004a357600080fd5b820183602082011115620004b657600080fd5b803590602001918460208302840111600160201b83111715620004d857600080fd5b9190808060200260200160405190810160405280939291908181526020018383602002808284376000920191909152509295949360208101935035915050600160201b8111156200052857600080fd5b8201836020820111156200053b57600080fd5b803590602001918460208302840111600160201b831117156200055d57600080fd5b9190808060200260200160405190810160405280939291908181526020018383602002808284376000920191909152509295949360208101935035915050600160201b811115620005ad57600080fd5b820183602082011115620005c057600080fd5b803590602001918460208302840111600160201b83111715620005e257600080fd5b9190808060200260200160405190810160405280939291908181526020018383602002808284376000920191909152509295949360208101935035915050600160201b8111156200063257600080fd5b8201836020820111156200064557600080fd5b803590602001918460208302840111600160201b831117156200066757600080fd5b919080806020026020016040519081016040528093929190818152602001838360200280828437600092019190915250929550620012b2945050505050565b620001f162001510565b620001f162001534565b620001f162001558565b60018054604080516020600284861615610100026000190190941693909304601f810184900484028201840190925281815292918301828280156200074d5780601f1062000721576101008083540402835291602001916200074d565b820191906000526020600020905b8154815290600101906020018083116200072f57829003601f168201915b505050505081565b7f000000000000000000000000000000000000000000000000000000000000000081565b6002602052600090815260409020546001600160a01b031681565b600080620007c37f00000000000000000000000000000000000000000000000000000000000000008462000818565b90506000620007f37f00000000000000000000000000000000000000000000000000000000000000008562000818565b90506200080d8162000806878562001646565b906200157c565b925050505b92915050565b600082620008295750600062000812565b81620008385750600162000812565b81600114156200084a57508162000812565b60015b6001831115620008c45762000864836002620015e2565b6200088c5762000875848062001646565b9350620008848360026200157c565b9250620008be565b62000898848262001646565b9050620008a6848062001646565b9350620008bb600262000806856001620016a4565b92505b6200084d565b620008d0848262001646565b949350505050565b336000908152600260205260409020546001600160a01b0316156200092f5760405162461bcd60e51b815260040180806020018281038252602b8152602001806200390b602b913960400191505060405180910390fd5b3360009081526004602052604090205460ff1615620009805760405162461bcd60e51b815260040180806020018281038252602a815260200180620037a9602a913960400191505060405180910390fd5b33600081815260046020526040808220805460ff19166001179055517fb0b94cff8b84fc67513b977d68a5cdd67550bd9b8d99a34b570e3367b78437869190a2565b60046020526000908152604090205460ff1681565b6000620008127f00000000000000000000000000000000000000000000000000000000000000008362000794565b7f000000000000000000000000000000000000000000000000000000000000000081565b60066020526000908152604090208054600182015460029092015460ff909116919083565b6007818154811062000a5c57fe5b6000918252602090912001546001600160a01b0316905081565b600062000aad7f000000000000000000000000000000000000000000000000000000000000000062000aa7620010af565b62000794565b905090565b604080514260208083019190915282518083038201815291830190925280519101206103e89006670de0b6b3a76400000260010190565b6001600160a01b03808216600090815260056020908152604080832093871683529290529081205462000b1f5750600062000e1e565b6001600160a01b038281166000908152600260205260409020541615801562000b6157506001600160a01b03821660009081526004602052604090205460ff16155b1562000b705750600062000e1e565b6001600160a01b038481166000908152600260205260409020541662000b995750600062000e1e565b6001600160a01b0380851660009081526002602090815260408083205481516370a0823160e01b815288861660048201529151939416926370a0823192602480840193919291829003018186803b15801562000bf457600080fd5b505afa15801562000c09573d6000803e3d6000fd5b505050506040513d602081101562000c2057600080fd5b505190506001600160a01b03858116908416148062000c5757506001600160a01b03831660009081526004602052604090205460ff165b1562000c6557905062000e1e565b6001600160a01b0380861660009081526002602090815260408083205481516370a0823160e01b815288861660048201529151939416926370a0823192602480840193919291829003018186803b15801562000cc057600080fd5b505afa15801562000cd5573d6000803e3d6000fd5b505050506040513d602081101562000cec57600080fd5b50516001600160a01b0380861660008181526005602090815260408083208c86168452825280832054848452600283528184205482516370a0823160e01b815260048101969096529151969750606496939562000da695889562000806959394909216926370a0823192602480840193829003018186803b15801562000d7157600080fd5b505afa15801562000d86573d6000803e3d6000fd5b505050506040513d602081101562000d9d57600080fd5b50519062001646565b90508281101562000dbf57600094505050505062000e1e565b6001600160a01b038087166000908152600560209081526040808320938c1683529290529081205462000e08908490620008069062000e00908390620016a4565b879062001646565b905062000e168282620016a4565b955050505050505b9392505050565b6000805460408051602060026001851615610100026000190190941693909304601f810184900484028201840190925281815292918301828280156200074d5780601f1062000721576101008083540402835291602001916200074d565b336000908152600260205260409020546001600160a01b031615158062000eb957503360009081526004602052604090205460ff165b62000ef65760405162461bcd60e51b8152600401808060200182810382526031815260200180620037d36031913960400191505060405180910390fd5b336001600160a01b038316141562000f52576040805162461bcd60e51b815260206004820152601a6024820152792cb7ba9031b0b713ba103ab73a393ab9ba103cb7bab939b2b63360311b604482015290519081900360640190fd5b6001600160a01b03821660009081526004602052604090205460ff161562000fc1576040805162461bcd60e51b815260206004820152601f60248201527f596f752063616e277420747275737420616e206f7267616e697a6174696f6e00604482015290519081900360640190fd5b6064811115620010035760405162461bcd60e51b8152600401808060200182810382526025815260200180620038bd6025913960400191505060405180910390fd5b3360009081526004602052604090205460ff161562001067578015806200102a5750806064145b620010675760405162461bcd60e51b81526004018080602001828103825260218152602001806200387b6021913960400191505060405180910390fd5b62001073828262001702565b5050565b6003602052600090815260409020546001600160a01b031681565b600560209081526000928352604080842090915290825290205481565b600062000aad7f000000000000000000000000000000000000000000000000000000000000000062000806427f0000000000000000000000000000000000000000000000000000000000000000620016a4565b336000908152600260205260409020546001600160a01b03161562001168576040805162461bcd60e51b8152602060048201526017602482015276596f752063616e2774207369676e20757020747769636560481b604482015290519081900360640190fd5b3360009081526004602052604090205460ff1615620011b95760405162461bcd60e51b815260040180806020018281038252602b81526020018062003936602b913960400191505060405180910390fd5b600033604051620011ca9062001ec1565b6001600160a01b03909116815260405190819003602001906000f080158015620011f8573d6000803e3d6000fd5b5033600081815260026020908152604080832080546001600160a01b0387166001600160a01b0319918216811790925590845260039092529091208054909116821790559091506200124c90606462001702565b604080516001600160a01b0383168152905133917f358ba8f768af134eb5af120e9a61dc1ef29b29f597f047b555fc3675064a0342919081900360200190a250565b7f000000000000000000000000000000000000000000000000000000000000000081565b8351825114620012f45760405162461bcd60e51b815260040180806020018281038252602a81526020018062003804602a913960400191505060405180910390fd5b8351835114620013365760405162461bcd60e51b8152600401808060200182810382526029815260200180620037806029913960400191505060405180910390fd5b8351815114620013785760405162461bcd60e51b815260040180806020018281038252602c8152602001806200382e602c913960400191505060405180910390fd5b60005b8351811015620014fd5760008482815181106200139457fe5b602002602001015190506000848381518110620013ad57fe5b602002602001015190506000878481518110620013c657fe5b602002602001015190506000858581518110620013df57fe5b602002602001015190506000620013f883868662000ae9565b90508082111562001447576040805162461bcd60e51b8152602060048201526014602482015273151c9d5cdd081b1a5b5a5d08195e18d95959195960621b604482015290519081900360640190fd5b6200145485858462001764565b6001600160a01b0380841660009081526002602090815260408083205481516308299c0f60e21b81528a8616600482015289861660248201526044810188905291519416936320a6703c93606480840194938390030190829087803b158015620014bd57600080fd5b505af1158015620014d2573d6000803e3d6000fd5b505050506040513d6020811015620014e957600080fd5b5050600190950194506200137b9350505050565b506200150a835162001919565b50505050565b7f000000000000000000000000000000000000000000000000000000000000000081565b7f000000000000000000000000000000000000000000000000000000000000000081565b7f000000000000000000000000000000000000000000000000000000000000000081565b6000808211620015d0576040805162461bcd60e51b815260206004820152601a602482015279536166654d6174683a206469766973696f6e206279207a65726f60301b604482015290519081900360640190fd5b818381620015da57fe5b049392505050565b600080821162001634576040805162461bcd60e51b8152602060048201526018602482015277536166654d6174683a206d6f64756c6f206279207a65726f60401b604482015290519081900360640190fd5b8183816200163e57fe5b069392505050565b600082620016575750600062000812565b828202828482816200166557fe5b041462000e1e5760405162461bcd60e51b81526004018080602001828103825260218152602001806200385a6021913960400191505060405180910390fd5b600082821115620016fc576040805162461bcd60e51b815260206004820152601e60248201527f536166654d6174683a207375627472616374696f6e206f766572666c6f770000604482015290519081900360640190fd5b50900390565b3360008181526005602090815260408083206001600160a01b03871680855290835292819020859055805185815290519293927fe60c754dd8ab0b1b5fccba257d6ebcd7d09e360ab7dd7a6e58198ca1f57cdcec929181900390910190a35050565b6001600160a01b03831660009081526006602052604090205460ff1615620017d0576001600160a01b038316600090815260066020526040902060010154620017ae908262001e68565b6001600160a01b0384166000908152600660205260409020600101556200183b565b6001600160a01b0383166000818152600660205260408120805460ff1916600190811782559081018490556007805491820181559091527fa66cc928b5edb82af9bd49922954155ab7b0942694bea4ce44661d9a8736c6880180546001600160a01b03191690911790555b6001600160a01b03821660009081526006602052604090205460ff1615620018a7576001600160a01b03821660009081526006602052604090206002015462001885908262001e68565b6001600160a01b03831660009081526006602052604090206002015562001914565b6001600160a01b0382166000818152600660205260408120805460ff19166001908117825560029091018490556007805491820181559091527fa66cc928b5edb82af9bd49922954155ab7b0942694bea4ce44661d9a8736c6880180546001600160a01b03191690911790555b505050565b60008060005b60075481101562001b15576200193462001ecf565b60066000600784815481106200194657fe5b60009182526020808320909101546001600160a01b0316835282810193909352604091820190208151606081018352815460ff161515815260018201549381018490526002909101549181018290529250101562001a77576001600160a01b03841615620019e65760405162461bcd60e51b81526004018080602001828103825260218152602001806200389c6021913960400191505060405180910390fd5b336001600160a01b031660078381548110620019fe57fe5b6000918252602090912001546001600160a01b03161462001a515760405162461bcd60e51b8152600401808060200182810382526029815260200180620038e26029913960400191505060405180910390fd5b6007828154811062001a5f57fe5b6000918252602090912001546001600160a01b031693505b80602001518160400151111562001b0b576001600160a01b0383161562001ae5576040805162461bcd60e51b815260206004820181905260248201527f506174682073656e647320746f206d6f7265207468616e206f6e652064657374604482015290519081900360640190fd5b6007828154811062001af357fe5b6000918252602090912001546001600160a01b031692505b506001016200191f565b506001600160a01b03821662001b70576040805162461bcd60e51b815260206004820152601b60248201527a5472616e73616374696f6e206d757374206861766520612073726360281b604482015290519081900360640190fd5b6001600160a01b03811662001bcc576040805162461bcd60e51b815260206004820152601c60248201527f5472616e73616374696f6e206d75737420686176652061206465737400000000604482015290519081900360640190fd5b6001600160a01b0382166000908152600660205260409020600201541562001c31576040805162461bcd60e51b815260206004820152601360248201527253656e64657220697320726563656976696e6760681b604482015290519081900360640190fd5b6001600160a01b0381166000908152600660205260409020600101541562001c97576040805162461bcd60e51b8152602060048201526014602482015273526563697069656e742069732073656e64696e6760601b604482015290519081900360640190fd5b6001600160a01b038082166000908152600660205260408082206002015492851682529020600101541462001cfe5760405162461bcd60e51b8152600401808060200182810382526021815260200180620039616021913960400191505060405180910390fd5b60075460018401101562001d53576040805162461bcd60e51b81526020600482015260176024820152765365656e20746f6f206d616e792061646472657373657360481b604482015290519081900360640190fd5b6001600160a01b038281166000818152600660209081526040918290206001015482519081529151938516937f8451019aab65b4193860ef723cb0d56b475a26a72b7bfc55c1dbd6121015285a9281900390910190a36007545b6001811062001e0c57600660006007600184038154811062001dcb57fe5b60009182526020808320909101546001600160a01b031683528201929092526040018120805460ff1916815560018101829055600201556000190162001dad565b5062001e1b6007600062001ef2565b6007541562001914576040805162461bcd60e51b81526020600482015260146024820152735365656e2073686f756c6420626520656d70747960601b604482015290519081900360640190fd5b60008282018381101562000e1e576040805162461bcd60e51b815260206004820152601b60248201527a536166654d6174683a206164646974696f6e206f766572666c6f7760281b604482015290519081900360640190fd5b61184f8062001f3183390190565b604051806060016040528060001515815260200160008152602001600081525090565b508054600082559060005260206000209081019062001f12919062001f15565b50565b5b8082111562001f2c576000815560010162001f16565b509056fe60c0604052600960f91b6080523480156200001957600080fd5b506040516200184f3803806200184f833981810160405260208110156200003f57600080fd5b50516001600160a01b0381166200005557600080fd5b6001600160601b0319606082901b1660a052600680546001600160a01b031916331790556200008362000192565b6005556200009062000196565b6007556006546040805163863623bb60e01b815290516001600160a01b039092169163863623bb91600480820192602092909190829003018186803b158015620000d957600080fd5b505afa158015620000ee573d6000803e3d6000fd5b505050506040513d60208110156200010557600080fd5b50516008556006546040805163086cb35d60e41b815290516200018b9284926001600160a01b03909116916386cb35d091600480820192602092909190829003018186803b1580156200015757600080fd5b505afa1580156200016c573d6000803e3d6000fd5b505050506040513d60208110156200018357600080fd5b505162000215565b506200054e565b4290565b600080620001ea620001a762000324565b620001b8620001cc6001826200039d565b620003e360201b62000c021790919060201c565b620001d662000447565b6200048d60201b62000c5a1790919060201c565b90506200020f620001fa62000192565b82620004eb60201b62000cb31790919060201c565b91505090565b6001600160a01b03821662000271576040805162461bcd60e51b815260206004820152601f60248201527f45524332303a206d696e7420746f20746865207a65726f206164647265737300604482015290519081900360640190fd5b6200027f6000838362000549565b6200029b81600254620003e360201b62000c021790919060201c565b6002556001600160a01b03821660009081526020818152604090912054620002ce91839062000c02620003e3821b17901c565b6001600160a01b0383166000818152602081815260408083209490945583518581529351929391927fddf252ad1be2c89b69c2b068fc378daa952ba7f163c4a11628f55a4df523b3ef9281900390910190a35050565b6006546040805163eae4c19f60e01b815290516000926001600160a01b03169163eae4c19f916004808301926020929190829003018186803b1580156200036a57600080fd5b505afa1580156200037f573d6000803e3d6000fd5b505050506040513d60208110156200039657600080fd5b5051905090565b6006546040805163526575a160e11b815290516000926001600160a01b03169163a4caeb42916004808301926020929190829003018186803b1580156200036a57600080fd5b6000828201838110156200043e576040805162461bcd60e51b815260206004820152601b60248201527f536166654d6174683a206164646974696f6e206f766572666c6f770000000000604482015290519081900360640190fd5b90505b92915050565b6006546040805163ef78d4fd60e01b815290516000926001600160a01b03169163ef78d4fd916004808301926020929190829003018186803b1580156200036a57600080fd5b6000826200049e5750600062000441565b82820282848281620004ac57fe5b04146200043e5760405162461bcd60e51b81526004018080602001828103825260218152602001806200182e6021913960400191505060405180910390fd5b60008282111562000543576040805162461bcd60e51b815260206004820152601e60248201527f536166654d6174683a207375627472616374696f6e206f766572666c6f770000604482015290519081900360640190fd5b50900390565b505050565b60805160f81c60a05160601c6112ac620005826000398061058952806109bc5280610ac45250806106ac52506112ac6000f3fe608060405234801561001057600080fd5b50600436106101645760003560e01c80636c050eae116100c95780636c050eae1461034c57806370a082311461035457806370dea79a1461037a57806375f12b21146103825780638b4eed811461038a5780638da5cb5b1461039257806395d89b411461039a578063a2e62045146103a2578063a457c2d7146103aa578063a4caeb42146103d6578063a9059cbb146103de578063d40480891461040a578063dd62ed3e14610412578063ef78d4fd1461044057610164565b806306fdde031461016957806307da68f5146101e6578063095ea7b3146101f05780630b0aaf2714610230578063107129dd1461024a57806316ada5471461025257806318160ddd1461025a57806320a6703c1461026257806323b872dd14610298578063313ce567146102ce578063365a86fc146102ec57806339509351146103105780633b6fe91f1461033c57806341c3054614610344575b600080fd5b610171610448565b6040805160208082528351818301528351919283929083019185019080838360005b838110156101ab578181015183820152602001610193565b50505050905090810190601f1680156101d85780820380516001836020036101000a031916815260200191505b509250505060405180910390f35b6101ee61057e565b005b61021c6004803603604081101561020657600080fd5b506001600160a01b0381351690602001356105c2565b604080519115158252519081900360200190f35b6102386105d9565b60408051918252519081900360200190f35b610238610605565b61023861060b565b61023861060f565b61021c6004803603606081101561027857600080fd5b506001600160a01b03813581169160208101359091169060400135610615565b61021c600480360360608110156102ae57600080fd5b506001600160a01b03813581169160208101359091169060400135610641565b6102d66106aa565b6040805160ff9092168252519081900360200190f35b6102f46106ce565b604080516001600160a01b039092168252519081900360200190f35b61021c6004803603604081101561032657600080fd5b506001600160a01b0381351690602001356106dd565b610238610713565b610238610789565b6102386107d5565b6102386004803603602081101561036a57600080fd5b50356001600160a01b031661090b565b610238610926565b61021c61096b565b6102386109b4565b6102f46109ba565b6101716109de565b6101ee610a23565b61021c600480360360408110156103c057600080fd5b506001600160a01b038135169060200135610aec565b610238610b3b565b61021c600480360360408110156103f457600080fd5b506001600160a01b038135169060200135610b80565b610238610b8c565b6102386004803603604081101561042857600080fd5b506001600160a01b0381358116916020013516610b92565b610238610bbd565b600654604080516306fdde0360e01b815290516060926001600160a01b0316916306fdde03916004808301926000929190829003018186803b15801561048d57600080fd5b505afa1580156104a1573d6000803e3d6000fd5b505050506040513d6000823e601f3d908101601f1916820160405260208110156104ca57600080fd5b8101908080516040519392919084600160201b8211156104e957600080fd5b9083019060208201858111156104fe57600080fd5b8251600160201b81118282018810171561051757600080fd5b82525081516020918201929091019080838360005b8381101561054457818101518382015260200161052c565b50505050905090810190601f1680156105715780820380516001836020036101000a031916815260200191505b5060405250505090505b90565b336001600160a01b037f000000000000000000000000000000000000000000000000000000000000000016146105b357600080fd5b6009805460ff19166001179055565b60006105cf338484610d10565b5060015b92915050565b60006106006105e6610bbd565b6105fa6105f1610713565b60055490610cb3565b90610dfc565b905090565b60075481565b4290565b60025490565b6006546000906001600160a01b0316331461062f57600080fd5b61063a848484610e60565b9392505050565b600061064e848484610e60565b6106a0843361069b856040518060600160405280602881526020016111e1602891396001600160a01b038a1660009081526001602090815260408083203384529091529020549190610fbb565b610d10565b5060019392505050565b7f000000000000000000000000000000000000000000000000000000000000000081565b6006546001600160a01b031681565b3360008181526001602090815260408083206001600160a01b038716845290915281205490916105cf91859061069b9086610c02565b6006546040805163eae4c19f60e01b815290516000926001600160a01b03169163eae4c19f916004808301926020929190829003018186803b15801561075857600080fd5b505afa15801561076c573d6000803e3d6000fd5b505050506040513d602081101561078257600080fd5b5051905090565b6000806107bb610797610713565b6107a76107ad60016107a7610b3b565b90610c02565b6107b5610bbd565b90610c5a565b90506107cf6107c861060b565b8290610cb3565b91505090565b60006107df61096b565b156107ec5750600061057b565b6005546007546008546000929190836108036105d9565b90505b61080e61060b565b6108188585610c02565b116108d65761083161082a8484610c5a565b8690610c02565b945061083d8484610c02565b9350610847610bbd565b9250610854816001610c02565b600654604080516361c4b42160e01b81526004810184905290519293506001600160a01b03909116916361c4b42191602480820192602092909190829003018186803b1580156108a357600080fd5b505afa1580156108b7573d6000803e3d6000fd5b505050506040513d60208110156108cd57600080fd5b50519150610806565b60006108ea856108e461060b565b90610cb3565b90506109006108f98285610c5a565b8790610c02565b965050505050505090565b6001600160a01b031660009081526020819052604090205490565b6006546040805163386f53cd60e11b815290516000926001600160a01b0316916370dea79a916004808301926020929190829003018186803b15801561075857600080fd5b60095460009060ff16156109815750600161057b565b60006109916005546108e461060b565b905061099b610926565b8111156109ac57600191505061057b565b600091505090565b60055481565b7f000000000000000000000000000000000000000000000000000000000000000081565b600654604080516395d89b4160e01b815290516060926001600160a01b0316916395d89b41916004808301926000929190829003018186803b15801561048d57600080fd5b6000610a2d6107d5565b90508015610ae957610a3d610789565b600755610a4861060b565b6005556006546040805163863623bb60e01b815290516001600160a01b039092169163863623bb91600480820192602092909190829003018186803b158015610a9057600080fd5b505afa158015610aa4573d6000803e3d6000fd5b505050506040513d6020811015610aba57600080fd5b5051600855610ae97f000000000000000000000000000000000000000000000000000000000000000082611052565b50565b60006105cf338461069b85604051806060016040528060258152602001611252602591393360009081526001602090815260408083206001600160a01b038d1684529091529020549190610fbb565b6006546040805163526575a160e11b815290516000926001600160a01b03169163a4caeb42916004808301926020929190829003018186803b15801561075857600080fd5b600061063a8383611142565b60085481565b6001600160a01b03918216600090815260016020908152604080832093909416825291909152205490565b6006546040805163ef78d4fd60e01b815290516000926001600160a01b03169163ef78d4fd916004808301926020929190829003018186803b15801561075857600080fd5b60008282018381101561063a576040805162461bcd60e51b815260206004820152601b60248201527a536166654d6174683a206164646974696f6e206f766572666c6f7760281b604482015290519081900360640190fd5b600082610c69575060006105d3565b82820282848281610c7657fe5b041461063a5760405162461bcd60e51b81526004018080602001828103825260218152602001806111c06021913960400191505060405180910390fd5b600082821115610d0a576040805162461bcd60e51b815260206004820152601e60248201527f536166654d6174683a207375627472616374696f6e206f766572666c6f770000604482015290519081900360640190fd5b50900390565b6001600160a01b038316610d555760405162461bcd60e51b815260040180806020018281038252602481526020018061122e6024913960400191505060405180910390fd5b6001600160a01b038216610d9a5760405162461bcd60e51b81526004018080602001828103825260228152602001806111786022913960400191505060405180910390fd5b6001600160a01b03808416600081815260016020908152604080832094871680845294825291829020859055815185815291517f8c5be1e5ebec7d5bd14f71427d1e84f3dd0314c0f7b2291e5b200ac8c7c3b9259281900390910190a3505050565b6000808211610e4f576040805162461bcd60e51b815260206004820152601a602482015279536166654d6174683a206469766973696f6e206279207a65726f60301b604482015290519081900360640190fd5b818381610e5857fe5b049392505050565b6001600160a01b038316610ea55760405162461bcd60e51b81526004018080602001828103825260258152602001806112096025913960400191505060405180910390fd5b6001600160a01b038216610eea5760405162461bcd60e51b81526004018080602001828103825260238152602001806111556023913960400191505060405180910390fd5b610ef583838361114f565b610f328160405180606001604052806026815260200161119a602691396001600160a01b0386166000908152602081905260409020549190610fbb565b6001600160a01b038085166000908152602081905260408082209390935590841681522054610f619082610c02565b6001600160a01b038084166000818152602081815260409182902094909455805185815290519193928716927fddf252ad1be2c89b69c2b068fc378daa952ba7f163c4a11628f55a4df523b3ef92918290030190a3505050565b6000818484111561104a5760405162461bcd60e51b81526004018080602001828103825283818151815260200191508051906020019080838360005b8381101561100f578181015183820152602001610ff7565b50505050905090810190601f16801561103c5780820380516001836020036101000a031916815260200191505b509250505060405180910390fd5b505050900390565b6001600160a01b0382166110ad576040805162461bcd60e51b815260206004820152601f60248201527f45524332303a206d696e7420746f20746865207a65726f206164647265737300604482015290519081900360640190fd5b6110b96000838361114f565b6002546110c69082610c02565b6002556001600160a01b0382166000908152602081905260409020546110ec9082610c02565b6001600160a01b0383166000818152602081815260408083209490945583518581529351929391927fddf252ad1be2c89b69c2b068fc378daa952ba7f163c4a11628f55a4df523b3ef9281900390910190a35050565b60006105cf338484610e60565b50505056fe45524332303a207472616e7366657220746f20746865207a65726f206164647265737345524332303a20617070726f766520746f20746865207a65726f206164647265737345524332303a207472616e7366657220616d6f756e7420657863656564732062616c616e6365536166654d6174683a206d756c7469706c69636174696f6e206f766572666c6f7745524332303a207472616e7366657220616d6f756e74206578636565647320616c6c6f77616e636545524332303a207472616e736665722066726f6d20746865207a65726f206164647265737345524332303a20617070726f76652066726f6d20746865207a65726f206164647265737345524332303a2064656372656173656420616c6c6f77616e63652062656c6f77207a65726fa264697066735822122051c000f2df5c66e8cfd7c8ea16961293cebc648da3d52943fb0a0c8d93fc5ab564736f6c63430007010033536166654d6174683a206d756c7469706c69636174696f6e206f766572666c6f77546f6b656e73206172726179206c656e677468206d75737420657175616c2073726373206172726179596f752063616e2774207369676e20757020617320616e206f7267616e697a6174696f6e207477696365596f752063616e206f6e6c792074727573742070656f706c6520616674657220796f75277665207369676e656420757021546f6b656e73206172726179206c656e677468206d75737420657175616c206465737473206172726179546f6b656e73206172726179206c656e677468206d75737420657175616c20616d6f756e7473206172726179536166654d6174683a206d756c7469706c69636174696f6e206f766572666c6f7754727573742069732062696e61727920666f72206f7267616e697a6174696f6e73506174682073656e64732066726f6d206d6f7265207468616e206f6e65207372634c696d6974206d75737420626520612070657263656e74616765206f7574206f66203130305061746820646f65736e27742073656e642066726f6d207472616e73616374696f6e2073656e6465724e6f726d616c2075736572732063616e6e6f74207369676e7570206173206f7267616e697a6174696f6e734f7267616e697a6174696f6e732063616e6e6f74207369676e7570206173206e6f726d616c207573657273556e657175616c2073656e7420616e6420726563656976656420616d6f756e7473a2646970667358221220c66ed0f4844421744f4e05e52f872c5256ee9fc29235ad270905e766ebe148db64736f6c63430007010033536166654d6174683a206d756c7469706c69636174696f6e206f766572666c6f77",
  "immutableReferences": {
    "1140": [
      {
        "length": 32,
        "start": 1949
      },
      {
        "length": 32,
        "start": 4752
      }
    ],
    "1142": [
      {
        "length": 32,
        "start": 1879
      },
      {
        "length": 32,
        "start": 1997
      }
    ],
    "1144": [
      {
        "length": 32,
        "start": 4279
      },
      {
        "length": 32,
        "start": 5430
      }
    ],
    "1178": [
      {
        "length": 32,
        "start": 2527
      },
      {
        "length": 32,
        "start": 2686
      },
      {
        "length": 32,
        "start": 5466
      }
    ],
    "1180": [
      {
        "length": 32,
        "start": 4317
      },
      {
        "length": 32,
        "start": 5394
      }
    ],
    "1182": [
      {
        "length": 32,
        "start": 2567
      }
    ]
  },
  "source": "// SPDX-License-Identifier: AGPL\npragma solidity ^0.7.0;\n\nimport \"@openzeppelin/contracts/math/SafeMath.sol\";\nimport \"./Token.sol\";\n\ncontract Hub {\n    using SafeMath for uint256;\n\n    uint256 public immutable inflation; // the inflation rate expressed as 1 + percentage inflation, aka 7% inflation is 107\n    uint256 public immutable divisor; // the largest power of 10 the inflation rate can be divided by\n    uint256 public immutable period; // the amount of sections between inflation steps\n    string public symbol;\n    string public name;\n\n    //uint256 public immutable signupBonus; // a one-time payout made immediately on signup\n\n    // Gets a deterministic pseudo random signup bonus between 1 and 1000 CRC\n    function pseudoRandomSignupBonus() public view returns (uint256) {\n        uint randomHash = uint(keccak256(abi.encode(block.timestamp)));\n        return 1 + (randomHash % 1000) * 1000000000000000000;\n    }\n\n    uint256 public immutable initialIssuance; // the starting payout per second, this gets inflated by the inflation rate\n    uint256 public immutable deployedAt; // the timestamp this contract was deployed at\n    uint256 public immutable timeout; // longest a token can go without a ubi payout before it gets deactivated\n\n    mapping (address => Token) public userToToken;\n    mapping (address => address) public tokenToUser;\n    mapping (address => bool) public organizations;\n    mapping (address => mapping (address => uint256)) public limits;\n\n    event Signup(address indexed user, address token);\n    event OrganizationSignup(address indexed organization);\n    event Trust(address indexed canSendTo, address indexed user, uint256 limit);\n    event HubTransfer(address indexed from, address indexed to, uint256 amount);\n\n    // some data types used for validating transitive transfers\n    struct transferValidator {\n        bool seen;\n        uint256 sent;\n        uint256 received;\n    }\n    mapping (address => transferValidator) public validation;\n    address[] public seen;\n\n    constructor(\n        uint256 _inflation,\n        uint256 _period,\n        string memory _symbol,\n        string memory _name,\n        uint256 _signupBonus,\n        uint256 _initialIssuance,\n        uint256 _timeout\n    ) {\n        inflation = _inflation;\n        divisor = findDivisor(_inflation);\n        period = _period;\n        symbol = _symbol;\n        name = _name;\n        //signupBonus = _signupBonus;\n        initialIssuance = _initialIssuance;\n        deployedAt = block.timestamp;\n        timeout = _timeout;\n    }\n\n    /// @notice calculates the correct divisor for the given inflation rate\n    /// @dev the divisor is used to maintain precision when doing math with percentages\n    /// @param _inf the inflation rate\n    /// @return the largest power of ten the inflation rate can be divided by\n    function findDivisor(uint256 _inf) internal pure returns (uint256) {\n        uint256 iter = 0;\n        while (_inf.div(pow(10, iter)) > 9) {\n            iter += 1;\n        }\n        return pow(10, iter);\n    }\n\n    /// @notice helper function for finding the amount of inflation periods since this hub was deployed\n    /// @return the amount of periods since hub was deployed\n    function periods() public view returns (uint256) {\n        return (block.timestamp.sub(deployedAt)).div(period);\n    }\n\n    /// @notice calculates the current issuance rate per second\n    /// @dev current issuance is the initial issuance inflated by the amount of inflation periods since the hub was deployed\n    /// @return current issuance rate\n    function issuance() public view returns (uint256) {\n        return inflate(initialIssuance, periods());\n    }\n\n    /// @notice finds the inflation rate at a given inflation period\n    /// @param _periods the step to calculate the issuance rate at\n    /// @return inflation rate as of the given period\n    function issuanceByStep(uint256 _periods) public view returns (uint256) {\n        return inflate(initialIssuance, _periods);\n    }\n\n    /// @notice find the current issuance rate for any initial issuance and amount of periods\n    /// @dev this is basically the calculation for compound interest, with some adjustments because of integer math\n    /// @param _initial the starting issuance rate\n    /// @param _periods the step to calculate the issuance rate as of\n    /// @return initial issuance rate as if interest (inflation) has been compounded period times\n    function inflate(uint256 _initial, uint256 _periods) public view returns (uint256) {\n        // this returns P * (1 + r) ** t - which is a the formula for compound interest if\n        // interest is compounded only once per period\n        // in our case, currentIssuanceRate = initialIssuance * (inflation) ** periods\n        uint256 q = pow(inflation, _periods);\n        uint256 d = pow(divisor, _periods);\n        return (_initial.mul(q)).div(d);\n    }\n\n    /// @notice signup to this circles hub - create a circles token and join the trust graph\n    /// @dev signup is permanent, there's no way to unsignup\n    function signup() public {\n        // signup can only be called once\n        require(address(userToToken[msg.sender]) == address(0), \"You can't sign up twice\");\n        // organizations cannot sign up for a token\n        require(organizations[msg.sender] == false, \"Organizations cannot signup as normal users\");\n\n        Token token = new Token(msg.sender);\n        userToToken[msg.sender] = token;\n        tokenToUser[address(token)] = msg.sender;\n        // every user must trust themselves with a weight of 100\n        // this is so that all users accept their own token at all times\n        _trust(msg.sender, 100);\n\n        emit Signup(msg.sender, address(token));\n    }\n\n    /// @notice register an organization address with the hub and join the trust graph\n    /// @dev signup is permanent for organizations too, there's no way to unsignup\n    function organizationSignup() public {\n        // can't register as an organization if you have a token\n        require(address(userToToken[msg.sender]) == address(0), \"Normal users cannot signup as organizations\");\n        // can't register as an organization twice\n        require(organizations[msg.sender] == false, \"You can't sign up as an organization twice\");\n\n        organizations[msg.sender] = true;\n\n        emit OrganizationSignup(msg.sender);\n    }\n\n    /// @notice trust a user, calling this means you're able to receive tokens from this user transitively\n    /// @dev the trust graph is weighted and directed\n    /// @param user the user to be trusted\n    /// @param limit the amount this user is trusted, as a percentage of 100\n    function trust(address user, uint limit) public {\n        // only users who have signed up as tokens or organizations can enter the trust graph\n        require(address(userToToken[msg.sender]) != address(0) || organizations[msg.sender], \"You can only trust people after you've signed up!\");\n        // you must continue to trust yourself 100%\n        require(msg.sender != user, \"You can't untrust yourself\");\n        // organizations can't receive trust since they don't have their own token (ie. there's nothing to trust)\n        require(organizations[user] == false, \"You can't trust an organization\");\n        // must a percentage\n        require(limit <= 100, \"Limit must be a percentage out of 100\");\n        // organizations don't have a token to base send limits off of, so they can only trust at rates 0 or 100\n        if (organizations[msg.sender]) {\n            require(limit == 0 || limit == 100, \"Trust is binary for organizations\");\n        }\n        _trust(user, limit);\n    }\n\n    /// @dev used internally in both the trust function and signup\n    /// @param user the user to be trusted\n    /// @param limit the amount this user is trusted, as a percentage of 100\n    function _trust(address user, uint limit) internal {\n        limits[msg.sender][user] = limit;\n        emit Trust(msg.sender, user, limit);\n    }\n\n    /// @dev this is an implementation of exponentiation by squares\n    /// @param base the base to be used in the calculation\n    /// @param exponent the exponent to be used in the calculation\n    /// @return the result of the calculation\n    function pow(uint256 base, uint256 exponent) public pure returns (uint256) {\n        if (base == 0) {\n            return 0;\n        }\n        if (exponent == 0) {\n            return 1;\n        }\n        if (exponent == 1) {\n            return base;\n        }\n        uint256 y = 1;\n        while(exponent > 1) {\n            if(exponent.mod(2) == 0) {\n                base = base.mul(base);\n                exponent = exponent.div(2);\n            } else {\n                y = base.mul(y);\n                base = base.mul(base);\n                exponent = (exponent.sub(1)).div(2);\n            }\n        }\n        return base.mul(y);\n    }\n\n    /// @notice finds the maximum amount of a specific token that can be sent between two users\n    /// @dev the goal of this function is to always return a sensible number, it's used to validate transfer throughs, and also heavily in the graph/pathfinding services\n    /// @param tokenOwner the safe/owner that the token was minted to\n    /// @param src the sender of the tokens\n    /// @param dest the recipient of the tokens\n    /// @return the amount of tokenowner's token src can send to dest\n    function checkSendLimit(address tokenOwner, address src, address dest) public view returns (uint256) {\n\n        // there is no trust\n        if (limits[dest][tokenOwner] == 0) {\n            return 0;\n        }\n\n        // if dest hasn't signed up, they cannot trust anyone\n        if (address(userToToken[dest]) == address(0) && !organizations[dest] ) {\n            return 0;\n        }\n\n        //if the token doesn't exist, it can't be sent/accepted\n        if (address(userToToken[tokenOwner]) == address(0)) {\n            return 0;\n        }\n\n        uint256 srcBalance = userToToken[tokenOwner].balanceOf(src);\n\n        // if sending dest's token to dest, src can send 100% of their holdings\n        // for organizations, trust is binary - if trust is not 0, src can send 100% of their holdings\n        if (tokenOwner == dest || organizations[dest]) {\n            return srcBalance;\n        }\n\n        // find the amount dest already has of the token that's being sent\n        uint256 destBalance = userToToken[tokenOwner].balanceOf(dest);\n\n        uint256 oneHundred = 100;\n\n        // find the maximum possible amount based on dest's trust limit for this token\n        uint256 max = (userToToken[dest].balanceOf(dest).mul(limits[dest][tokenOwner])).div(oneHundred);\n\n        // if trustLimit has already been overriden by a direct transfer, nothing more can be sent\n        if (max < destBalance) return 0;\n\n        uint256 destBalanceScaled = destBalance.mul(oneHundred.sub(limits[dest][tokenOwner])).div(oneHundred);\n\n        // return the max amount dest is willing to hold minus the amount they already have\n        return max.sub(destBalanceScaled);\n    }\n\n    /// @dev builds the validation data structures, called for each transaction step of a transtive transactions\n    /// @param src the sender of a single transaction step\n    /// @param dest the recipient of a single transaction step\n    /// @param wad the amount being passed along a single transaction step\n    function buildValidationData(address src, address dest, uint wad) internal {\n        // the validation mapping has this format\n        // { address: {\n        //     seen: whether this user is part of the transaction,\n        //     sent: total amount sent by this user,\n        //     received: total amount received by this user,\n        //    }\n        // }\n        if (validation[src].seen != false) {\n            // if we have seen the addresses, increment their sent amounts\n            validation[src].sent = validation[src].sent.add(wad);\n        } else {\n            // if we haven't, add them to the validation mapping\n            validation[src].seen = true;\n            validation[src].sent = wad;\n            seen.push(src);\n        }\n        if (validation[dest].seen != false) {\n            // if we have seen the addresses, increment their sent amounts\n            validation[dest].received = validation[dest].received.add(wad);\n        } else {\n            // if we haven't, add them to the validation mapping\n            validation[dest].seen = true;\n            validation[dest].received = wad;\n            seen.push(dest);\n        }\n    }\n\n    /// @dev performs the validation for an attempted transitive transfer\n    /// @param steps the number of steps in the transitive transaction\n    function validateTransferThrough(uint256 steps) internal {\n        // a valid path has only one real sender and receiver\n        address src;\n        address dest;\n        // iterate through the array of all the addresses that were part of the transaction data\n        for (uint i = 0; i < seen.length; i++) {\n            transferValidator memory curr = validation[seen[i]];\n            // if the address sent more than they received, they are the sender\n            if (curr.sent > curr.received) {\n                // if we've already found a sender, transaction is invalid\n                require(src == address(0), \"Path sends from more than one src\");\n                // the real token sender must also be the transaction sender\n                require(seen[i] == msg.sender, \"Path doesn't send from transaction sender\");\n                src = seen[i];\n            }\n            // if the address received more than they sent, they are the recipient\n            if (curr.received > curr.sent) {\n                // if we've already found a recipient, transaction is invalid\n                require(dest == address(0), \"Path sends to more than one dest\");\n                dest = seen[i];\n            }\n        }\n        // a valid path has both a sender and a recipient\n        require(src != address(0), \"Transaction must have a src\");\n        require(dest != address(0), \"Transaction must have a dest\");\n        // sender should not recieve, recipient should not send\n        // by this point in the code, we should have one src and one dest and no one else's balance should change\n        require(validation[src].received == 0, \"Sender is receiving\");\n        require(validation[dest].sent == 0, \"Recipient is sending\");\n        // the total amounts sent and received by sender and recipient should match\n        require(validation[src].sent == validation[dest].received, \"Unequal sent and received amounts\");\n        // the maximum amount of addresses we should see is one more than steps in the path\n        require(seen.length <= steps + 1, \"Seen too many addresses\");\n        emit HubTransfer(src, dest, validation[src].sent);\n        // clean up the validation datastructures\n        for (uint i = seen.length; i >= 1; i--) {\n            delete validation[seen[i-1]];\n        }\n        delete seen;\n        // sanity check that we cleaned everything up correctly\n        require(seen.length == 0, \"Seen should be empty\");\n    }\n\n    /// @notice walks through tokenOwners, srcs, dests, and amounts array and executes transtive transfer\n    /// @dev tokenOwners[0], srcs[0], dests[0], and wads[0] constitute a transaction step\n    /// @param tokenOwners the owner of the tokens being sent in each transaction step\n    /// @param srcs the sender of each transaction step\n    /// @param dests the recipient of each transaction step\n    /// @param wads the amount for each transaction step\n    function transferThrough(\n        address[] memory tokenOwners,\n        address[] memory srcs,\n        address[] memory dests,\n        uint[] memory wads\n    ) public {\n        // all the arrays must be the same length\n        require(dests.length == tokenOwners.length, \"Tokens array length must equal dests array\");\n        require(srcs.length == tokenOwners.length, \"Tokens array length must equal srcs array\");\n        require(wads.length == tokenOwners.length, \"Tokens array length must equal amounts array\");\n        for (uint i = 0; i < srcs.length; i++) {\n            address src = srcs[i];\n            address dest = dests[i];\n            address tokenOwner = tokenOwners[i];\n            uint256 wad = wads[i];\n\n            // check that no trust limits are violated\n            uint256 max = checkSendLimit(tokenOwner, src, dest);\n            require(wad <= max, \"Trust limit exceeded\");\n\n            buildValidationData(src, dest, wad);\n\n            // go ahead and do the transfers now so that we don't have to walk through this array again\n            userToToken[tokenOwner].hubTransfer(src, dest, wad);\n        }\n        // this will revert if there are any problems found\n        validateTransferThrough(srcs.length);\n    }\n}\n\n",
  "sourcePath": "/mnt/d6120f27-3dfd-4906-94cc-f395883b3f8e/src/circles-contracts/contracts/Hub.sol",
  "compiler": {
    "name": "solc",
    "version": "0.7.1+commit.f4a555be.Emscripten.clang"
  },
  "schemaVersion": "3.4.7",
  "updatedAt": "2022-07-08T11:29:59.077Z",
  "devdoc": {
    "kind": "dev",
    "methods": {
      "checkSendLimit(address,address,address)": {
        "details": "the goal of this function is to always return a sensible number, it's used to validate transfer throughs, and also heavily in the graph/pathfinding services",
        "params": {
          "dest": "the recipient of the tokens",
          "src": "the sender of the tokens",
          "tokenOwner": "the safe/owner that the token was minted to"
        },
        "returns": {
          "_0": "the amount of tokenowner's token src can send to dest"
        }
      },
      "inflate(uint256,uint256)": {
        "details": "this is basically the calculation for compound interest, with some adjustments because of integer math",
        "params": {
          "_initial": "the starting issuance rate",
          "_periods": "the step to calculate the issuance rate as of"
        },
        "returns": {
          "_0": "initial issuance rate as if interest (inflation) has been compounded period times"
        }
      },
      "issuance()": {
        "details": "current issuance is the initial issuance inflated by the amount of inflation periods since the hub was deployed",
        "returns": {
          "_0": "current issuance rate"
        }
      },
      "issuanceByStep(uint256)": {
        "params": {
          "_periods": "the step to calculate the issuance rate at"
        },
        "returns": {
          "_0": "inflation rate as of the given period"
        }
      },
      "organizationSignup()": {
        "details": "signup is permanent for organizations too, there's no way to unsignup"
      },
      "periods()": {
        "returns": {
          "_0": "the amount of periods since hub was deployed"
        }
      },
      "pow(uint256,uint256)": {
        "details": "this is an implementation of exponentiation by squares",
        "params": {
          "base": "the base to be used in the calculation",
          "exponent": "the exponent to be used in the calculation"
        },
        "returns": {
          "_0": "the result of the calculation"
        }
      },
      "signup()": {
        "details": "signup is permanent, there's no way to unsignup"
      },
      "transferThrough(address[],address[],address[],uint256[])": {
        "details": "tokenOwners[0], srcs[0], dests[0], and wads[0] constitute a transaction step",
        "params": {
          "dests": "the recipient of each transaction step",
          "srcs": "the sender of each transaction step",
          "tokenOwners": "the owner of the tokens being sent in each transaction step",
          "wads": "the amount for each transaction step"
        }
      },
      "trust(address,uint256)": {
        "details": "the trust graph is weighted and directed",
        "params": {
          "limit": "the amount this user is trusted, as a percentage of 100",
          "user": "the user to be trusted"
        }
      }
    },
    "version": 1
  },
  "userdoc": {
    "kind": "user",
    "methods": {
      "checkSendLimit(address,address,address)": {
        "notice": "finds the maximum amount of a specific token that can be sent between two users"
      },
      "inflate(uint256,uint256)": {
        "notice": "find the current issuance rate for any initial issuance and amount of periods"
      },
      "issuance()": {
        "notice": "calculates the current issuance rate per second"
      },
      "issuanceByStep(uint256)": {
        "notice": "finds the inflation rate at a given inflation period"
      },
      "organizationSignup()": {
        "notice": "register an organization address with the hub and join the trust graph"
      },
      "periods()": {
        "notice": "helper function for finding the amount of inflation periods since this hub was deployed"
      },
      "signup()": {
        "notice": "signup to this circles hub - create a circles token and join the trust graph"
      },
      "transferThrough(address[],address[],address[],uint256[])": {
        "notice": "walks through tokenOwners, srcs, dests, and amounts array and executes transtive transfer"
      },
      "trust(address,uint256)": {
        "notice": "trust a user, calling this means you're able to receive tokens from this user transitively"
      }
    },
    "version": 1
  }
}