{
  "contractName": "MockHub",
  "abi": [
    {
      "inputs": [
        {
          "internalType": "uint256",
          "name": "_inflation",
          "type": "uint256"
        },
        {
          "internalType": "uint256",
          "name": "_period",
          "type": "uint256"
        },
        {
          "internalType": "string",
          "name": "_symbol",
          "type": "string"
        },
        {
          "internalType": "string",
          "name": "_name",
          "type": "string"
        },
        {
          "internalType": "uint256",
          "name": "_initialPayout",
          "type": "uint256"
        },
        {
          "internalType": "uint256",
          "name": "_startingRate",
          "type": "uint256"
        },
        {
          "internalType": "uint256",
          "name": "_timeout",
          "type": "uint256"
        }
      ],
      "stateMutability": "nonpayable",
      "type": "constructor"
    },
    {
      "anonymous": false,
      "inputs": [
        {
          "indexed": true,
          "internalType": "address",
          "name": "from",
          "type": "address"
        },
        {
          "indexed": true,
          "internalType": "address",
          "name": "to",
          "type": "address"
        },
        {
          "indexed": false,
          "internalType": "uint256",
          "name": "amount",
          "type": "uint256"
        }
      ],
      "name": "HubTransfer",
      "type": "event"
    },
    {
      "anonymous": false,
      "inputs": [
        {
          "indexed": true,
          "internalType": "address",
          "name": "organization",
          "type": "address"
        }
      ],
      "name": "OrganizationSignup",
      "type": "event"
    },
    {
      "anonymous": false,
      "inputs": [
        {
          "indexed": true,
          "internalType": "address",
          "name": "user",
          "type": "address"
        },
        {
          "indexed": false,
          "internalType": "address",
          "name": "token",
          "type": "address"
        }
      ],
      "name": "Signup",
      "type": "event"
    },
    {
      "anonymous": false,
      "inputs": [
        {
          "indexed": true,
          "internalType": "address",
          "name": "canSendTo",
          "type": "address"
        },
        {
          "indexed": true,
          "internalType": "address",
          "name": "user",
          "type": "address"
        },
        {
          "indexed": false,
          "internalType": "uint256",
          "name": "limit",
          "type": "uint256"
        }
      ],
      "name": "Trust",
      "type": "event"
    },
    {
      "inputs": [
        {
          "internalType": "address",
          "name": "tokenOwner",
          "type": "address"
        },
        {
          "internalType": "address",
          "name": "src",
          "type": "address"
        },
        {
          "internalType": "address",
          "name": "dest",
          "type": "address"
        }
      ],
      "name": "checkSendLimit",
      "outputs": [
        {
          "internalType": "uint256",
          "name": "",
          "type": "uint256"
        }
      ],
      "stateMutability": "view",
      "type": "function"
    },
    {
      "inputs": [],
      "name": "deployedAt",
      "outputs": [
        {
          "internalType": "uint256",
          "name": "",
          "type": "uint256"
        }
      ],
      "stateMutability": "view",
      "type": "function"
    },
    {
      "inputs": [],
      "name": "divisor",
      "outputs": [
        {
          "internalType": "uint256",
          "name": "",
          "type": "uint256"
        }
      ],
      "stateMutability": "view",
      "type": "function"
    },
    {
      "inputs": [
        {
          "internalType": "uint256",
          "name": "_initial",
          "type": "uint256"
        },
        {
          "internalType": "uint256",
          "name": "_periods",
          "type": "uint256"
        }
      ],
      "name": "inflate",
      "outputs": [
        {
          "internalType": "uint256",
          "name": "",
          "type": "uint256"
        }
      ],
      "stateMutability": "view",
      "type": "function"
    },
    {
      "inputs": [],
      "name": "inflation",
      "outputs": [
        {
          "internalType": "uint256",
          "name": "",
          "type": "uint256"
        }
      ],
      "stateMutability": "view",
      "type": "function"
    },
    {
      "inputs": [],
      "name": "initialIssuance",
      "outputs": [
        {
          "internalType": "uint256",
          "name": "",
          "type": "uint256"
        }
      ],
      "stateMutability": "view",
      "type": "function"
    },
    {
      "inputs": [],
      "name": "issuance",
      "outputs": [
        {
          "internalType": "uint256",
          "name": "",
          "type": "uint256"
        }
      ],
      "stateMutability": "view",
      "type": "function"
    },
    {
      "inputs": [
        {
          "internalType": "uint256",
          "name": "_periods",
          "type": "uint256"
        }
      ],
      "name": "issuanceByStep",
      "outputs": [
        {
          "internalType": "uint256",
          "name": "",
          "type": "uint256"
        }
      ],
      "stateMutability": "view",
      "type": "function"
    },
    {
      "inputs": [
        {
          "internalType": "address",
          "name": "",
          "type": "address"
        },
        {
          "internalType": "address",
          "name": "",
          "type": "address"
        }
      ],
      "name": "limits",
      "outputs": [
        {
          "internalType": "uint256",
          "name": "",
          "type": "uint256"
        }
      ],
      "stateMutability": "view",
      "type": "function"
    },
    {
      "inputs": [],
      "name": "name",
      "outputs": [
        {
          "internalType": "string",
          "name": "",
          "type": "string"
        }
      ],
      "stateMutability": "view",
      "type": "function"
    },
    {
      "inputs": [],
      "name": "organizationSignup",
      "outputs": [],
      "stateMutability": "nonpayable",
      "type": "function"
    },
    {
      "inputs": [
        {
          "internalType": "address",
          "name": "",
          "type": "address"
        }
      ],
      "name": "organizations",
      "outputs": [
        {
          "internalType": "bool",
          "name": "",
          "type": "bool"
        }
      ],
      "stateMutability": "view",
      "type": "function"
    },
    {
      "inputs": [],
      "name": "period",
      "outputs": [
        {
          "internalType": "uint256",
          "name": "",
          "type": "uint256"
        }
      ],
      "stateMutability": "view",
      "type": "function"
    },
    {
      "inputs": [],
      "name": "periods",
      "outputs": [
        {
          "internalType": "uint256",
          "name": "",
          "type": "uint256"
        }
      ],
      "stateMutability": "view",
      "type": "function"
    },
    {
      "inputs": [
        {
          "internalType": "uint256",
          "name": "base",
          "type": "uint256"
        },
        {
          "internalType": "uint256",
          "name": "exponent",
          "type": "uint256"
        }
      ],
      "name": "pow",
      "outputs": [
        {
          "internalType": "uint256",
          "name": "",
          "type": "uint256"
        }
      ],
      "stateMutability": "pure",
      "type": "function"
    },
    {
      "inputs": [
        {
          "internalType": "uint256",
          "name": "",
          "type": "uint256"
        }
      ],
      "name": "seen",
      "outputs": [
        {
          "internalType": "address",
          "name": "",
          "type": "address"
        }
      ],
      "stateMutability": "view",
      "type": "function"
    },
    {
      "inputs": [],
      "name": "signup",
      "outputs": [],
      "stateMutability": "nonpayable",
      "type": "function"
    },
    {
      "inputs": [],
      "name": "signupBonus",
      "outputs": [
        {
          "internalType": "uint256",
          "name": "",
          "type": "uint256"
        }
      ],
      "stateMutability": "view",
      "type": "function"
    },
    {
      "inputs": [],
      "name": "symbol",
      "outputs": [
        {
          "internalType": "string",
          "name": "",
          "type": "string"
        }
      ],
      "stateMutability": "view",
      "type": "function"
    },
    {
      "inputs": [],
      "name": "timeout",
      "outputs": [
        {
          "internalType": "uint256",
          "name": "",
          "type": "uint256"
        }
      ],
      "stateMutability": "view",
      "type": "function"
    },
    {
      "inputs": [
        {
          "internalType": "address",
          "name": "",
          "type": "address"
        }
      ],
      "name": "tokenToUser",
      "outputs": [
        {
          "internalType": "address",
          "name": "",
          "type": "address"
        }
      ],
      "stateMutability": "view",
      "type": "function"
    },
    {
      "inputs": [
        {
          "internalType": "address[]",
          "name": "tokenOwners",
          "type": "address[]"
        },
        {
          "internalType": "address[]",
          "name": "srcs",
          "type": "address[]"
        },
        {
          "internalType": "address[]",
          "name": "dests",
          "type": "address[]"
        },
        {
          "internalType": "uint256[]",
          "name": "wads",
          "type": "uint256[]"
        }
      ],
      "name": "transferThrough",
      "outputs": [],
      "stateMutability": "nonpayable",
      "type": "function"
    },
    {
      "inputs": [
        {
          "internalType": "address",
          "name": "user",
          "type": "address"
        },
        {
          "internalType": "uint256",
          "name": "limit",
          "type": "uint256"
        }
      ],
      "name": "trust",
      "outputs": [],
      "stateMutability": "nonpayable",
      "type": "function"
    },
    {
      "inputs": [
        {
          "internalType": "address",
          "name": "",
          "type": "address"
        }
      ],
      "name": "userToToken",
      "outputs": [
        {
          "internalType": "contract Token",
          "name": "",
          "type": "address"
        }
      ],
      "stateMutability": "view",
      "type": "function"
    },
    {
      "inputs": [
        {
          "internalType": "address",
          "name": "",
          "type": "address"
        }
      ],
      "name": "validation",
      "outputs": [
        {
          "internalType": "bool",
          "name": "seen",
          "type": "bool"
        },
        {
          "internalType": "uint256",
          "name": "sent",
          "type": "uint256"
        },
        {
          "internalType": "uint256",
          "name": "received",
          "type": "uint256"
        }
      ],
      "stateMutability": "view",
      "type": "function"
    },
    {
      "inputs": [],
      "name": "getSeen",
      "outputs": [
        {
          "internalType": "uint256",
          "name": "",
          "type": "uint256"
        }
      ],
      "stateMutability": "view",
      "type": "function"
    },
    {
      "inputs": [
        {
          "internalType": "address",
          "name": "user",
          "type": "address"
        }
      ],
      "name": "getValidation",
      "outputs": [
        {
          "internalType": "bool",
          "name": "",
          "type": "bool"
        },
        {
          "internalType": "uint256",
          "name": "",
          "type": "uint256"
        },
        {
          "internalType": "uint256",
          "name": "",
          "type": "uint256"
        }
      ],
      "stateMutability": "view",
      "type": "function"
    }
  ],
  "bytecode": "0x6101606040523480156200001257600080fd5b5060405162003aa438038062003aa4833981810160405260e08110156200003857600080fd5b815160208301516040808501805191519395929483019291846401000000008211156200006457600080fd5b9083019060208201858111156200007a57600080fd5b82516401000000008111828201881017156200009557600080fd5b82525081516020918201929091019080838360005b83811015620000c4578181015183820152602001620000aa565b50505050905090810190601f168015620000f25780820380516001836020036101000a031916815260200191505b50604052602001805160405193929190846401000000008211156200011657600080fd5b9083019060208201858111156200012c57600080fd5b82516401000000008111828201881017156200014757600080fd5b82525081516020918201929091019080838360005b83811015620001765781810151838201526020016200015c565b50505050905090810190601f168015620001a45780820380516001836020036101000a031916815260200191505b506040908152602082015190820151606090920151608089905290935090915086868686868686620001d6876200022f565b60a05260c08690528451620001f3906000906020880190620003e8565b50835162000209906001906020870190620003e8565b5060e0929092526101005242610120526101405250620004849950505050505050505050565b6000805b60096200025b62000246600a846200027f565b85620003b760201b620015e61790919060201c565b11156200026b5760010162000233565b62000278600a826200027f565b9392505050565b6000826200029057506000620003b1565b816200029f57506001620003b1565b8160011415620002b1575081620003b1565b60015b60018311156200039357620002d9600284620003cb60201b620015fa1790919060201c565b6200031d57620002f88485620003df60201b6200160e1790919060201c565b935062000315600284620003b760201b620015e61790919060201c565b92506200038d565b620003378185620003df60201b6200160e1790919060201c565b9050620003538485620003df60201b6200160e1790919060201c565b93506200038a600262000376600186620003e360201b620016121790919060201c565b620003b760201b620015e61790919060201c565b92505b620002b4565b620003ad8185620003df60201b6200160e1790919060201c565b9150505b92915050565b6000818381620003c357fe5b049392505050565b6000818381620003d757fe5b069392505050565b0290565b900390565b828054600181600116156101000203166002900490600052602060002090601f016020900481019282601f106200042b57805160ff19168380011785556200045b565b828001600101855582156200045b579182015b828111156200045b5782518255916020019190600101906200043e565b50620004699291506200046d565b5090565b5b808211156200046957600081556001016200046e565b60805160a05160c05160e0516101005161012051610140516135ae620004f660003980610aa8525080611147528061157c525080610a5c5280610b1f52806115c4525080610a8452508061112152806115a05250806107a2528061084452508061081452806112fa52506135ae6000f3fe60806040523480156200001157600080fd5b5060043610620001785760003560e01c80637f501d0411620000db5780637f501d0414620003a5578063863623bb14620003c55780638a0ef18414620003cf57806395d89b41146200040a5780639951d62f1462000414578063a18b506b1462000443578063a3eb2b4a146200046c578063a4caeb42146200049d578063b7bc0f7314620004a7578063be0522e014620004b1578063d62fd9a214620004bb578063eae4c19f14620006f1578063ef78d4fd14620006fb578063fc22a9f814620007055762000178565b806306fdde03146200017d5780631f2dc5ef14620001ff57806327cd4de1146200021b57806328d249fe14620002645780632a93834214620002a95780632e4c697f14620002cf5780633fbd653c14620002f55780634ee94b1d14620003015780635a1f7406146200030b57806361c4b421146200034857806367cb52d8146200036857806370dea79a146200037257806377ed63c2146200037c575b600080fd5b620001876200070f565b6040805160208082528351818301528351919283929083019185019080838360005b83811015620001c3578181015183820152602001620001a9565b50505050905090810190601f168015620001f15780820380516001836020036101000a031916815260200191505b509250505060405180910390f35b62000209620007a0565b60408051918252519081900360200190f35b62000244600480360360208110156200023357600080fd5b50356001600160a01b0316620007c4565b604080519315158452602084019290925282820152519081900360600190f35b6200028d600480360360208110156200027c57600080fd5b50356001600160a01b0316620007f0565b604080516001600160a01b039092168252519081900360200190f35b6200020960048036036040811015620002c157600080fd5b50803590602001356200080b565b6200020960048036036040811015620002e757600080fd5b50803590602001356200088f565b620002ff6200094f565b005b6200020962000a39565b62000334600480360360208110156200032357600080fd5b50356001600160a01b031662000a3f565b604080519115158252519081900360200190f35b62000209600480360360208110156200036057600080fd5b503562000a54565b6200020962000a82565b6200020962000aa6565b62000244600480360360208110156200039457600080fd5b50356001600160a01b031662000aca565b6200028d60048036036020811015620003bd57600080fd5b503562000aef565b6200020962000b17565b6200020960048036036060811015620003e757600080fd5b506001600160a01b03813581169160208101358216916040909101351662000b53565b6200018762000e8f565b620002ff600480360360408110156200042c57600080fd5b506001600160a01b03813516906020013562000eed565b6200028d600480360360208110156200045b57600080fd5b50356001600160a01b0316620010e1565b62000209600480360360408110156200048457600080fd5b506001600160a01b0381358116916020013516620010fc565b6200020962001119565b620002ff6200116c565b62000209620012f8565b620002ff60048036036080811015620004d357600080fd5b810190602081018135600160201b811115620004ee57600080fd5b8201836020820111156200050157600080fd5b803590602001918460208302840111600160201b831117156200052357600080fd5b9190808060200260200160405190810160405280939291908181526020018383602002808284376000920191909152509295949360208101935035915050600160201b8111156200057357600080fd5b8201836020820111156200058657600080fd5b803590602001918460208302840111600160201b83111715620005a857600080fd5b9190808060200260200160405190810160405280939291908181526020018383602002808284376000920191909152509295949360208101935035915050600160201b811115620005f857600080fd5b8201836020820111156200060b57600080fd5b803590602001918460208302840111600160201b831117156200062d57600080fd5b9190808060200260200160405190810160405280939291908181526020018383602002808284376000920191909152509295949360208101935035915050600160201b8111156200067d57600080fd5b8201836020820111156200069057600080fd5b803590602001918460208302840111600160201b83111715620006b257600080fd5b9190808060200260200160405190810160405280939291908181526020018383602002808284376000920191909152509295506200131c945050505050565b620002096200157a565b620002096200159e565b62000209620015c2565b60018054604080516020600284861615610100026000190190941693909304601f81018490048402820184019092528181529291830182828015620007985780601f106200076c5761010080835404028352916020019162000798565b820191906000526020600020905b8154815290600101906020018083116200077a57829003601f168201915b505050505081565b7f000000000000000000000000000000000000000000000000000000000000000081565b6001600160a01b031660009081526006602052604090208054600182015460029092015460ff90911692565b6002602052600090815260409020546001600160a01b031681565b6000806200083a7f0000000000000000000000000000000000000000000000000000000000000000846200088f565b905060006200086a7f0000000000000000000000000000000000000000000000000000000000000000856200088f565b905062000884816200087d87856200160e565b90620015e6565b925050505b92915050565b600082620008a05750600062000889565b81620008af5750600162000889565b8160011415620008c157508162000889565b60015b60018311156200093b57620008db836002620015fa565b6200090357620008ec84806200160e565b9350620008fb836002620015e6565b925062000935565b6200090f84826200160e565b90506200091d84806200160e565b93506200093260026200087d85600162001612565b92505b620008c4565b6200094784826200160e565b949350505050565b336000908152600260205260409020546001600160a01b031615620009a65760405162461bcd60e51b815260040180806020018281038252602b81526020018062003502602b913960400191505060405180910390fd5b3360009081526004602052604090205460ff1615620009f75760405162461bcd60e51b815260040180806020018281038252602a815260200180620033c1602a913960400191505060405180910390fd5b33600081815260046020526040808220805460ff19166001179055517fb0b94cff8b84fc67513b977d68a5cdd67550bd9b8d99a34b570e3367b78437869190a2565b60075490565b60046020526000908152604090205460ff1681565b6000620008897f0000000000000000000000000000000000000000000000000000000000000000836200080b565b7f000000000000000000000000000000000000000000000000000000000000000081565b7f000000000000000000000000000000000000000000000000000000000000000081565b60066020526000908152604090208054600182015460029092015460ff909116919083565b6007818154811062000afd57fe5b6000918252602090912001546001600160a01b0316905081565b600062000b4e7f000000000000000000000000000000000000000000000000000000000000000062000b4862001119565b6200080b565b905090565b6001600160a01b03808216600090815260056020908152604080832093871683529290529081205462000b895750600062000e88565b6001600160a01b038281166000908152600260205260409020541615801562000bcb57506001600160a01b03821660009081526004602052604090205460ff16155b1562000bda5750600062000e88565b6001600160a01b038481166000908152600260205260409020541662000c035750600062000e88565b6001600160a01b0380851660009081526002602090815260408083205481516370a0823160e01b815288861660048201529151939416926370a0823192602480840193919291829003018186803b15801562000c5e57600080fd5b505afa15801562000c73573d6000803e3d6000fd5b505050506040513d602081101562000c8a57600080fd5b505190506001600160a01b03858116908416148062000cc157506001600160a01b03831660009081526004602052604090205460ff165b1562000ccf57905062000e88565b6001600160a01b0380861660009081526002602090815260408083205481516370a0823160e01b815288861660048201529151939416926370a0823192602480840193919291829003018186803b15801562000d2a57600080fd5b505afa15801562000d3f573d6000803e3d6000fd5b505050506040513d602081101562000d5657600080fd5b50516001600160a01b0380861660008181526005602090815260408083208c86168452825280832054848452600283528184205482516370a0823160e01b815260048101969096529151969750606496939562000e109588956200087d959394909216926370a0823192602480840193829003018186803b15801562000ddb57600080fd5b505afa15801562000df0573d6000803e3d6000fd5b505050506040513d602081101562000e0757600080fd5b5051906200160e565b90508281101562000e2957600094505050505062000e88565b6001600160a01b038087166000908152600560209081526040808320938c1683529290529081205462000e729084906200087d9062000e6a90839062001612565b87906200160e565b905062000e80828262001612565b955050505050505b9392505050565b6000805460408051602060026001851615610100026000190190941693909304601f81018490048402820184019092528181529291830182828015620007985780601f106200076c5761010080835404028352916020019162000798565b336000908152600260205260409020546001600160a01b031615158062000f2357503360009081526004602052604090205460ff165b62000f605760405162461bcd60e51b8152600401808060200182810382526031815260200180620033eb6031913960400191505060405180910390fd5b336001600160a01b038316141562000fbc576040805162461bcd60e51b815260206004820152601a6024820152792cb7ba9031b0b713ba103ab73a393ab9ba103cb7bab939b2b63360311b604482015290519081900360640190fd5b6001600160a01b03821660009081526004602052604090205460ff16156200102b576040805162461bcd60e51b815260206004820152601f60248201527f596f752063616e277420747275737420616e206f7267616e697a6174696f6e00604482015290519081900360640190fd5b60648111156200106d5760405162461bcd60e51b8152600401808060200182810382526025815260200180620034b46025913960400191505060405180910390fd5b3360009081526004602052604090205460ff1615620010d157801580620010945750806064145b620010d15760405162461bcd60e51b8152600401808060200182810382526021815260200180620034726021913960400191505060405180910390fd5b620010dd828262001617565b5050565b6003602052600090815260409020546001600160a01b031681565b600560209081526000928352604080842090915290825290205481565b600062000b4e7f00000000000000000000000000000000000000000000000000000000000000006200087d427f000000000000000000000000000000000000000000000000000000000000000062001612565b336000908152600260205260409020546001600160a01b031615620011d2576040805162461bcd60e51b8152602060048201526017602482015276596f752063616e2774207369676e20757020747769636560481b604482015290519081900360640190fd5b3360009081526004602052604090205460ff1615620012235760405162461bcd60e51b815260040180806020018281038252602b8152602001806200352d602b913960400191505060405180910390fd5b600033604051620012349062001d81565b6001600160a01b03909116815260405190819003602001906000f08015801562001262573d6000803e3d6000fd5b5033600081815260026020908152604080832080546001600160a01b0387166001600160a01b031991821681179092559084526003909252909120805490911682179055909150620012b690606462001617565b604080516001600160a01b0383168152905133917f358ba8f768af134eb5af120e9a61dc1ef29b29f597f047b555fc3675064a0342919081900360200190a250565b7f000000000000000000000000000000000000000000000000000000000000000081565b83518251146200135e5760405162461bcd60e51b815260040180806020018281038252602a8152602001806200341c602a913960400191505060405180910390fd5b8351835114620013a05760405162461bcd60e51b8152600401808060200182810382526029815260200180620033986029913960400191505060405180910390fd5b8351815114620013e25760405162461bcd60e51b815260040180806020018281038252602c81526020018062003446602c913960400191505060405180910390fd5b60005b835181101562001567576000848281518110620013fe57fe5b6020026020010151905060008483815181106200141757fe5b6020026020010151905060008784815181106200143057fe5b6020026020010151905060008585815181106200144957fe5b6020026020010151905060006200146283868662000b53565b905080821115620014b1576040805162461bcd60e51b8152602060048201526014602482015273151c9d5cdd081b1a5b5a5d08195e18d95959195960621b604482015290519081900360640190fd5b620014be85858462001679565b6001600160a01b0380841660009081526002602090815260408083205481516308299c0f60e21b81528a8616600482015289861660248201526044810188905291519416936320a6703c93606480840194938390030190829087803b1580156200152757600080fd5b505af11580156200153c573d6000803e3d6000fd5b505050506040513d60208110156200155357600080fd5b505060019095019450620013e59350505050565b506200157483516200182e565b50505050565b7f000000000000000000000000000000000000000000000000000000000000000081565b7f000000000000000000000000000000000000000000000000000000000000000081565b7f000000000000000000000000000000000000000000000000000000000000000081565b6000818381620015f257fe5b049392505050565b60008183816200160657fe5b069392505050565b0290565b900390565b3360008181526005602090815260408083206001600160a01b03871680855290835292819020859055805185815290519293927fe60c754dd8ab0b1b5fccba257d6ebcd7d09e360ab7dd7a6e58198ca1f57cdcec929181900390910190a35050565b6001600160a01b03831660009081526006602052604090205460ff1615620016e5576001600160a01b038316600090815260066020526040902060010154620016c3908262001d7d565b6001600160a01b03841660009081526006602052604090206001015562001750565b6001600160a01b0383166000818152600660205260408120805460ff1916600190811782559081018490556007805491820181559091527fa66cc928b5edb82af9bd49922954155ab7b0942694bea4ce44661d9a8736c6880180546001600160a01b03191690911790555b6001600160a01b03821660009081526006602052604090205460ff1615620017bc576001600160a01b0382166000908152600660205260409020600201546200179a908262001d7d565b6001600160a01b03831660009081526006602052604090206002015562001829565b6001600160a01b0382166000818152600660205260408120805460ff19166001908117825560029091018490556007805491820181559091527fa66cc928b5edb82af9bd49922954155ab7b0942694bea4ce44661d9a8736c6880180546001600160a01b03191690911790555b505050565b60008060005b60075481101562001a2a576200184962001d8f565b60066000600784815481106200185b57fe5b60009182526020808320909101546001600160a01b0316835282810193909352604091820190208151606081018352815460ff16151581526001820154938101849052600290910154918101829052925010156200198c576001600160a01b03841615620018fb5760405162461bcd60e51b8152600401808060200182810382526021815260200180620034936021913960400191505060405180910390fd5b336001600160a01b0316600783815481106200191357fe5b6000918252602090912001546001600160a01b031614620019665760405162461bcd60e51b8152600401808060200182810382526029815260200180620034d96029913960400191505060405180910390fd5b600782815481106200197457fe5b6000918252602090912001546001600160a01b031693505b80602001518160400151111562001a20576001600160a01b03831615620019fa576040805162461bcd60e51b815260206004820181905260248201527f506174682073656e647320746f206d6f7265207468616e206f6e652064657374604482015290519081900360640190fd5b6007828154811062001a0857fe5b6000918252602090912001546001600160a01b031692505b5060010162001834565b506001600160a01b03821662001a85576040805162461bcd60e51b815260206004820152601b60248201527a5472616e73616374696f6e206d757374206861766520612073726360281b604482015290519081900360640190fd5b6001600160a01b03811662001ae1576040805162461bcd60e51b815260206004820152601c60248201527f5472616e73616374696f6e206d75737420686176652061206465737400000000604482015290519081900360640190fd5b6001600160a01b0382166000908152600660205260409020600201541562001b46576040805162461bcd60e51b815260206004820152601360248201527253656e64657220697320726563656976696e6760681b604482015290519081900360640190fd5b6001600160a01b0381166000908152600660205260409020600101541562001bac576040805162461bcd60e51b8152602060048201526014602482015273526563697069656e742069732073656e64696e6760601b604482015290519081900360640190fd5b6001600160a01b038082166000908152600660205260408082206002015492851682529020600101541462001c135760405162461bcd60e51b8152600401808060200182810382526021815260200180620035586021913960400191505060405180910390fd5b60075460018401101562001c68576040805162461bcd60e51b81526020600482015260176024820152765365656e20746f6f206d616e792061646472657373657360481b604482015290519081900360640190fd5b6001600160a01b038281166000818152600660209081526040918290206001015482519081529151938516937f8451019aab65b4193860ef723cb0d56b475a26a72b7bfc55c1dbd6121015285a9281900390910190a36007545b6001811062001d2157600660006007600184038154811062001ce057fe5b60009182526020808320909101546001600160a01b031683528201929092526040018120805460ff1916815560018101829055600201556000190162001cc2565b5062001d306007600062001db2565b6007541562001829576040805162461bcd60e51b81526020600482015260146024820152735365656e2073686f756c6420626520656d70747960601b604482015290519081900360640190fd5b0190565b6115a78062001df183390190565b604051806060016040528060001515815260200160008152602001600081525090565b508054600082559060005260206000209081019062001dd2919062001dd5565b50565b5b8082111562001dec576000815560010162001dd6565b509056fe60c0604052600960f91b6080523480156200001957600080fd5b50604051620015a7380380620015a7833981810160405260208110156200003f57600080fd5b50516001600160a01b0381166200005557600080fd5b6001600160601b0319606082901b1660a052600680546001600160a01b031916331790556200008362000192565b6005556200009062000196565b6007556006546040805163863623bb60e01b815290516001600160a01b039092169163863623bb91600480820192602092909190829003018186803b158015620000d957600080fd5b505afa158015620000ee573d6000803e3d6000fd5b505050506040513d60208110156200010557600080fd5b505160085560065460408051630cf96a5b60e31b815290516200018b9284926001600160a01b03909116916367cb52d891600480820192602092909190829003018186803b1580156200015757600080fd5b505afa1580156200016c573d6000803e3d6000fd5b505050506040513d60208110156200018357600080fd5b505162000215565b506200043b565b4290565b600080620001ea620001a762000324565b620001b8620001cc6001826200039d565b620003e360201b62000c011790919060201c565b620001d6620003e7565b6200042d60201b62000c051790919060201c565b90506200020f620001fa62000192565b826200043160201b62000c091790919060201c565b91505090565b6001600160a01b03821662000271576040805162461bcd60e51b815260206004820152601f60248201527f45524332303a206d696e7420746f20746865207a65726f206164647265737300604482015290519081900360640190fd5b6200027f6000838362000436565b6200029b81600254620003e360201b62000c011790919060201c565b6002556001600160a01b03821660009081526020818152604090912054620002ce91839062000c01620003e3821b17901c565b6001600160a01b0383166000818152602081815260408083209490945583518581529351929391927fddf252ad1be2c89b69c2b068fc378daa952ba7f163c4a11628f55a4df523b3ef9281900390910190a35050565b6006546040805163eae4c19f60e01b815290516000926001600160a01b03169163eae4c19f916004808301926020929190829003018186803b1580156200036a57600080fd5b505afa1580156200037f573d6000803e3d6000fd5b505050506040513d60208110156200039657600080fd5b5051905090565b6006546040805163526575a160e11b815290516000926001600160a01b03169163a4caeb42916004808301926020929190829003018186803b1580156200036a57600080fd5b0190565b6006546040805163ef78d4fd60e01b815290516000926001600160a01b03169163ef78d4fd916004808301926020929190829003018186803b1580156200036a57600080fd5b0290565b900390565b505050565b60805160f81c60a05160601c6111386200046f6000398061058952806109bb5280610ac35250806106ab52506111386000f3fe608060405234801561001057600080fd5b50600436106101645760003560e01c80636c050eae116100c95780636c050eae1461034c57806370a082311461035457806370dea79a1461037a57806375f12b21146103825780638b4eed811461038a5780638da5cb5b1461039257806395d89b411461039a578063a2e62045146103a2578063a457c2d7146103aa578063a4caeb42146103d6578063a9059cbb146103de578063d40480891461040a578063dd62ed3e14610412578063ef78d4fd1461044057610164565b806306fdde031461016957806307da68f5146101e6578063095ea7b3146101f05780630b0aaf2714610230578063107129dd1461024a57806316ada5471461025257806318160ddd1461025a57806320a6703c1461026257806323b872dd14610298578063313ce567146102ce578063365a86fc146102ec57806339509351146103105780633b6fe91f1461033c57806341c3054614610344575b600080fd5b610171610448565b6040805160208082528351818301528351919283929083019185019080838360005b838110156101ab578181015183820152602001610193565b50505050905090810190601f1680156101d85780820380516001836020036101000a031916815260200191505b509250505060405180910390f35b6101ee61057e565b005b61021c6004803603604081101561020657600080fd5b506001600160a01b0381351690602001356105c2565b604080519115158252519081900360200190f35b6102386105d8565b60408051918252519081900360200190f35b610238610604565b61023861060a565b61023861060e565b61021c6004803603606081101561027857600080fd5b506001600160a01b03813581169160208101359091169060400135610614565b61021c600480360360608110156102ae57600080fd5b506001600160a01b03813581169160208101359091169060400135610640565b6102d66106a9565b6040805160ff9092168252519081900360200190f35b6102f46106cd565b604080516001600160a01b039092168252519081900360200190f35b61021c6004803603604081101561032657600080fd5b506001600160a01b0381351690602001356106dc565b610238610712565b610238610788565b6102386107d4565b6102386004803603602081101561036a57600080fd5b50356001600160a01b031661090a565b610238610925565b61021c61096a565b6102386109b3565b6102f46109b9565b6101716109dd565b6101ee610a22565b61021c600480360360408110156103c057600080fd5b506001600160a01b038135169060200135610aeb565b610238610b3a565b61021c600480360360408110156103f457600080fd5b506001600160a01b038135169060200135610b7f565b610238610b8b565b6102386004803603604081101561042857600080fd5b506001600160a01b0381358116916020013516610b91565b610238610bbc565b600654604080516306fdde0360e01b815290516060926001600160a01b0316916306fdde03916004808301926000929190829003018186803b15801561048d57600080fd5b505afa1580156104a1573d6000803e3d6000fd5b505050506040513d6000823e601f3d908101601f1916820160405260208110156104ca57600080fd5b8101908080516040519392919084600160201b8211156104e957600080fd5b9083019060208201858111156104fe57600080fd5b8251600160201b81118282018810171561051757600080fd5b82525081516020918201929091019080838360005b8381101561054457818101518382015260200161052c565b50505050905090810190601f1680156105715780820380516001836020036101000a031916815260200191505b5060405250505090505b90565b336001600160a01b037f000000000000000000000000000000000000000000000000000000000000000016146105b357600080fd5b6009805460ff19166001179055565b60006105cf338484610c0e565b50600192915050565b60006105ff6105e5610bbc565b6105f96105f0610712565b60055490610c09565b90610cfa565b905090565b60075481565b4290565b60025490565b6006546000906001600160a01b0316331461062e57600080fd5b610639848484610d0d565b9392505050565b600061064d848484610d0d565b61069f843361069a8560405180606001604052806028815260200161106d602891396001600160a01b038a1660009081526001602090815260408083203384529091529020549190610e68565b610c0e565b5060019392505050565b7f000000000000000000000000000000000000000000000000000000000000000081565b6006546001600160a01b031681565b3360008181526001602090815260408083206001600160a01b038716845290915281205490916105cf91859061069a9086610c01565b6006546040805163eae4c19f60e01b815290516000926001600160a01b03169163eae4c19f916004808301926020929190829003018186803b15801561075757600080fd5b505afa15801561076b573d6000803e3d6000fd5b505050506040513d602081101561078157600080fd5b5051905090565b6000806107ba610796610712565b6107a66107ac60016107a6610b3a565b90610c01565b6107b4610bbc565b90610c05565b90506107ce6107c761060a565b8290610c09565b91505090565b60006107de61096a565b156107eb5750600061057b565b6005546007546008546000929190836108026105d8565b90505b61080d61060a565b6108178585610c01565b116108d5576108306108298484610c05565b8690610c01565b945061083c8484610c01565b9350610846610bbc565b9250610853816001610c01565b600654604080516361c4b42160e01b81526004810184905290519293506001600160a01b03909116916361c4b42191602480820192602092909190829003018186803b1580156108a257600080fd5b505afa1580156108b6573d6000803e3d6000fd5b505050506040513d60208110156108cc57600080fd5b50519150610805565b60006108e9856108e361060a565b90610c09565b90506108ff6108f88285610c05565b8790610c01565b965050505050505090565b6001600160a01b031660009081526020819052604090205490565b6006546040805163386f53cd60e11b815290516000926001600160a01b0316916370dea79a916004808301926020929190829003018186803b15801561075757600080fd5b60095460009060ff16156109805750600161057b565b60006109906005546108e361060a565b905061099a610925565b8111156109ab57600191505061057b565b600091505090565b60055481565b7f000000000000000000000000000000000000000000000000000000000000000081565b600654604080516395d89b4160e01b815290516060926001600160a01b0316916395d89b41916004808301926000929190829003018186803b15801561048d57600080fd5b6000610a2c6107d4565b90508015610ae857610a3c610788565b600755610a4761060a565b6005556006546040805163863623bb60e01b815290516001600160a01b039092169163863623bb91600480820192602092909190829003018186803b158015610a8f57600080fd5b505afa158015610aa3573d6000803e3d6000fd5b505050506040513d6020811015610ab957600080fd5b5051600855610ae87f000000000000000000000000000000000000000000000000000000000000000082610eff565b50565b60006105cf338461069a856040518060600160405280602581526020016110de602591393360009081526001602090815260408083206001600160a01b038d1684529091529020549190610e68565b6006546040805163526575a160e11b815290516000926001600160a01b03169163a4caeb42916004808301926020929190829003018186803b15801561075757600080fd5b60006106398383610fef565b60085481565b6001600160a01b03918216600090815260016020908152604080832093909416825291909152205490565b6006546040805163ef78d4fd60e01b815290516000926001600160a01b03169163ef78d4fd916004808301926020929190829003018186803b15801561075757600080fd5b0190565b0290565b900390565b6001600160a01b038316610c535760405162461bcd60e51b81526004018080602001828103825260248152602001806110ba6024913960400191505060405180910390fd5b6001600160a01b038216610c985760405162461bcd60e51b81526004018080602001828103825260228152602001806110256022913960400191505060405180910390fd5b6001600160a01b03808416600081815260016020908152604080832094871680845294825291829020859055815185815291517f8c5be1e5ebec7d5bd14f71427d1e84f3dd0314c0f7b2291e5b200ac8c7c3b9259281900390910190a3505050565b6000818381610d0557fe5b049392505050565b6001600160a01b038316610d525760405162461bcd60e51b81526004018080602001828103825260258152602001806110956025913960400191505060405180910390fd5b6001600160a01b038216610d975760405162461bcd60e51b81526004018080602001828103825260238152602001806110026023913960400191505060405180910390fd5b610da2838383610ffc565b610ddf81604051806060016040528060268152602001611047602691396001600160a01b0386166000908152602081905260409020549190610e68565b6001600160a01b038085166000908152602081905260408082209390935590841681522054610e0e9082610c01565b6001600160a01b038084166000818152602081815260409182902094909455805185815290519193928716927fddf252ad1be2c89b69c2b068fc378daa952ba7f163c4a11628f55a4df523b3ef92918290030190a3505050565b60008184841115610ef75760405162461bcd60e51b81526004018080602001828103825283818151815260200191508051906020019080838360005b83811015610ebc578181015183820152602001610ea4565b50505050905090810190601f168015610ee95780820380516001836020036101000a031916815260200191505b509250505060405180910390fd5b505050900390565b6001600160a01b038216610f5a576040805162461bcd60e51b815260206004820152601f60248201527f45524332303a206d696e7420746f20746865207a65726f206164647265737300604482015290519081900360640190fd5b610f6660008383610ffc565b600254610f739082610c01565b6002556001600160a01b038216600090815260208190526040902054610f999082610c01565b6001600160a01b0383166000818152602081815260408083209490945583518581529351929391927fddf252ad1be2c89b69c2b068fc378daa952ba7f163c4a11628f55a4df523b3ef9281900390910190a35050565b60006105cf338484610d0d565b50505056fe45524332303a207472616e7366657220746f20746865207a65726f206164647265737345524332303a20617070726f766520746f20746865207a65726f206164647265737345524332303a207472616e7366657220616d6f756e7420657863656564732062616c616e636545524332303a207472616e7366657220616d6f756e74206578636565647320616c6c6f77616e636545524332303a207472616e736665722066726f6d20746865207a65726f206164647265737345524332303a20617070726f76652066726f6d20746865207a65726f206164647265737345524332303a2064656372656173656420616c6c6f77616e63652062656c6f77207a65726fa264697066735822122043bf028c52f1073b7ebfb7aff5bf6606e7961a688a688e92949ba7f4f93f6d6064736f6c63430007010033546f6b656e73206172726179206c656e677468206d75737420657175616c2073726373206172726179596f752063616e2774207369676e20757020617320616e206f7267616e697a6174696f6e207477696365596f752063616e206f6e6c792074727573742070656f706c6520616674657220796f75277665207369676e656420757021546f6b656e73206172726179206c656e677468206d75737420657175616c206465737473206172726179546f6b656e73206172726179206c656e677468206d75737420657175616c20616d6f756e747320617272617954727573742069732062696e61727920666f72206f7267616e697a6174696f6e73506174682073656e64732066726f6d206d6f7265207468616e206f6e65207372634c696d6974206d75737420626520612070657263656e74616765206f7574206f66203130305061746820646f65736e27742073656e642066726f6d207472616e73616374696f6e2073656e6465724e6f726d616c2075736572732063616e6e6f74207369676e7570206173206f7267616e697a6174696f6e734f7267616e697a6174696f6e732063616e6e6f74207369676e7570206173206e6f726d616c207573657273556e657175616c2073656e7420616e6420726563656976656420616d6f756e7473a2646970667358221220c1934e2662b96076ec8953f7b122650c30eaa2fd290470a0fe02e1de2ad3eae264736f6c63430007010033",
  "immutableReferences": {
    "1469": [
      {
        "length": 32,
        "start": 2068
      },
      {
        "length": 32,
        "start": 4858
      }
    ],
    "1471": [
      {
        "length": 32,
        "start": 1954
      },
      {
        "length": 32,
        "start": 2116
      }
    ],
    "1473": [
      {
        "length": 32,
        "start": 4385
      },
      {
        "length": 32,
        "start": 5536
      }
    ],
    "1479": [
      {
        "length": 32,
        "start": 2692
      }
    ],
    "1481": [
      {
        "length": 32,
        "start": 2652
      },
      {
        "length": 32,
        "start": 2847
      },
      {
        "length": 32,
        "start": 5572
      }
    ],
    "1483": [
      {
        "length": 32,
        "start": 4423
      },
      {
        "length": 32,
        "start": 5500
      }
    ],
    "1485": [
      {
        "length": 32,
        "start": 2728
      }
    ]
  },
  "source": "// SPDX-License-Identifier: AGPL\npragma solidity ^0.7.0;\nimport \"../Hub.sol\";\n\ncontract MockHub is Hub {\n    constructor(\n        uint256 _inflation,\n        uint256 _period,\n        string memory _symbol,\n        string memory _name,\n        uint256 _initialPayout,\n        uint256 _startingRate,\n        uint256 _timeout\n    )\n    Hub(_inflation, _period, _symbol, _name, _initialPayout, _startingRate, _timeout)\n    {\n\n    }\n\n    function getSeen() public view returns (uint256) {\n        return seen.length;\n    }\n\n    function getValidation(address user) public view returns (bool, uint256, uint256) {\n        return (validation[user].seen, validation[user].sent, validation[user].received);\n    }\n}",
  "sourcePath": "/home/daniel/src/circles-world/circles-contracts/contracts/mocks/MockHub.sol",
  "compiler": {
    "name": "solc",
    "version": "0.7.1+commit.f4a555be.Emscripten.clang"
  },
  "schemaVersion": "3.4.8",
  "updatedAt": "2022-07-16T18:47:06.654Z",
  "devdoc": {
    "kind": "dev",
    "methods": {
      "checkSendLimit(address,address,address)": {
        "details": "the goal of this function is to always return a sensible number, it's used to validate transfer throughs, and also heavily in the graph/pathfinding services",
        "params": {
          "dest": "the recipient of the tokens",
          "src": "the sender of the tokens",
          "tokenOwner": "the safe/owner that the token was minted to"
        },
        "returns": {
          "_0": "the amount of tokenowner's token src can send to dest"
        }
      },
      "inflate(uint256,uint256)": {
        "details": "this is basically the calculation for compound interest, with some adjustments because of integer math",
        "params": {
          "_initial": "the starting issuance rate",
          "_periods": "the step to calculate the issuance rate as of"
        },
        "returns": {
          "_0": "initial issuance rate as if interest (inflation) has been compounded period times"
        }
      },
      "issuance()": {
        "details": "current issuance is the initial issuance inflated by the amount of inflation periods since the hub was deployed",
        "returns": {
          "_0": "current issuance rate"
        }
      },
      "issuanceByStep(uint256)": {
        "params": {
          "_periods": "the step to calculate the issuance rate at"
        },
        "returns": {
          "_0": "inflation rate as of the given period"
        }
      },
      "organizationSignup()": {
        "details": "signup is permanent for organizations too, there's no way to unsignup"
      },
      "periods()": {
        "returns": {
          "_0": "the amount of periods since hub was deployed"
        }
      },
      "pow(uint256,uint256)": {
        "details": "this is an implementation of exponentiation by squares",
        "params": {
          "base": "the base to be used in the calculation",
          "exponent": "the exponent to be used in the calculation"
        },
        "returns": {
          "_0": "the result of the calculation"
        }
      },
      "signup()": {
        "details": "signup is permanent, there's no way to unsignup"
      },
      "transferThrough(address[],address[],address[],uint256[])": {
        "details": "tokenOwners[0], srcs[0], dests[0], and wads[0] constitute a transaction step",
        "params": {
          "dests": "the recipient of each transaction step",
          "srcs": "the sender of each transaction step",
          "tokenOwners": "the owner of the tokens being sent in each transaction step",
          "wads": "the amount for each transaction step"
        }
      },
      "trust(address,uint256)": {
        "details": "the trust graph is weighted and directed",
        "params": {
          "limit": "the amount this user is trusted, as a percentage of 100",
          "user": "the user to be trusted"
        }
      }
    },
    "version": 1
  },
  "userdoc": {
    "kind": "user",
    "methods": {
      "checkSendLimit(address,address,address)": {
        "notice": "finds the maximum amount of a specific token that can be sent between two users"
      },
      "inflate(uint256,uint256)": {
        "notice": "find the current issuance rate for any initial issuance and amount of periods"
      },
      "issuance()": {
        "notice": "calculates the current issuance rate per second"
      },
      "issuanceByStep(uint256)": {
        "notice": "finds the inflation rate at a given inflation period"
      },
      "organizationSignup()": {
        "notice": "register an organization address with the hub and join the trust graph"
      },
      "periods()": {
        "notice": "helper function for finding the amount of inflation periods since this hub was deployed"
      },
      "signup()": {
        "notice": "signup to this circles hub - create a circles token and join the trust graph"
      },
      "transferThrough(address[],address[],address[],uint256[])": {
        "notice": "walks through tokenOwners, srcs, dests, and amounts array and executes transtive transfer"
      },
      "trust(address,uint256)": {
        "notice": "trust a user, calling this means you're able to receive tokens from this user transitively"
      }
    },
    "version": 1
  }
}