{
  "contractName": "TokenV2",
  "abi": [
    {
      "inputs": [
        {
          "internalType": "address",
          "name": "_owner",
          "type": "address"
        }
      ],
      "stateMutability": "nonpayable",
      "type": "constructor"
    },
    {
      "anonymous": false,
      "inputs": [
        {
          "indexed": true,
          "internalType": "address",
          "name": "owner",
          "type": "address"
        },
        {
          "indexed": true,
          "internalType": "address",
          "name": "spender",
          "type": "address"
        },
        {
          "indexed": false,
          "internalType": "uint256",
          "name": "value",
          "type": "uint256"
        }
      ],
      "name": "Approval",
      "type": "event"
    },
    {
      "anonymous": false,
      "inputs": [
        {
          "indexed": true,
          "internalType": "address",
          "name": "from",
          "type": "address"
        },
        {
          "indexed": true,
          "internalType": "address",
          "name": "to",
          "type": "address"
        },
        {
          "indexed": false,
          "internalType": "uint256",
          "name": "value",
          "type": "uint256"
        }
      ],
      "name": "Transfer",
      "type": "event"
    },
    {
      "inputs": [
        {
          "internalType": "address",
          "name": "owner",
          "type": "address"
        },
        {
          "internalType": "address",
          "name": "spender",
          "type": "address"
        }
      ],
      "name": "allowance",
      "outputs": [
        {
          "internalType": "uint256",
          "name": "",
          "type": "uint256"
        }
      ],
      "stateMutability": "view",
      "type": "function"
    },
    {
      "inputs": [
        {
          "internalType": "address",
          "name": "spender",
          "type": "address"
        },
        {
          "internalType": "uint256",
          "name": "amount",
          "type": "uint256"
        }
      ],
      "name": "approve",
      "outputs": [
        {
          "internalType": "bool",
          "name": "",
          "type": "bool"
        }
      ],
      "stateMutability": "nonpayable",
      "type": "function"
    },
    {
      "inputs": [
        {
          "internalType": "address",
          "name": "account",
          "type": "address"
        }
      ],
      "name": "balanceOf",
      "outputs": [
        {
          "internalType": "uint256",
          "name": "",
          "type": "uint256"
        }
      ],
      "stateMutability": "view",
      "type": "function"
    },
    {
      "inputs": [],
      "name": "currentIssuance",
      "outputs": [
        {
          "internalType": "uint256",
          "name": "",
          "type": "uint256"
        }
      ],
      "stateMutability": "view",
      "type": "function"
    },
    {
      "inputs": [],
      "name": "decimals",
      "outputs": [
        {
          "internalType": "uint8",
          "name": "",
          "type": "uint8"
        }
      ],
      "stateMutability": "view",
      "type": "function"
    },
    {
      "inputs": [
        {
          "internalType": "address",
          "name": "spender",
          "type": "address"
        },
        {
          "internalType": "uint256",
          "name": "subtractedValue",
          "type": "uint256"
        }
      ],
      "name": "decreaseAllowance",
      "outputs": [
        {
          "internalType": "bool",
          "name": "",
          "type": "bool"
        }
      ],
      "stateMutability": "nonpayable",
      "type": "function"
    },
    {
      "inputs": [],
      "name": "hub",
      "outputs": [
        {
          "internalType": "address",
          "name": "",
          "type": "address"
        }
      ],
      "stateMutability": "view",
      "type": "function"
    },
    {
      "inputs": [
        {
          "internalType": "address",
          "name": "spender",
          "type": "address"
        },
        {
          "internalType": "uint256",
          "name": "addedValue",
          "type": "uint256"
        }
      ],
      "name": "increaseAllowance",
      "outputs": [
        {
          "internalType": "bool",
          "name": "",
          "type": "bool"
        }
      ],
      "stateMutability": "nonpayable",
      "type": "function"
    },
    {
      "inputs": [],
      "name": "inflationOffset",
      "outputs": [
        {
          "internalType": "uint256",
          "name": "",
          "type": "uint256"
        }
      ],
      "stateMutability": "view",
      "type": "function"
    },
    {
      "inputs": [],
      "name": "lastTouched",
      "outputs": [
        {
          "internalType": "uint256",
          "name": "",
          "type": "uint256"
        }
      ],
      "stateMutability": "view",
      "type": "function"
    },
    {
      "inputs": [],
      "name": "owner",
      "outputs": [
        {
          "internalType": "address",
          "name": "",
          "type": "address"
        }
      ],
      "stateMutability": "view",
      "type": "function"
    },
    {
      "inputs": [],
      "name": "totalSupply",
      "outputs": [
        {
          "internalType": "uint256",
          "name": "",
          "type": "uint256"
        }
      ],
      "stateMutability": "view",
      "type": "function"
    },
    {
      "inputs": [
        {
          "internalType": "address",
          "name": "sender",
          "type": "address"
        },
        {
          "internalType": "address",
          "name": "recipient",
          "type": "address"
        },
        {
          "internalType": "uint256",
          "name": "amount",
          "type": "uint256"
        }
      ],
      "name": "transferFrom",
      "outputs": [
        {
          "internalType": "bool",
          "name": "",
          "type": "bool"
        }
      ],
      "stateMutability": "nonpayable",
      "type": "function"
    },
    {
      "inputs": [],
      "name": "time",
      "outputs": [
        {
          "internalType": "uint256",
          "name": "",
          "type": "uint256"
        }
      ],
      "stateMutability": "view",
      "type": "function"
    },
    {
      "inputs": [],
      "name": "symbol",
      "outputs": [
        {
          "internalType": "string",
          "name": "",
          "type": "string"
        }
      ],
      "stateMutability": "view",
      "type": "function"
    },
    {
      "inputs": [],
      "name": "name",
      "outputs": [
        {
          "internalType": "string",
          "name": "",
          "type": "string"
        }
      ],
      "stateMutability": "view",
      "type": "function"
    },
    {
      "inputs": [],
      "name": "period",
      "outputs": [
        {
          "internalType": "uint256",
          "name": "",
          "type": "uint256"
        }
      ],
      "stateMutability": "view",
      "type": "function"
    },
    {
      "inputs": [],
      "name": "periods",
      "outputs": [
        {
          "internalType": "uint256",
          "name": "",
          "type": "uint256"
        }
      ],
      "stateMutability": "view",
      "type": "function"
    },
    {
      "inputs": [],
      "name": "timeout",
      "outputs": [
        {
          "internalType": "uint256",
          "name": "",
          "type": "uint256"
        }
      ],
      "stateMutability": "view",
      "type": "function"
    },
    {
      "inputs": [],
      "name": "periodsWhenLastTouched",
      "outputs": [
        {
          "internalType": "uint256",
          "name": "",
          "type": "uint256"
        }
      ],
      "stateMutability": "view",
      "type": "function"
    },
    {
      "inputs": [],
      "name": "hubDeployedAt",
      "outputs": [
        {
          "internalType": "uint256",
          "name": "",
          "type": "uint256"
        }
      ],
      "stateMutability": "view",
      "type": "function"
    },
    {
      "inputs": [],
      "name": "stop",
      "outputs": [],
      "stateMutability": "nonpayable",
      "type": "function"
    },
    {
      "inputs": [],
      "name": "stopped",
      "outputs": [
        {
          "internalType": "bool",
          "name": "",
          "type": "bool"
        }
      ],
      "stateMutability": "view",
      "type": "function"
    },
    {
      "inputs": [],
      "name": "findInflationOffset",
      "outputs": [
        {
          "internalType": "uint256",
          "name": "",
          "type": "uint256"
        }
      ],
      "stateMutability": "view",
      "type": "function"
    },
    {
      "inputs": [],
      "name": "look",
      "outputs": [
        {
          "internalType": "uint256",
          "name": "",
          "type": "uint256"
        }
      ],
      "stateMutability": "view",
      "type": "function"
    },
    {
      "inputs": [],
      "name": "update",
      "outputs": [],
      "stateMutability": "nonpayable",
      "type": "function"
    },
    {
      "inputs": [
        {
          "internalType": "address",
          "name": "to",
          "type": "address"
        },
        {
          "internalType": "uint256",
          "name": "amount",
          "type": "uint256"
        }
      ],
      "name": "migrateMint",
      "outputs": [],
      "stateMutability": "nonpayable",
      "type": "function"
    },
    {
      "inputs": [
        {
          "internalType": "address",
          "name": "from",
          "type": "address"
        },
        {
          "internalType": "address",
          "name": "to",
          "type": "address"
        },
        {
          "internalType": "uint256",
          "name": "amount",
          "type": "uint256"
        }
      ],
      "name": "hubTransfer",
      "outputs": [
        {
          "internalType": "bool",
          "name": "",
          "type": "bool"
        }
      ],
      "stateMutability": "nonpayable",
      "type": "function"
    },
    {
      "inputs": [
        {
          "internalType": "address",
          "name": "dst",
          "type": "address"
        },
        {
          "internalType": "uint256",
          "name": "wad",
          "type": "uint256"
        }
      ],
      "name": "transfer",
      "outputs": [
        {
          "internalType": "bool",
          "name": "",
          "type": "bool"
        }
      ],
      "stateMutability": "nonpayable",
      "type": "function"
    }
  ],
  "bytecode": "0x60c0604052600960f91b6080523480156200001957600080fd5b506040516200160338038062001603833981810160405260208110156200003f57600080fd5b50516001600160a01b0381166200005557600080fd5b6001600160601b0319606082901b1660a052600680546001600160a01b031916331790556200008362000192565b6005556200009062000196565b6007556006546040805163863623bb60e01b815290516001600160a01b039092169163863623bb91600480820192602092909190829003018186803b158015620000d957600080fd5b505afa158015620000ee573d6000803e3d6000fd5b505050506040513d60208110156200010557600080fd5b505160085560065460408051630cf96a5b60e31b815290516200018b9284926001600160a01b03909116916367cb52d891600480820192602092909190829003018186803b1580156200015757600080fd5b505afa1580156200016c573d6000803e3d6000fd5b505050506040513d60208110156200018357600080fd5b505162000215565b506200043b565b4290565b600080620001ea620001a762000324565b620001b8620001cc6001826200039d565b620003e360201b62000c5d1790919060201c565b620001d6620003e7565b6200042d60201b62000c611790919060201c565b90506200020f620001fa62000192565b826200043160201b62000c651790919060201c565b91505090565b6001600160a01b03821662000271576040805162461bcd60e51b815260206004820152601f60248201527f45524332303a206d696e7420746f20746865207a65726f206164647265737300604482015290519081900360640190fd5b6200027f6000838362000436565b6200029b81600254620003e360201b62000c5d1790919060201c565b6002556001600160a01b03821660009081526020818152604090912054620002ce91839062000c5d620003e3821b17901c565b6001600160a01b0383166000818152602081815260408083209490945583518581529351929391927fddf252ad1be2c89b69c2b068fc378daa952ba7f163c4a11628f55a4df523b3ef9281900390910190a35050565b6006546040805163eae4c19f60e01b815290516000926001600160a01b03169163eae4c19f916004808301926020929190829003018186803b1580156200036a57600080fd5b505afa1580156200037f573d6000803e3d6000fd5b505050506040513d60208110156200039657600080fd5b5051905090565b6006546040805163526575a160e11b815290516000926001600160a01b03169163a4caeb42916004808301926020929190829003018186803b1580156200036a57600080fd5b0190565b6006546040805163ef78d4fd60e01b815290516000926001600160a01b03169163ef78d4fd916004808301926020929190829003018186803b1580156200036a57600080fd5b0290565b900390565b505050565b60805160f81c60a05160601c6111946200046f600039806105c052806109f25280610afa5250806106e252506111946000f3fe608060405234801561001057600080fd5b506004361061016f5760003560e01c80636c050eae116100d45780636c050eae1461035757806370a082311461035f57806370dea79a1461038557806375f12b211461038d5780638b4eed81146103955780638da5cb5b1461039d57806395d89b41146103a5578063a2e62045146103ad578063a457c2d7146103b5578063a4caeb42146103e1578063a9059cbb146103e9578063d2cb010014610415578063d404808914610441578063dd62ed3e14610449578063ef78d4fd146104775761016f565b806306fdde031461017457806307da68f5146101f1578063095ea7b3146101fb5780630b0aaf271461023b578063107129dd1461025557806316ada5471461025d57806318160ddd1461026557806320a6703c1461026d57806323b872dd146102a3578063313ce567146102d9578063365a86fc146102f7578063395093511461031b5780633b6fe91f1461034757806341c305461461034f575b600080fd5b61017c61047f565b6040805160208082528351818301528351919283929083019185019080838360005b838110156101b657818101518382015260200161019e565b50505050905090810190601f1680156101e35780820380516001836020036101000a031916815260200191505b509250505060405180910390f35b6101f96105b5565b005b6102276004803603604081101561021157600080fd5b506001600160a01b0381351690602001356105f9565b604080519115158252519081900360200190f35b61024361060f565b60408051918252519081900360200190f35b61024361063b565b610243610641565b610243610645565b6102276004803603606081101561028357600080fd5b506001600160a01b0381358116916020810135909116906040013561064b565b610227600480360360608110156102b957600080fd5b506001600160a01b03813581169160208101359091169060400135610677565b6102e16106e0565b6040805160ff9092168252519081900360200190f35b6102ff610704565b604080516001600160a01b039092168252519081900360200190f35b6102276004803603604081101561033157600080fd5b506001600160a01b038135169060200135610713565b610243610749565b6102436107bf565b61024361080b565b6102436004803603602081101561037557600080fd5b50356001600160a01b0316610941565b61024361095c565b6102276109a1565b6102436109ea565b6102ff6109f0565b61017c610a14565b6101f9610a59565b610227600480360360408110156103cb57600080fd5b506001600160a01b038135169060200135610b22565b610243610b71565b610227600480360360408110156103ff57600080fd5b506001600160a01b038135169060200135610bb6565b6101f96004803603604081101561042b57600080fd5b506001600160a01b038135169060200135610bc2565b610243610be7565b6102436004803603604081101561045f57600080fd5b506001600160a01b0381358116916020013516610bed565b610243610c18565b600654604080516306fdde0360e01b815290516060926001600160a01b0316916306fdde03916004808301926000929190829003018186803b1580156104c457600080fd5b505afa1580156104d8573d6000803e3d6000fd5b505050506040513d6000823e601f3d908101601f19168201604052602081101561050157600080fd5b8101908080516040519392919084600160201b82111561052057600080fd5b90830190602082018581111561053557600080fd5b8251600160201b81118282018810171561054e57600080fd5b82525081516020918201929091019080838360005b8381101561057b578181015183820152602001610563565b50505050905090810190601f1680156105a85780820380516001836020036101000a031916815260200191505b5060405250505090505b90565b336001600160a01b037f000000000000000000000000000000000000000000000000000000000000000016146105ea57600080fd5b6009805460ff19166001179055565b6000610606338484610c6a565b50600192915050565b600061063661061c610c18565b610630610627610749565b60055490610c65565b90610d56565b905090565b60075481565b4290565b60025490565b6006546000906001600160a01b0316331461066557600080fd5b610670848484610d69565b9392505050565b6000610684848484610d69565b6106d684336106d1856040518060600160405280602881526020016110c9602891396001600160a01b038a1660009081526001602090815260408083203384529091529020549190610ec4565b610c6a565b5060019392505050565b7f000000000000000000000000000000000000000000000000000000000000000081565b6006546001600160a01b031681565b3360008181526001602090815260408083206001600160a01b038716845290915281205490916106069185906106d19086610c5d565b6006546040805163eae4c19f60e01b815290516000926001600160a01b03169163eae4c19f916004808301926020929190829003018186803b15801561078e57600080fd5b505afa1580156107a2573d6000803e3d6000fd5b505050506040513d60208110156107b857600080fd5b5051905090565b6000806107f16107cd610749565b6107dd6107e360016107dd610b71565b90610c5d565b6107eb610c18565b90610c61565b90506108056107fe610641565b8290610c65565b91505090565b60006108156109a1565b15610822575060006105b2565b60055460075460085460009291908361083961060f565b90505b610844610641565b61084e8585610c5d565b1161090c576108676108608484610c61565b8690610c5d565b94506108738484610c5d565b935061087d610c18565b925061088a816001610c5d565b600654604080516361c4b42160e01b81526004810184905290519293506001600160a01b03909116916361c4b42191602480820192602092909190829003018186803b1580156108d957600080fd5b505afa1580156108ed573d6000803e3d6000fd5b505050506040513d602081101561090357600080fd5b5051915061083c565b60006109208561091a610641565b90610c65565b905061093661092f8285610c61565b8790610c5d565b965050505050505090565b6001600160a01b031660009081526020819052604090205490565b6006546040805163386f53cd60e11b815290516000926001600160a01b0316916370dea79a916004808301926020929190829003018186803b15801561078e57600080fd5b60095460009060ff16156109b7575060016105b2565b60006109c760055461091a610641565b90506109d161095c565b8111156109e25760019150506105b2565b600091505090565b60055481565b7f000000000000000000000000000000000000000000000000000000000000000081565b600654604080516395d89b4160e01b815290516060926001600160a01b0316916395d89b41916004808301926000929190829003018186803b1580156104c457600080fd5b6000610a6361080b565b90508015610b1f57610a736107bf565b600755610a7e610641565b6005556006546040805163863623bb60e01b815290516001600160a01b039092169163863623bb91600480820192602092909190829003018186803b158015610ac657600080fd5b505afa158015610ada573d6000803e3d6000fd5b505050506040513d6020811015610af057600080fd5b5051600855610b1f7f000000000000000000000000000000000000000000000000000000000000000082610f5b565b50565b600061060633846106d18560405180606001604052806025815260200161113a602591393360009081526001602090815260408083206001600160a01b038d1684529091529020549190610ec4565b6006546040805163526575a160e11b815290516000926001600160a01b03169163a4caeb42916004808301926020929190829003018186803b15801561078e57600080fd5b6000610670838361104b565b6006546001600160a01b03163314610bd957600080fd5b610be38282610f5b565b5050565b60085481565b6001600160a01b03918216600090815260016020908152604080832093909416825291909152205490565b6006546040805163ef78d4fd60e01b815290516000926001600160a01b03169163ef78d4fd916004808301926020929190829003018186803b15801561078e57600080fd5b0190565b0290565b900390565b6001600160a01b038316610caf5760405162461bcd60e51b81526004018080602001828103825260248152602001806111166024913960400191505060405180910390fd5b6001600160a01b038216610cf45760405162461bcd60e51b81526004018080602001828103825260228152602001806110816022913960400191505060405180910390fd5b6001600160a01b03808416600081815260016020908152604080832094871680845294825291829020859055815185815291517f8c5be1e5ebec7d5bd14f71427d1e84f3dd0314c0f7b2291e5b200ac8c7c3b9259281900390910190a3505050565b6000818381610d6157fe5b049392505050565b6001600160a01b038316610dae5760405162461bcd60e51b81526004018080602001828103825260258152602001806110f16025913960400191505060405180910390fd5b6001600160a01b038216610df35760405162461bcd60e51b815260040180806020018281038252602381526020018061105e6023913960400191505060405180910390fd5b610dfe838383611058565b610e3b816040518060600160405280602681526020016110a3602691396001600160a01b0386166000908152602081905260409020549190610ec4565b6001600160a01b038085166000908152602081905260408082209390935590841681522054610e6a9082610c5d565b6001600160a01b038084166000818152602081815260409182902094909455805185815290519193928716927fddf252ad1be2c89b69c2b068fc378daa952ba7f163c4a11628f55a4df523b3ef92918290030190a3505050565b60008184841115610f535760405162461bcd60e51b81526004018080602001828103825283818151815260200191508051906020019080838360005b83811015610f18578181015183820152602001610f00565b50505050905090810190601f168015610f455780820380516001836020036101000a031916815260200191505b509250505060405180910390fd5b505050900390565b6001600160a01b038216610fb6576040805162461bcd60e51b815260206004820152601f60248201527f45524332303a206d696e7420746f20746865207a65726f206164647265737300604482015290519081900360640190fd5b610fc260008383611058565b600254610fcf9082610c5d565b6002556001600160a01b038216600090815260208190526040902054610ff59082610c5d565b6001600160a01b0383166000818152602081815260408083209490945583518581529351929391927fddf252ad1be2c89b69c2b068fc378daa952ba7f163c4a11628f55a4df523b3ef9281900390910190a35050565b6000610606338484610d69565b50505056fe45524332303a207472616e7366657220746f20746865207a65726f206164647265737345524332303a20617070726f766520746f20746865207a65726f206164647265737345524332303a207472616e7366657220616d6f756e7420657863656564732062616c616e636545524332303a207472616e7366657220616d6f756e74206578636565647320616c6c6f77616e636545524332303a207472616e736665722066726f6d20746865207a65726f206164647265737345524332303a20617070726f76652066726f6d20746865207a65726f206164647265737345524332303a2064656372656173656420616c6c6f77616e63652062656c6f77207a65726fa26469706673582212209b7f3894b3b6de43b87ba3cdd70028f1e567321f38de0d8e28ed56bff384cece64736f6c63430007010033",
  "immutableReferences": {
    "2126": [
      {
        "length": 32,
        "start": 1762
      }
    ],
    "2132": [
      {
        "length": 32,
        "start": 1472
      },
      {
        "length": 32,
        "start": 2546
      },
      {
        "length": 32,
        "start": 2810
      }
    ]
  },
  "source": "// SPDX-License-Identifier: AGPL\npragma solidity ^0.7.0;\n\nimport \"./lib/SafeMath.sol\";\nimport \"./ERC20.sol\";\nimport \"./interfaces/HubV2I.sol\";\n\ncontract TokenV2 is ERC20 {\n    using SafeMath for uint256;\n\n    uint8 public immutable override decimals = 18;\n\n    uint256 public lastTouched; // the timestamp of the last ubi payout\n    address public hub; // the address of the hub this token was deployed through\n    address public immutable owner; // the safe that deployed this token\n    uint256 public inflationOffset; // the amount of seconds until the next inflation step\n    uint256 public currentIssuance; // issanceRate at the time this token was deployed\n    bool private manuallyStopped; // true if this token has been stopped by it's owner\n\n    /// @dev modifier allowing function to be only called through the hub\n    modifier onlyHub() {\n        require(msg.sender == hub);\n        _;\n    }\n\n    /// @dev modifier allowing function to be only called by the token owner\n    modifier onlyOwner() {\n        require(msg.sender == owner);\n        _;\n    }\n\n    constructor(address _owner) {\n        require(_owner != address(0));\n        owner = _owner;\n        hub = msg.sender;\n        lastTouched = time();\n        inflationOffset = findInflationOffset();\n        currentIssuance = HubV2I(hub).issuance();\n        _mint(_owner, HubV2I(hub).signupBonus());\n    }\n\n    /// @notice helper function for block timestamp\n    /// @return the block timestamp\n    function time() public view returns (uint256) {\n        return block.timestamp;\n    }\n\n    /// @notice helper function for the token symbol\n    /// @dev all circles tokens should have the same symbol\n    /// @return the token symbol\n    function symbol() public view override returns (string memory) {\n        return HubV2I(hub).symbol();\n    }\n\n    /// @notice helper function for the token name\n    /// @dev all circles tokens should have the same name\n    /// @return the token name\n    function name() public view returns (string memory) {\n        return HubV2I(hub).name();\n    }\n\n    /// @notice helper function for fetching the period length from the hub\n    /// @return period length in seconds\n    function period() public view returns (uint256) {\n        return HubV2I(hub).period();\n    }\n\n    /// @notice helper function for fetching the number of periods from the hub\n    /// @return the number of periods since the hub was deployed\n    function periods() public view returns (uint256) {\n        return HubV2I(hub).periods();\n    }\n\n    /// @notice helper function for fetching the timeout from the hub\n    /// @return the number of seconds the token can go without being updated before it's deactivated\n    function timeout() public view returns (uint256) {\n        return HubV2I(hub).timeout();\n    }\n\n    /// @notice find the inflation step when ubi was last payed out\n    /// @dev ie. if ubi was last payed out during the second inflation step, returns two\n    /// @return the inflation step by count\n    function periodsWhenLastTouched() public view returns (uint256) {\n        return (lastTouched.sub(hubDeployedAt())).div(period());\n    }\n\n    /// @notice helper functio for getting the hub deployment time\n    /// @return the timestamp the hub was deployed at\n    function hubDeployedAt() public view returns (uint256) {\n        return HubV2I(hub).deployedAt();\n    }\n\n    /// @notice Caution! manually deactivates or stops this token, no ubi will be payed out after this is called\n    /// @dev intended for use in case of key loss, system failure, or migration to new contracts\n    function stop() public onlyOwner {\n        manuallyStopped = true;\n    }\n\n    /// @notice checks whether this token has been either stopped manually, or whether it has timed out\n    /// @dev combines the manual stop variable with a dead man's switch\n    /// @return false is the token is still paying out ubi, otherwise true\n    function stopped() public view returns (bool) {\n        if (manuallyStopped) return true;\n        uint256 secondsSinceLastTouched = time().sub(lastTouched);\n        if (secondsSinceLastTouched > timeout()) return true;\n        return false;\n    }\n\n    /// @notice the amount of seconds until the ubi payout is next inflated\n    /// @dev ubi is payed out continuously between inflation steps\n    /// @return the amount of seconds until the next inflation step\n    function findInflationOffset() public view returns (uint256) {\n        // finds the timestamp of the next inflation step, and subtracts the current timestamp\n        uint256 nextInflation =\n            ((period().mul(periods().add(1))).add(hubDeployedAt()));\n        return nextInflation.sub(time());\n    }\n\n    /// @notice checks how much ubi this token holder is owed, but doesn't update their balance\n    /// @dev is called in the update method to write the new balance to state, but also useful in wallets\n    /// @return how much ubi this token holder is owed\n    function look() public view returns (uint256) {\n        // don't payout ubi if the token has been deactivated/stopped\n        if (stopped()) return 0;\n        uint256 payout = 0;\n        uint256 clock = lastTouched;\n        uint256 offset = inflationOffset;\n        uint256 rate = currentIssuance;\n        uint256 p = periodsWhenLastTouched();\n        // this while loop gets executed only when we're rolling over an inflation step\n        // in the course of a ubi payout aka while we have to pay out ubi for more time\n        // than lastTouched + inflationOffset\n        while (clock.add(offset) <= time()) {\n            // add the remaining offset time to the payout total at the current rate\n            payout = payout.add(offset.mul(rate));\n            // adjust clock to the timestamp of the next inflation step\n            clock = clock.add(offset);\n            // the offset is now the length of 1 period\n            offset = period();\n            // increment the period we are paying out for\n            p = p.add(1);\n            // find the issuance rate as of the next period\n            rate = HubV2I(hub).issuanceByStep(p);\n        }\n        // at this point, time() - clock should always be less than 1 period\n        uint256 timeSinceLastPayout = time().sub(clock);\n        payout = payout.add(timeSinceLastPayout.mul(rate));\n        return payout;\n    }\n\n    /// @notice receive a ubi payout\n    /// @dev this is the method to actually update storage with new token balance\n    function update() public {\n        uint256 gift = look();\n        // does nothing if there's no ubi to be payed out\n        if (gift > 0) {\n            // update the state variables used to calculate ubi, then mint\n            inflationOffset = findInflationOffset();\n            lastTouched = time();\n            currentIssuance = HubV2I(hub).issuance();\n            _mint(owner, gift);\n        }\n    }\n\n    function migrateMint(address to, uint256 amount) public onlyHub {\n        _mint(to, amount);\n    }\n\n    /// @notice special method called by the hub to execute a transitive transaction\n    /// @param from the address the tokens are being transferred from\n    /// @param to the address the tokens are being transferred to\n    /// @param amount the amount of tokens to transfer\n    function hubTransfer(\n        address from,\n        address to,\n        uint256 amount\n    ) public onlyHub returns (bool) {\n        _transfer(from, to, amount);\n    }\n\n    function transfer(address dst, uint256 wad) public override returns (bool) {\n        // this code shouldn't be necessary, but when it's removed the gas estimation methods\n        // in the gnosis safe no longer work, still true as of solidity 7.1\n        return super.transfer(dst, wad);\n    }\n}\n",
  "sourcePath": "/home/daniel/src/circles-world/circles-contracts/contracts/TokenV2.sol",
  "compiler": {
    "name": "solc",
    "version": "0.7.1+commit.f4a555be.Emscripten.clang"
  },
  "schemaVersion": "3.4.8",
  "updatedAt": "2022-07-17T10:12:03.237Z",
  "devdoc": {
    "kind": "dev",
    "methods": {
      "allowance(address,address)": {
        "details": "See {IERC20-allowance}."
      },
      "approve(address,uint256)": {
        "details": "See {IERC20-approve}. Requirements: - `spender` cannot be the zero address."
      },
      "balanceOf(address)": {
        "details": "See {IERC20-balanceOf}."
      },
      "decreaseAllowance(address,uint256)": {
        "details": "Atomically decreases the allowance granted to `spender` by the caller. This is an alternative to {approve} that can be used as a mitigation for problems described in {IERC20-approve}. Emits an {Approval} event indicating the updated allowance. Requirements: - `spender` cannot be the zero address. - `spender` must have allowance for the caller of at least `subtractedValue`."
      },
      "findInflationOffset()": {
        "details": "ubi is payed out continuously between inflation steps",
        "returns": {
          "_0": "the amount of seconds until the next inflation step"
        }
      },
      "hubDeployedAt()": {
        "returns": {
          "_0": "the timestamp the hub was deployed at"
        }
      },
      "hubTransfer(address,address,uint256)": {
        "params": {
          "amount": "the amount of tokens to transfer",
          "from": "the address the tokens are being transferred from",
          "to": "the address the tokens are being transferred to"
        }
      },
      "increaseAllowance(address,uint256)": {
        "details": "Atomically increases the allowance granted to `spender` by the caller. This is an alternative to {approve} that can be used as a mitigation for problems described in {IERC20-approve}. Emits an {Approval} event indicating the updated allowance. Requirements: - `spender` cannot be the zero address."
      },
      "look()": {
        "details": "is called in the update method to write the new balance to state, but also useful in wallets",
        "returns": {
          "_0": "how much ubi this token holder is owed"
        }
      },
      "name()": {
        "details": "all circles tokens should have the same name",
        "returns": {
          "_0": "the token name"
        }
      },
      "period()": {
        "returns": {
          "_0": "period length in seconds"
        }
      },
      "periods()": {
        "returns": {
          "_0": "the number of periods since the hub was deployed"
        }
      },
      "periodsWhenLastTouched()": {
        "details": "ie. if ubi was last payed out during the second inflation step, returns two",
        "returns": {
          "_0": "the inflation step by count"
        }
      },
      "stop()": {
        "details": "intended for use in case of key loss, system failure, or migration to new contracts"
      },
      "stopped()": {
        "details": "combines the manual stop variable with a dead man's switch",
        "returns": {
          "_0": "false is the token is still paying out ubi, otherwise true"
        }
      },
      "symbol()": {
        "details": "all circles tokens should have the same symbol",
        "returns": {
          "_0": "the token symbol"
        }
      },
      "time()": {
        "returns": {
          "_0": "the block timestamp"
        }
      },
      "timeout()": {
        "returns": {
          "_0": "the number of seconds the token can go without being updated before it's deactivated"
        }
      },
      "totalSupply()": {
        "details": "See {IERC20-totalSupply}."
      },
      "transferFrom(address,address,uint256)": {
        "details": "See {IERC20-transferFrom}. Emits an {Approval} event indicating the updated allowance. This is not required by the EIP. See the note at the beginning of {ERC20}; Requirements: - `sender` and `recipient` cannot be the zero address. - `sender` must have a balance of at least `amount`. - the caller must have allowance for ``sender``'s tokens of at least `amount`."
      },
      "update()": {
        "details": "this is the method to actually update storage with new token balance"
      }
    },
    "stateVariables": {
      "decimals": {
        "details": "Returns the number of decimals used to get its user representation. For example, if `decimals` equals `2`, a balance of `505` tokens should be displayed to a user as `5,05` (`505 / 10 ** 2`). Tokens usually opt for a value of 18, imitating the relationship between Ether and Wei. This is the value {ERC20} uses, unless {_setupDecimals} is called. NOTE: This information is only used for _display_ purposes: it in no way affects any of the arithmetic of the contract, including {IERC20-balanceOf} and {IERC20-transfer}."
      }
    },
    "version": 1
  },
  "userdoc": {
    "kind": "user",
    "methods": {
      "findInflationOffset()": {
        "notice": "the amount of seconds until the ubi payout is next inflated"
      },
      "hubDeployedAt()": {
        "notice": "helper functio for getting the hub deployment time"
      },
      "hubTransfer(address,address,uint256)": {
        "notice": "special method called by the hub to execute a transitive transaction"
      },
      "look()": {
        "notice": "checks how much ubi this token holder is owed, but doesn't update their balance"
      },
      "name()": {
        "notice": "helper function for the token name"
      },
      "period()": {
        "notice": "helper function for fetching the period length from the hub"
      },
      "periods()": {
        "notice": "helper function for fetching the number of periods from the hub"
      },
      "periodsWhenLastTouched()": {
        "notice": "find the inflation step when ubi was last payed out"
      },
      "stop()": {
        "notice": "Caution! manually deactivates or stops this token, no ubi will be payed out after this is called"
      },
      "stopped()": {
        "notice": "checks whether this token has been either stopped manually, or whether it has timed out"
      },
      "symbol()": {
        "notice": "helper function for the token symbol"
      },
      "time()": {
        "notice": "helper function for block timestamp"
      },
      "timeout()": {
        "notice": "helper function for fetching the timeout from the hub"
      },
      "update()": {
        "notice": "receive a ubi payout"
      }
    },
    "version": 1
  }
}