{
  "contractName": "Token",
  "abi": [
    {
      "inputs": [
        {
          "internalType": "address",
          "name": "_owner",
          "type": "address"
        }
      ],
      "stateMutability": "nonpayable",
      "type": "constructor"
    },
    {
      "anonymous": false,
      "inputs": [
        {
          "indexed": true,
          "internalType": "address",
          "name": "owner",
          "type": "address"
        },
        {
          "indexed": true,
          "internalType": "address",
          "name": "spender",
          "type": "address"
        },
        {
          "indexed": false,
          "internalType": "uint256",
          "name": "value",
          "type": "uint256"
        }
      ],
      "name": "Approval",
      "type": "event"
    },
    {
      "anonymous": false,
      "inputs": [
        {
          "indexed": true,
          "internalType": "address",
          "name": "from",
          "type": "address"
        },
        {
          "indexed": true,
          "internalType": "address",
          "name": "to",
          "type": "address"
        },
        {
          "indexed": false,
          "internalType": "uint256",
          "name": "value",
          "type": "uint256"
        }
      ],
      "name": "Transfer",
      "type": "event"
    },
    {
      "inputs": [
        {
          "internalType": "address",
          "name": "owner",
          "type": "address"
        },
        {
          "internalType": "address",
          "name": "spender",
          "type": "address"
        }
      ],
      "name": "allowance",
      "outputs": [
        {
          "internalType": "uint256",
          "name": "",
          "type": "uint256"
        }
      ],
      "stateMutability": "view",
      "type": "function"
    },
    {
      "inputs": [
        {
          "internalType": "address",
          "name": "spender",
          "type": "address"
        },
        {
          "internalType": "uint256",
          "name": "amount",
          "type": "uint256"
        }
      ],
      "name": "approve",
      "outputs": [
        {
          "internalType": "bool",
          "name": "",
          "type": "bool"
        }
      ],
      "stateMutability": "nonpayable",
      "type": "function"
    },
    {
      "inputs": [
        {
          "internalType": "address",
          "name": "account",
          "type": "address"
        }
      ],
      "name": "balanceOf",
      "outputs": [
        {
          "internalType": "uint256",
          "name": "",
          "type": "uint256"
        }
      ],
      "stateMutability": "view",
      "type": "function"
    },
    {
      "inputs": [],
      "name": "currentIssuance",
      "outputs": [
        {
          "internalType": "uint256",
          "name": "",
          "type": "uint256"
        }
      ],
      "stateMutability": "view",
      "type": "function"
    },
    {
      "inputs": [],
      "name": "decimals",
      "outputs": [
        {
          "internalType": "uint8",
          "name": "",
          "type": "uint8"
        }
      ],
      "stateMutability": "view",
      "type": "function"
    },
    {
      "inputs": [
        {
          "internalType": "address",
          "name": "spender",
          "type": "address"
        },
        {
          "internalType": "uint256",
          "name": "subtractedValue",
          "type": "uint256"
        }
      ],
      "name": "decreaseAllowance",
      "outputs": [
        {
          "internalType": "bool",
          "name": "",
          "type": "bool"
        }
      ],
      "stateMutability": "nonpayable",
      "type": "function"
    },
    {
      "inputs": [],
      "name": "hub",
      "outputs": [
        {
          "internalType": "address",
          "name": "",
          "type": "address"
        }
      ],
      "stateMutability": "view",
      "type": "function"
    },
    {
      "inputs": [
        {
          "internalType": "address",
          "name": "spender",
          "type": "address"
        },
        {
          "internalType": "uint256",
          "name": "addedValue",
          "type": "uint256"
        }
      ],
      "name": "increaseAllowance",
      "outputs": [
        {
          "internalType": "bool",
          "name": "",
          "type": "bool"
        }
      ],
      "stateMutability": "nonpayable",
      "type": "function"
    },
    {
      "inputs": [],
      "name": "inflationOffset",
      "outputs": [
        {
          "internalType": "uint256",
          "name": "",
          "type": "uint256"
        }
      ],
      "stateMutability": "view",
      "type": "function"
    },
    {
      "inputs": [],
      "name": "lastTouched",
      "outputs": [
        {
          "internalType": "uint256",
          "name": "",
          "type": "uint256"
        }
      ],
      "stateMutability": "view",
      "type": "function"
    },
    {
      "inputs": [],
      "name": "owner",
      "outputs": [
        {
          "internalType": "address",
          "name": "",
          "type": "address"
        }
      ],
      "stateMutability": "view",
      "type": "function"
    },
    {
      "inputs": [],
      "name": "totalSupply",
      "outputs": [
        {
          "internalType": "uint256",
          "name": "",
          "type": "uint256"
        }
      ],
      "stateMutability": "view",
      "type": "function"
    },
    {
      "inputs": [
        {
          "internalType": "address",
          "name": "sender",
          "type": "address"
        },
        {
          "internalType": "address",
          "name": "recipient",
          "type": "address"
        },
        {
          "internalType": "uint256",
          "name": "amount",
          "type": "uint256"
        }
      ],
      "name": "transferFrom",
      "outputs": [
        {
          "internalType": "bool",
          "name": "",
          "type": "bool"
        }
      ],
      "stateMutability": "nonpayable",
      "type": "function"
    },
    {
      "inputs": [],
      "name": "time",
      "outputs": [
        {
          "internalType": "uint256",
          "name": "",
          "type": "uint256"
        }
      ],
      "stateMutability": "view",
      "type": "function"
    },
    {
      "inputs": [],
      "name": "symbol",
      "outputs": [
        {
          "internalType": "string",
          "name": "",
          "type": "string"
        }
      ],
      "stateMutability": "view",
      "type": "function"
    },
    {
      "inputs": [],
      "name": "name",
      "outputs": [
        {
          "internalType": "string",
          "name": "",
          "type": "string"
        }
      ],
      "stateMutability": "view",
      "type": "function"
    },
    {
      "inputs": [],
      "name": "period",
      "outputs": [
        {
          "internalType": "uint256",
          "name": "",
          "type": "uint256"
        }
      ],
      "stateMutability": "view",
      "type": "function"
    },
    {
      "inputs": [],
      "name": "periods",
      "outputs": [
        {
          "internalType": "uint256",
          "name": "",
          "type": "uint256"
        }
      ],
      "stateMutability": "view",
      "type": "function"
    },
    {
      "inputs": [],
      "name": "timeout",
      "outputs": [
        {
          "internalType": "uint256",
          "name": "",
          "type": "uint256"
        }
      ],
      "stateMutability": "view",
      "type": "function"
    },
    {
      "inputs": [],
      "name": "periodsWhenLastTouched",
      "outputs": [
        {
          "internalType": "uint256",
          "name": "",
          "type": "uint256"
        }
      ],
      "stateMutability": "view",
      "type": "function"
    },
    {
      "inputs": [],
      "name": "hubDeployedAt",
      "outputs": [
        {
          "internalType": "uint256",
          "name": "",
          "type": "uint256"
        }
      ],
      "stateMutability": "view",
      "type": "function"
    },
    {
      "inputs": [],
      "name": "stop",
      "outputs": [],
      "stateMutability": "nonpayable",
      "type": "function"
    },
    {
      "inputs": [],
      "name": "stopped",
      "outputs": [
        {
          "internalType": "bool",
          "name": "",
          "type": "bool"
        }
      ],
      "stateMutability": "view",
      "type": "function"
    },
    {
      "inputs": [],
      "name": "findInflationOffset",
      "outputs": [
        {
          "internalType": "uint256",
          "name": "",
          "type": "uint256"
        }
      ],
      "stateMutability": "view",
      "type": "function"
    },
    {
      "inputs": [],
      "name": "look",
      "outputs": [
        {
          "internalType": "uint256",
          "name": "",
          "type": "uint256"
        }
      ],
      "stateMutability": "view",
      "type": "function"
    },
    {
      "inputs": [],
      "name": "update",
      "outputs": [],
      "stateMutability": "nonpayable",
      "type": "function"
    },
    {
      "inputs": [
        {
          "internalType": "address",
          "name": "from",
          "type": "address"
        },
        {
          "internalType": "address",
          "name": "to",
          "type": "address"
        },
        {
          "internalType": "uint256",
          "name": "amount",
          "type": "uint256"
        }
      ],
      "name": "hubTransfer",
      "outputs": [
        {
          "internalType": "bool",
          "name": "",
          "type": "bool"
        }
      ],
      "stateMutability": "nonpayable",
      "type": "function"
    },
    {
      "inputs": [
        {
          "internalType": "address",
          "name": "dst",
          "type": "address"
        },
        {
          "internalType": "uint256",
          "name": "wad",
          "type": "uint256"
        }
      ],
      "name": "transfer",
      "outputs": [
        {
          "internalType": "bool",
          "name": "",
          "type": "bool"
        }
      ],
      "stateMutability": "nonpayable",
      "type": "function"
    }
  ],
  "bytecode": "0x60c0604052600960f91b6080523480156200001957600080fd5b50604051620015a7380380620015a7833981810160405260208110156200003f57600080fd5b50516001600160a01b0381166200005557600080fd5b6001600160601b0319606082901b1660a052600680546001600160a01b031916331790556200008362000192565b6005556200009062000196565b6007556006546040805163863623bb60e01b815290516001600160a01b039092169163863623bb91600480820192602092909190829003018186803b158015620000d957600080fd5b505afa158015620000ee573d6000803e3d6000fd5b505050506040513d60208110156200010557600080fd5b505160085560065460408051630cf96a5b60e31b815290516200018b9284926001600160a01b03909116916367cb52d891600480820192602092909190829003018186803b1580156200015757600080fd5b505afa1580156200016c573d6000803e3d6000fd5b505050506040513d60208110156200018357600080fd5b505162000215565b506200043b565b4290565b600080620001ea620001a762000324565b620001b8620001cc6001826200039d565b620003e360201b62000c011790919060201c565b620001d6620003e7565b6200042d60201b62000c051790919060201c565b90506200020f620001fa62000192565b826200043160201b62000c091790919060201c565b91505090565b6001600160a01b03821662000271576040805162461bcd60e51b815260206004820152601f60248201527f45524332303a206d696e7420746f20746865207a65726f206164647265737300604482015290519081900360640190fd5b6200027f6000838362000436565b6200029b81600254620003e360201b62000c011790919060201c565b6002556001600160a01b03821660009081526020818152604090912054620002ce91839062000c01620003e3821b17901c565b6001600160a01b0383166000818152602081815260408083209490945583518581529351929391927fddf252ad1be2c89b69c2b068fc378daa952ba7f163c4a11628f55a4df523b3ef9281900390910190a35050565b6006546040805163eae4c19f60e01b815290516000926001600160a01b03169163eae4c19f916004808301926020929190829003018186803b1580156200036a57600080fd5b505afa1580156200037f573d6000803e3d6000fd5b505050506040513d60208110156200039657600080fd5b5051905090565b6006546040805163526575a160e11b815290516000926001600160a01b03169163a4caeb42916004808301926020929190829003018186803b1580156200036a57600080fd5b0190565b6006546040805163ef78d4fd60e01b815290516000926001600160a01b03169163ef78d4fd916004808301926020929190829003018186803b1580156200036a57600080fd5b0290565b900390565b505050565b60805160f81c60a05160601c6111386200046f6000398061058952806109bb5280610ac35250806106ab52506111386000f3fe608060405234801561001057600080fd5b50600436106101645760003560e01c80636c050eae116100c95780636c050eae1461034c57806370a082311461035457806370dea79a1461037a57806375f12b21146103825780638b4eed811461038a5780638da5cb5b1461039257806395d89b411461039a578063a2e62045146103a2578063a457c2d7146103aa578063a4caeb42146103d6578063a9059cbb146103de578063d40480891461040a578063dd62ed3e14610412578063ef78d4fd1461044057610164565b806306fdde031461016957806307da68f5146101e6578063095ea7b3146101f05780630b0aaf2714610230578063107129dd1461024a57806316ada5471461025257806318160ddd1461025a57806320a6703c1461026257806323b872dd14610298578063313ce567146102ce578063365a86fc146102ec57806339509351146103105780633b6fe91f1461033c57806341c3054614610344575b600080fd5b610171610448565b6040805160208082528351818301528351919283929083019185019080838360005b838110156101ab578181015183820152602001610193565b50505050905090810190601f1680156101d85780820380516001836020036101000a031916815260200191505b509250505060405180910390f35b6101ee61057e565b005b61021c6004803603604081101561020657600080fd5b506001600160a01b0381351690602001356105c2565b604080519115158252519081900360200190f35b6102386105d8565b60408051918252519081900360200190f35b610238610604565b61023861060a565b61023861060e565b61021c6004803603606081101561027857600080fd5b506001600160a01b03813581169160208101359091169060400135610614565b61021c600480360360608110156102ae57600080fd5b506001600160a01b03813581169160208101359091169060400135610640565b6102d66106a9565b6040805160ff9092168252519081900360200190f35b6102f46106cd565b604080516001600160a01b039092168252519081900360200190f35b61021c6004803603604081101561032657600080fd5b506001600160a01b0381351690602001356106dc565b610238610712565b610238610788565b6102386107d4565b6102386004803603602081101561036a57600080fd5b50356001600160a01b031661090a565b610238610925565b61021c61096a565b6102386109b3565b6102f46109b9565b6101716109dd565b6101ee610a22565b61021c600480360360408110156103c057600080fd5b506001600160a01b038135169060200135610aeb565b610238610b3a565b61021c600480360360408110156103f457600080fd5b506001600160a01b038135169060200135610b7f565b610238610b8b565b6102386004803603604081101561042857600080fd5b506001600160a01b0381358116916020013516610b91565b610238610bbc565b600654604080516306fdde0360e01b815290516060926001600160a01b0316916306fdde03916004808301926000929190829003018186803b15801561048d57600080fd5b505afa1580156104a1573d6000803e3d6000fd5b505050506040513d6000823e601f3d908101601f1916820160405260208110156104ca57600080fd5b8101908080516040519392919084600160201b8211156104e957600080fd5b9083019060208201858111156104fe57600080fd5b8251600160201b81118282018810171561051757600080fd5b82525081516020918201929091019080838360005b8381101561054457818101518382015260200161052c565b50505050905090810190601f1680156105715780820380516001836020036101000a031916815260200191505b5060405250505090505b90565b336001600160a01b037f000000000000000000000000000000000000000000000000000000000000000016146105b357600080fd5b6009805460ff19166001179055565b60006105cf338484610c0e565b50600192915050565b60006105ff6105e5610bbc565b6105f96105f0610712565b60055490610c09565b90610cfa565b905090565b60075481565b4290565b60025490565b6006546000906001600160a01b0316331461062e57600080fd5b610639848484610d0d565b9392505050565b600061064d848484610d0d565b61069f843361069a8560405180606001604052806028815260200161106d602891396001600160a01b038a1660009081526001602090815260408083203384529091529020549190610e68565b610c0e565b5060019392505050565b7f000000000000000000000000000000000000000000000000000000000000000081565b6006546001600160a01b031681565b3360008181526001602090815260408083206001600160a01b038716845290915281205490916105cf91859061069a9086610c01565b6006546040805163eae4c19f60e01b815290516000926001600160a01b03169163eae4c19f916004808301926020929190829003018186803b15801561075757600080fd5b505afa15801561076b573d6000803e3d6000fd5b505050506040513d602081101561078157600080fd5b5051905090565b6000806107ba610796610712565b6107a66107ac60016107a6610b3a565b90610c01565b6107b4610bbc565b90610c05565b90506107ce6107c761060a565b8290610c09565b91505090565b60006107de61096a565b156107eb5750600061057b565b6005546007546008546000929190836108026105d8565b90505b61080d61060a565b6108178585610c01565b116108d5576108306108298484610c05565b8690610c01565b945061083c8484610c01565b9350610846610bbc565b9250610853816001610c01565b600654604080516361c4b42160e01b81526004810184905290519293506001600160a01b03909116916361c4b42191602480820192602092909190829003018186803b1580156108a257600080fd5b505afa1580156108b6573d6000803e3d6000fd5b505050506040513d60208110156108cc57600080fd5b50519150610805565b60006108e9856108e361060a565b90610c09565b90506108ff6108f88285610c05565b8790610c01565b965050505050505090565b6001600160a01b031660009081526020819052604090205490565b6006546040805163386f53cd60e11b815290516000926001600160a01b0316916370dea79a916004808301926020929190829003018186803b15801561075757600080fd5b60095460009060ff16156109805750600161057b565b60006109906005546108e361060a565b905061099a610925565b8111156109ab57600191505061057b565b600091505090565b60055481565b7f000000000000000000000000000000000000000000000000000000000000000081565b600654604080516395d89b4160e01b815290516060926001600160a01b0316916395d89b41916004808301926000929190829003018186803b15801561048d57600080fd5b6000610a2c6107d4565b90508015610ae857610a3c610788565b600755610a4761060a565b6005556006546040805163863623bb60e01b815290516001600160a01b039092169163863623bb91600480820192602092909190829003018186803b158015610a8f57600080fd5b505afa158015610aa3573d6000803e3d6000fd5b505050506040513d6020811015610ab957600080fd5b5051600855610ae87f000000000000000000000000000000000000000000000000000000000000000082610eff565b50565b60006105cf338461069a856040518060600160405280602581526020016110de602591393360009081526001602090815260408083206001600160a01b038d1684529091529020549190610e68565b6006546040805163526575a160e11b815290516000926001600160a01b03169163a4caeb42916004808301926020929190829003018186803b15801561075757600080fd5b60006106398383610fef565b60085481565b6001600160a01b03918216600090815260016020908152604080832093909416825291909152205490565b6006546040805163ef78d4fd60e01b815290516000926001600160a01b03169163ef78d4fd916004808301926020929190829003018186803b15801561075757600080fd5b0190565b0290565b900390565b6001600160a01b038316610c535760405162461bcd60e51b81526004018080602001828103825260248152602001806110ba6024913960400191505060405180910390fd5b6001600160a01b038216610c985760405162461bcd60e51b81526004018080602001828103825260228152602001806110256022913960400191505060405180910390fd5b6001600160a01b03808416600081815260016020908152604080832094871680845294825291829020859055815185815291517f8c5be1e5ebec7d5bd14f71427d1e84f3dd0314c0f7b2291e5b200ac8c7c3b9259281900390910190a3505050565b6000818381610d0557fe5b049392505050565b6001600160a01b038316610d525760405162461bcd60e51b81526004018080602001828103825260258152602001806110956025913960400191505060405180910390fd5b6001600160a01b038216610d975760405162461bcd60e51b81526004018080602001828103825260238152602001806110026023913960400191505060405180910390fd5b610da2838383610ffc565b610ddf81604051806060016040528060268152602001611047602691396001600160a01b0386166000908152602081905260409020549190610e68565b6001600160a01b038085166000908152602081905260408082209390935590841681522054610e0e9082610c01565b6001600160a01b038084166000818152602081815260409182902094909455805185815290519193928716927fddf252ad1be2c89b69c2b068fc378daa952ba7f163c4a11628f55a4df523b3ef92918290030190a3505050565b60008184841115610ef75760405162461bcd60e51b81526004018080602001828103825283818151815260200191508051906020019080838360005b83811015610ebc578181015183820152602001610ea4565b50505050905090810190601f168015610ee95780820380516001836020036101000a031916815260200191505b509250505060405180910390fd5b505050900390565b6001600160a01b038216610f5a576040805162461bcd60e51b815260206004820152601f60248201527f45524332303a206d696e7420746f20746865207a65726f206164647265737300604482015290519081900360640190fd5b610f6660008383610ffc565b600254610f739082610c01565b6002556001600160a01b038216600090815260208190526040902054610f999082610c01565b6001600160a01b0383166000818152602081815260408083209490945583518581529351929391927fddf252ad1be2c89b69c2b068fc378daa952ba7f163c4a11628f55a4df523b3ef9281900390910190a35050565b60006105cf338484610d0d565b50505056fe45524332303a207472616e7366657220746f20746865207a65726f206164647265737345524332303a20617070726f766520746f20746865207a65726f206164647265737345524332303a207472616e7366657220616d6f756e7420657863656564732062616c616e636545524332303a207472616e7366657220616d6f756e74206578636565647320616c6c6f77616e636545524332303a207472616e736665722066726f6d20746865207a65726f206164647265737345524332303a20617070726f76652066726f6d20746865207a65726f206164647265737345524332303a2064656372656173656420616c6c6f77616e63652062656c6f77207a65726fa264697066735822122043bf028c52f1073b7ebfb7aff5bf6606e7961a688a688e92949ba7f4f93f6d6064736f6c63430007010033",
  "immutableReferences": {
    "4746": [
      {
        "length": 32,
        "start": 1707
      }
    ],
    "4752": [
      {
        "length": 32,
        "start": 1417
      },
      {
        "length": 32,
        "start": 2491
      },
      {
        "length": 32,
        "start": 2755
      }
    ]
  },
  "source": "// SPDX-License-Identifier: AGPL\npragma solidity ^0.7.0;\n\nimport \"./lib/SafeMath.sol\";\nimport \"./ERC20.sol\";\nimport \"./interfaces/HubI.sol\";\n\ncontract Token is ERC20 {\n    using SafeMath for uint256;\n\n    uint8 public immutable override decimals = 18;\n\n    uint256 public lastTouched; // the timestamp of the last ubi payout\n    address public hub; // the address of the hub this token was deployed through\n    address public immutable owner; // the safe that deployed this token\n    uint256 public inflationOffset; // the amount of seconds until the next inflation step\n    uint256 public currentIssuance; // issanceRate at the time this token was deployed\n    bool private manuallyStopped; // true if this token has been stopped by it's owner\n\n    /// @dev modifier allowing function to be only called through the hub\n    modifier onlyHub() {\n        require(msg.sender == hub);\n        _;\n    }\n\n    /// @dev modifier allowing function to be only called by the token owner\n    modifier onlyOwner() {\n        require(msg.sender == owner);\n        _;\n    }\n\n    constructor(address _owner) {\n        require(_owner != address(0));\n        owner = _owner;\n        hub = msg.sender;\n        lastTouched = time();\n        inflationOffset = findInflationOffset();\n        currentIssuance = HubI(hub).issuance();\n        _mint(_owner, HubI(hub).signupBonus());\n    }\n\n    /// @notice helper function for block timestamp\n    /// @return the block timestamp\n    function time() public view returns (uint256) {\n        return block.timestamp;\n    }\n\n    /// @notice helper function for the token symbol\n    /// @dev all circles tokens should have the same symbol\n    /// @return the token symbol\n    function symbol() public view override returns (string memory) {\n        return HubI(hub).symbol();\n    }\n\n    /// @notice helper function for the token name\n    /// @dev all circles tokens should have the same name\n    /// @return the token name\n    function name() public view returns (string memory) {\n        return HubI(hub).name();\n    }\n\n    /// @notice helper function for fetching the period length from the hub\n    /// @return period length in seconds\n    function period() public view returns (uint256) {\n        return HubI(hub).period();\n    }\n\n    /// @notice helper function for fetching the number of periods from the hub\n    /// @return the number of periods since the hub was deployed\n    function periods() public view returns (uint256) {\n        return HubI(hub).periods();\n    }\n\n    /// @notice helper function for fetching the timeout from the hub\n    /// @return the number of seconds the token can go without being updated before it's deactivated\n    function timeout() public view returns (uint256) {\n        return HubI(hub).timeout();\n    }\n\n    /// @notice find the inflation step when ubi was last payed out\n    /// @dev ie. if ubi was last payed out during the second inflation step, returns two\n    /// @return the inflation step by count\n    function periodsWhenLastTouched() public view returns (uint256) {\n        return (lastTouched.sub(hubDeployedAt())).div(period());\n    }\n\n    /// @notice helper functio for getting the hub deployment time\n    /// @return the timestamp the hub was deployed at\n    function hubDeployedAt() public view returns (uint256) {\n        return HubI(hub).deployedAt();\n    }\n\n    /// @notice Caution! manually deactivates or stops this token, no ubi will be payed out after this is called\n    /// @dev intended for use in case of key loss, system failure, or migration to new contracts\n    function stop() public onlyOwner {\n        manuallyStopped = true;\n    }\n\n    /// @notice checks whether this token has been either stopped manually, or whether it has timed out\n    /// @dev combines the manual stop variable with a dead man's switch\n    /// @return false is the token is still paying out ubi, otherwise true\n    function stopped() public view returns (bool) {\n        if (manuallyStopped) return true;\n        uint256 secondsSinceLastTouched = time().sub(lastTouched);\n        if (secondsSinceLastTouched > timeout()) return true;\n        return false;\n    }\n\n    /// @notice the amount of seconds until the ubi payout is next inflated\n    /// @dev ubi is payed out continuously between inflation steps\n    /// @return the amount of seconds until the next inflation step\n    function findInflationOffset() public view returns (uint256) {\n        // finds the timestamp of the next inflation step, and subtracts the current timestamp\n        uint256 nextInflation =\n            ((period().mul(periods().add(1))).add(hubDeployedAt()));\n        return nextInflation.sub(time());\n    }\n\n    /// @notice checks how much ubi this token holder is owed, but doesn't update their balance\n    /// @dev is called in the update method to write the new balance to state, but also useful in wallets\n    /// @return how much ubi this token holder is owed\n    function look() public view returns (uint256) {\n        // don't payout ubi if the token has been deactivated/stopped\n        if (stopped()) return 0;\n        uint256 payout = 0;\n        uint256 clock = lastTouched;\n        uint256 offset = inflationOffset;\n        uint256 rate = currentIssuance;\n        uint256 p = periodsWhenLastTouched();\n        // this while loop gets executed only when we're rolling over an inflation step\n        // in the course of a ubi payout aka while we have to pay out ubi for more time\n        // than lastTouched + inflationOffset\n        while (clock.add(offset) <= time()) {\n            // add the remaining offset time to the payout total at the current rate\n            payout = payout.add(offset.mul(rate));\n            // adjust clock to the timestamp of the next inflation step\n            clock = clock.add(offset);\n            // the offset is now the length of 1 period\n            offset = period();\n            // increment the period we are paying out for\n            p = p.add(1);\n            // find the issuance rate as of the next period\n            rate = HubI(hub).issuanceByStep(p);\n        }\n        // at this point, time() - clock should always be less than 1 period\n        uint256 timeSinceLastPayout = time().sub(clock);\n        payout = payout.add(timeSinceLastPayout.mul(rate));\n        return payout;\n    }\n\n    /// @notice receive a ubi payout\n    /// @dev this is the method to actually update storage with new token balance\n    function update() public {\n        uint256 gift = look();\n        // does nothing if there's no ubi to be payed out\n        if (gift > 0) {\n            // update the state variables used to calculate ubi, then mint\n            inflationOffset = findInflationOffset();\n            lastTouched = time();\n            currentIssuance = HubI(hub).issuance();\n            _mint(owner, gift);\n        }\n    }\n\n    /// @notice special method called by the hub to execute a transitive transaction\n    /// @param from the address the tokens are being transferred from\n    /// @param to the address the tokens are being transferred to\n    /// @param amount the amount of tokens to transfer\n    function hubTransfer(\n        address from,\n        address to,\n        uint256 amount\n    ) public onlyHub returns (bool) {\n        _transfer(from, to, amount);\n    }\n\n    function transfer(address dst, uint256 wad) public override returns (bool) {\n        // this code shouldn't be necessary, but when it's removed the gas estimation methods\n        // in the gnosis safe no longer work, still true as of solidity 7.1\n        return super.transfer(dst, wad);\n    }\n}\n",
  "sourcePath": "/home/daniel/src/circles-world/circles-contracts/contracts/Token.sol",
  "compiler": {
    "name": "solc",
    "version": "0.7.1+commit.f4a555be.Emscripten.clang"
  },
  "schemaVersion": "3.4.8",
  "updatedAt": "2022-07-16T18:47:06.649Z",
  "devdoc": {
    "kind": "dev",
    "methods": {
      "allowance(address,address)": {
        "details": "See {IERC20-allowance}."
      },
      "approve(address,uint256)": {
        "details": "See {IERC20-approve}. Requirements: - `spender` cannot be the zero address."
      },
      "balanceOf(address)": {
        "details": "See {IERC20-balanceOf}."
      },
      "decreaseAllowance(address,uint256)": {
        "details": "Atomically decreases the allowance granted to `spender` by the caller. This is an alternative to {approve} that can be used as a mitigation for problems described in {IERC20-approve}. Emits an {Approval} event indicating the updated allowance. Requirements: - `spender` cannot be the zero address. - `spender` must have allowance for the caller of at least `subtractedValue`."
      },
      "findInflationOffset()": {
        "details": "ubi is payed out continuously between inflation steps",
        "returns": {
          "_0": "the amount of seconds until the next inflation step"
        }
      },
      "hubDeployedAt()": {
        "returns": {
          "_0": "the timestamp the hub was deployed at"
        }
      },
      "hubTransfer(address,address,uint256)": {
        "params": {
          "amount": "the amount of tokens to transfer",
          "from": "the address the tokens are being transferred from",
          "to": "the address the tokens are being transferred to"
        }
      },
      "increaseAllowance(address,uint256)": {
        "details": "Atomically increases the allowance granted to `spender` by the caller. This is an alternative to {approve} that can be used as a mitigation for problems described in {IERC20-approve}. Emits an {Approval} event indicating the updated allowance. Requirements: - `spender` cannot be the zero address."
      },
      "look()": {
        "details": "is called in the update method to write the new balance to state, but also useful in wallets",
        "returns": {
          "_0": "how much ubi this token holder is owed"
        }
      },
      "name()": {
        "details": "all circles tokens should have the same name",
        "returns": {
          "_0": "the token name"
        }
      },
      "period()": {
        "returns": {
          "_0": "period length in seconds"
        }
      },
      "periods()": {
        "returns": {
          "_0": "the number of periods since the hub was deployed"
        }
      },
      "periodsWhenLastTouched()": {
        "details": "ie. if ubi was last payed out during the second inflation step, returns two",
        "returns": {
          "_0": "the inflation step by count"
        }
      },
      "stop()": {
        "details": "intended for use in case of key loss, system failure, or migration to new contracts"
      },
      "stopped()": {
        "details": "combines the manual stop variable with a dead man's switch",
        "returns": {
          "_0": "false is the token is still paying out ubi, otherwise true"
        }
      },
      "symbol()": {
        "details": "all circles tokens should have the same symbol",
        "returns": {
          "_0": "the token symbol"
        }
      },
      "time()": {
        "returns": {
          "_0": "the block timestamp"
        }
      },
      "timeout()": {
        "returns": {
          "_0": "the number of seconds the token can go without being updated before it's deactivated"
        }
      },
      "totalSupply()": {
        "details": "See {IERC20-totalSupply}."
      },
      "transferFrom(address,address,uint256)": {
        "details": "See {IERC20-transferFrom}. Emits an {Approval} event indicating the updated allowance. This is not required by the EIP. See the note at the beginning of {ERC20}; Requirements: - `sender` and `recipient` cannot be the zero address. - `sender` must have a balance of at least `amount`. - the caller must have allowance for ``sender``'s tokens of at least `amount`."
      },
      "update()": {
        "details": "this is the method to actually update storage with new token balance"
      }
    },
    "stateVariables": {
      "decimals": {
        "details": "Returns the number of decimals used to get its user representation. For example, if `decimals` equals `2`, a balance of `505` tokens should be displayed to a user as `5,05` (`505 / 10 ** 2`). Tokens usually opt for a value of 18, imitating the relationship between Ether and Wei. This is the value {ERC20} uses, unless {_setupDecimals} is called. NOTE: This information is only used for _display_ purposes: it in no way affects any of the arithmetic of the contract, including {IERC20-balanceOf} and {IERC20-transfer}."
      }
    },
    "version": 1
  },
  "userdoc": {
    "kind": "user",
    "methods": {
      "findInflationOffset()": {
        "notice": "the amount of seconds until the ubi payout is next inflated"
      },
      "hubDeployedAt()": {
        "notice": "helper functio for getting the hub deployment time"
      },
      "hubTransfer(address,address,uint256)": {
        "notice": "special method called by the hub to execute a transitive transaction"
      },
      "look()": {
        "notice": "checks how much ubi this token holder is owed, but doesn't update their balance"
      },
      "name()": {
        "notice": "helper function for the token name"
      },
      "period()": {
        "notice": "helper function for fetching the period length from the hub"
      },
      "periods()": {
        "notice": "helper function for fetching the number of periods from the hub"
      },
      "periodsWhenLastTouched()": {
        "notice": "find the inflation step when ubi was last payed out"
      },
      "stop()": {
        "notice": "Caution! manually deactivates or stops this token, no ubi will be payed out after this is called"
      },
      "stopped()": {
        "notice": "checks whether this token has been either stopped manually, or whether it has timed out"
      },
      "symbol()": {
        "notice": "helper function for the token symbol"
      },
      "time()": {
        "notice": "helper function for block timestamp"
      },
      "timeout()": {
        "notice": "helper function for fetching the timeout from the hub"
      },
      "update()": {
        "notice": "receive a ubi payout"
      }
    },
    "version": 1
  }
}